{
  "_format": "hh-sol-artifact-1",
  "contractName": "TokenLaunchpadVouchersSale",
  "sourceName": "contracts/sale/TokenLaunchpadVouchersSale.sol",
  "abi": [
    {
      "inputs": [
        {
          "internalType": "contract IVouchersContract",
          "name": "vouchersContract_",
          "type": "address"
        },
        {
          "internalType": "address payable",
          "name": "payoutWallet",
          "type": "address"
        },
        {
          "internalType": "uint256",
          "name": "skusCapacity",
          "type": "uint256"
        },
        {
          "internalType": "uint256",
          "name": "tokensPerSkuCapacity",
          "type": "uint256"
        }
      ],
      "stateMutability": "nonpayable",
      "type": "constructor"
    },
    {
      "anonymous": false,
      "inputs": [
        {
          "indexed": false,
          "internalType": "bytes32[]",
          "name": "names",
          "type": "bytes32[]"
        },
        {
          "indexed": false,
          "internalType": "bytes32[]",
          "name": "values",
          "type": "bytes32[]"
        }
      ],
      "name": "MagicValues",
      "type": "event"
    },
    {
      "anonymous": false,
      "inputs": [
        {
          "indexed": true,
          "internalType": "address",
          "name": "previousOwner",
          "type": "address"
        },
        {
          "indexed": true,
          "internalType": "address",
          "name": "newOwner",
          "type": "address"
        }
      ],
      "name": "OwnershipTransferred",
      "type": "event"
    },
    {
      "anonymous": false,
      "inputs": [
        {
          "indexed": false,
          "internalType": "address",
          "name": "account",
          "type": "address"
        }
      ],
      "name": "Paused",
      "type": "event"
    },
    {
      "anonymous": false,
      "inputs": [
        {
          "indexed": false,
          "internalType": "address",
          "name": "payoutWallet_",
          "type": "address"
        }
      ],
      "name": "PayoutWalletSet",
      "type": "event"
    },
    {
      "anonymous": false,
      "inputs": [
        {
          "indexed": true,
          "internalType": "address",
          "name": "purchaser",
          "type": "address"
        },
        {
          "indexed": false,
          "internalType": "address",
          "name": "recipient",
          "type": "address"
        },
        {
          "indexed": true,
          "internalType": "address",
          "name": "token",
          "type": "address"
        },
        {
          "indexed": true,
          "internalType": "bytes32",
          "name": "sku",
          "type": "bytes32"
        },
        {
          "indexed": false,
          "internalType": "uint256",
          "name": "quantity",
          "type": "uint256"
        },
        {
          "indexed": false,
          "internalType": "bytes",
          "name": "userData",
          "type": "bytes"
        },
        {
          "indexed": false,
          "internalType": "uint256",
          "name": "totalPrice",
          "type": "uint256"
        },
        {
          "indexed": false,
          "internalType": "bytes",
          "name": "extData",
          "type": "bytes"
        }
      ],
      "name": "Purchase",
      "type": "event"
    },
    {
      "anonymous": false,
      "inputs": [
        {
          "indexed": false,
          "internalType": "bytes32",
          "name": "sku",
          "type": "bytes32"
        },
        {
          "indexed": false,
          "internalType": "uint256",
          "name": "totalSupply",
          "type": "uint256"
        },
        {
          "indexed": false,
          "internalType": "uint256",
          "name": "maxQuantityPerPurchase",
          "type": "uint256"
        },
        {
          "indexed": false,
          "internalType": "address",
          "name": "notificationsReceiver",
          "type": "address"
        }
      ],
      "name": "SkuCreation",
      "type": "event"
    },
    {
      "anonymous": false,
      "inputs": [
        {
          "indexed": true,
          "internalType": "bytes32",
          "name": "sku",
          "type": "bytes32"
        },
        {
          "indexed": false,
          "internalType": "address[]",
          "name": "tokens",
          "type": "address[]"
        },
        {
          "indexed": false,
          "internalType": "uint256[]",
          "name": "prices",
          "type": "uint256[]"
        }
      ],
      "name": "SkuPricingUpdate",
      "type": "event"
    },
    {
      "anonymous": false,
      "inputs": [
        {
          "indexed": false,
          "internalType": "address",
          "name": "account",
          "type": "address"
        }
      ],
      "name": "Started",
      "type": "event"
    },
    {
      "anonymous": false,
      "inputs": [
        {
          "indexed": false,
          "internalType": "address",
          "name": "account",
          "type": "address"
        }
      ],
      "name": "Unpaused",
      "type": "event"
    },
    {
      "inputs": [],
      "name": "SUPPLY_UNLIMITED",
      "outputs": [
        {
          "internalType": "uint256",
          "name": "",
          "type": "uint256"
        }
      ],
      "stateMutability": "view",
      "type": "function"
    },
    {
      "inputs": [],
      "name": "TOKEN_ETH",
      "outputs": [
        {
          "internalType": "address",
          "name": "",
          "type": "address"
        }
      ],
      "stateMutability": "view",
      "type": "function"
    },
    {
      "inputs": [
        {
          "internalType": "bytes32",
          "name": "sku",
          "type": "bytes32"
        },
        {
          "internalType": "uint256",
          "name": "totalSupply",
          "type": "uint256"
        },
        {
          "internalType": "uint256",
          "name": "maxQuantityPerPurchase",
          "type": "uint256"
        },
        {
          "internalType": "uint256",
          "name": "tokenId",
          "type": "uint256"
        }
      ],
      "name": "createSku",
      "outputs": [],
      "stateMutability": "nonpayable",
      "type": "function"
    },
    {
      "inputs": [
        {
          "internalType": "address payable",
          "name": "recipient",
          "type": "address"
        },
        {
          "internalType": "address",
          "name": "token",
          "type": "address"
        },
        {
          "internalType": "bytes32",
          "name": "sku",
          "type": "bytes32"
        },
        {
          "internalType": "uint256",
          "name": "quantity",
          "type": "uint256"
        },
        {
          "internalType": "bytes",
          "name": "userData",
          "type": "bytes"
        }
      ],
      "name": "estimatePurchase",
      "outputs": [
        {
          "internalType": "uint256",
          "name": "totalPrice",
          "type": "uint256"
        },
        {
          "internalType": "bytes32[]",
          "name": "pricingData",
          "type": "bytes32[]"
        }
      ],
      "stateMutability": "view",
      "type": "function"
    },
    {
      "inputs": [
        {
          "internalType": "bytes32",
          "name": "sku",
          "type": "bytes32"
        }
      ],
      "name": "getSkuInfo",
      "outputs": [
        {
          "internalType": "uint256",
          "name": "totalSupply",
          "type": "uint256"
        },
        {
          "internalType": "uint256",
          "name": "remainingSupply",
          "type": "uint256"
        },
        {
          "internalType": "uint256",
          "name": "maxQuantityPerPurchase",
          "type": "uint256"
        },
        {
          "internalType": "address",
          "name": "notificationsReceiver",
          "type": "address"
        },
        {
          "internalType": "address[]",
          "name": "tokens",
          "type": "address[]"
        },
        {
          "internalType": "uint256[]",
          "name": "prices",
          "type": "uint256[]"
        }
      ],
      "stateMutability": "view",
      "type": "function"
    },
    {
      "inputs": [],
      "name": "getSkus",
      "outputs": [
        {
          "internalType": "bytes32[]",
          "name": "skus",
          "type": "bytes32[]"
        }
      ],
      "stateMutability": "view",
      "type": "function"
    },
    {
      "inputs": [],
      "name": "owner",
      "outputs": [
        {
          "internalType": "address",
          "name": "",
          "type": "address"
        }
      ],
      "stateMutability": "view",
      "type": "function"
    },
    {
      "inputs": [],
      "name": "pause",
      "outputs": [],
      "stateMutability": "nonpayable",
      "type": "function"
    },
    {
      "inputs": [],
      "name": "paused",
      "outputs": [
        {
          "internalType": "bool",
          "name": "",
          "type": "bool"
        }
      ],
      "stateMutability": "view",
      "type": "function"
    },
    {
      "inputs": [],
      "name": "payoutWallet",
      "outputs": [
        {
          "internalType": "address payable",
          "name": "",
          "type": "address"
        }
      ],
      "stateMutability": "view",
      "type": "function"
    },
    {
      "inputs": [
        {
          "internalType": "address payable",
          "name": "recipient",
          "type": "address"
        },
        {
          "internalType": "address",
          "name": "token",
          "type": "address"
        },
        {
          "internalType": "bytes32",
          "name": "sku",
          "type": "bytes32"
        },
        {
          "internalType": "uint256",
          "name": "quantity",
          "type": "uint256"
        },
        {
          "internalType": "bytes",
          "name": "userData",
          "type": "bytes"
        }
      ],
      "name": "purchaseFor",
      "outputs": [],
      "stateMutability": "payable",
      "type": "function"
    },
    {
      "inputs": [
        {
          "internalType": "address payable",
          "name": "payoutWallet_",
          "type": "address"
        }
      ],
      "name": "setPayoutWallet",
      "outputs": [],
      "stateMutability": "nonpayable",
      "type": "function"
    },
    {
      "inputs": [
        {
          "internalType": "bytes32",
          "name": "",
          "type": "bytes32"
        }
      ],
      "name": "skuTokenIds",
      "outputs": [
        {
          "internalType": "uint256",
          "name": "",
          "type": "uint256"
        }
      ],
      "stateMutability": "view",
      "type": "function"
    },
    {
      "inputs": [],
      "name": "start",
      "outputs": [],
      "stateMutability": "nonpayable",
      "type": "function"
    },
    {
      "inputs": [],
      "name": "startedAt",
      "outputs": [
        {
          "internalType": "uint256",
          "name": "",
          "type": "uint256"
        }
      ],
      "stateMutability": "view",
      "type": "function"
    },
    {
      "inputs": [
        {
          "internalType": "address",
          "name": "newOwner",
          "type": "address"
        }
      ],
      "name": "transferOwnership",
      "outputs": [],
      "stateMutability": "nonpayable",
      "type": "function"
    },
    {
      "inputs": [],
      "name": "unpause",
      "outputs": [],
      "stateMutability": "nonpayable",
      "type": "function"
    },
    {
      "inputs": [
        {
          "internalType": "bytes32",
          "name": "sku",
          "type": "bytes32"
        },
        {
          "internalType": "address[]",
          "name": "tokens",
          "type": "address[]"
        },
        {
          "internalType": "uint256[]",
          "name": "prices",
          "type": "uint256[]"
        }
      ],
      "name": "updateSkuPricing",
      "outputs": [],
      "stateMutability": "nonpayable",
      "type": "function"
    },
    {
      "inputs": [],
      "name": "vouchersContract",
      "outputs": [
        {
          "internalType": "contract IVouchersContract",
          "name": "",
          "type": "address"
        }
      ],
      "stateMutability": "view",
      "type": "function"
    }
  ],
  "bytecode": "0x60e06040523480156200001157600080fd5b5060405162002cc838038062002cc8833981810160405260808110156200003757600080fd5b5080516020820151604080840151606090940151600080546001600160a01b031916339081178255925194959394919285928592859285928592859260019290918691839182917f8be0079c531659141344cd1fd0a4f28419497f9722a3daafe3b4186f6b6457e0908290a3506001600160a01b03811662000100576040805162461bcd60e51b815260206004820152601460248201527f5061796f75743a207a65726f2061646472657373000000000000000000000000604482015290519081900360640190fd5b600180546001600160a01b0383166001600160a01b0319909116811790915560408051918252517fdd880d24a789958a6398c99c2e54ce31bc10a638cbc42f7dd34285479ae0f8559181900360200190a150506003805460ff1916911515919091179055608082905260a081905260408051600280825260608201835260009260208301908036833750506040805160028082526060820183529394506000939092509060208301908036833750508351919250680a89e968a9cbe8aa8960bb1b9173eeeeeeeeeeeeeeeeeeeeeeeeeeeeeeeeeeeeeeee91508490600090620001e557fe5b6020026020010183600081518110620001fa57fe5b602002602001018281525082815250505060001960001b6f14d55414131657d5539312535255115160821b90836001815181106200023457fe5b60200260200101836001815181106200024957fe5b60200260200101828152508281525050507fabb92614f53337043b55dc996a83ebb09adce78ec336ca188ea02180b61d1c148282604051808060200180602001838103835285818151815260200191508051906020019060200280838360005b83811015620002c3578181015183820152602001620002a9565b50505050905001838103825284818151815260200191508051906020019060200280838360005b8381101562000304578181015183820152602001620002ea565b5050505090500194505050505060405180910390a15050506001600160601b031960609990991b9890981660c052505050505050505060805160a05160c05160601c6129546200037460003980610a615280610db65280611ea25250806114ab52508061157f52506129546000f3fe6080604052600436106101445760003560e01c80636b8f9c43116100c05780639e04954511610074578063be9a655511610059578063be9a6555146106e8578063f21f537d146106fd578063f2fde38b1461071257610144565b80639e0495451461063e578063a963b2571461065357610144565b80638456cb59116100a55780638456cb59146105ff5780638488bb4e146106145780638da5cb5b1461062957610144565b80636b8f9c43146105905780636ed51c48146105c357610144565b8063474f2891116101175780635c975abb116100fc5780635c975abb146103c75780635e6e9f70146103f057806361bd38511461052b57610144565b8063474f2891146103815780635c4fafc7146103b257610144565b80631323b066146101495780631793494c146102465780632a8a45bc146102825780633f4ba83a1461036a575b600080fd5b34801561015557600080fd5b506101eb600480360360a081101561016c57600080fd5b6001600160a01b03823581169260208101359091169160408201359160608101359181019060a0810160808201356401000000008111156101ac57600080fd5b8201836020820111156101be57600080fd5b803590602001918460018302840111640100000000831117156101e057600080fd5b509092509050610745565b6040518083815260200180602001828103825283818151815260200191508051906020019060200280838360005b83811015610231578181015183820152602001610219565b50505050905001935050505060405180910390f35b34801561025257600080fd5b506102706004803603602081101561026957600080fd5b503561083a565b60408051918252519081900360200190f35b34801561028e57600080fd5b506102ac600480360360208110156102a557600080fd5b503561084c565b60405180878152602001868152602001858152602001846001600160a01b031681526020018060200180602001838103835285818151815260200191508051906020019060200280838360005b838110156103115781810151838201526020016102f9565b50505050905001838103825284818151815260200191508051906020019060200280838360005b83811015610350578181015183820152602001610338565b505050509050019850505050505050505060405180910390f35b34801561037657600080fd5b5061037f6109f1565b005b34801561038d57600080fd5b50610396610a5f565b604080516001600160a01b039092168252519081900360200190f35b3480156103be57600080fd5b50610396610a83565b3480156103d357600080fd5b506103dc610a9b565b604080519115158252519081900360200190f35b3480156103fc57600080fd5b5061037f6004803603606081101561041357600080fd5b8135919081019060408101602082013564010000000081111561043557600080fd5b82018360208201111561044757600080fd5b8035906020019184602083028401116401000000008311171561046957600080fd5b91908080602002602001604051908101604052809392919081815260200183836020028082843760009201919091525092959493602081019350359150506401000000008111156104b957600080fd5b8201836020820111156104cb57600080fd5b803590602001918460208302840111640100000000831117156104ed57600080fd5b919080806020026020016040519081016040528093929190818152602001838360200280828437600092019190915250929550610aa4945050505050565b34801561053757600080fd5b50610540610c81565b60408051602080825283518183015283519192839290830191858101910280838360005b8381101561057c578181015183820152602001610564565b505050509050019250505060405180910390f35b34801561059c57600080fd5b5061037f600480360360208110156105b357600080fd5b50356001600160a01b0316610cdc565b3480156105cf57600080fd5b5061037f600480360360808110156105e657600080fd5b5080359060208101359060408101359060600135610da9565b34801561060b57600080fd5b5061037f610ebb565b34801561062057600080fd5b50610396610f22565b34801561063557600080fd5b50610396610f31565b34801561064a57600080fd5b50610270610f40565b61037f600480360360a081101561066957600080fd5b6001600160a01b03823581169260208101359091169160408201359160608101359181019060a0810160808201356401000000008111156106a957600080fd5b8201836020820111156106bb57600080fd5b803590602001918460018302840111640100000000831117156106dd57600080fd5b509092509050610f46565b3480156106f457600080fd5b5061037f61102c565b34801561070957600080fd5b5061027061103f565b34801561071e57600080fd5b5061037f6004803603602081101561073557600080fd5b50356001600160a01b0316611045565b60006060600254600014156107a1576040805162461bcd60e51b815260206004820152601660248201527f537461727461626c653a206e6f74207374617274656400000000000000000000604482015290519081900360640190fd5b6107a96110ab565b6107b161288c565b6107b9611103565b6001600160a01b03908116825289811660208084019190915290891660408084019190915260608301899052608083018890528051601f870183900483028101830190915285815290869086908190840183828082843760009201919091525050505060a082015261082a81611107565b9250925050965096945050505050565b60076020526000908152604090205481565b60008181526006602052604081208190819081906060908190836108726004830161112e565b825498509050876108ca576040805162461bcd60e51b815260206004820152601660248201527f53616c653a206e6f6e2d6578697374656e7420736b7500000000000000000000604482015290519081900360640190fd5b60018201546002830154600384015491985096506001600160a01b031694508067ffffffffffffffff8111801561090057600080fd5b5060405190808252806020026020018201604052801561092a578160200160208202803683370190505b5093508067ffffffffffffffff8111801561094457600080fd5b5060405190808252806020026020018201604052801561096e578160200160208202803683370190505b50925060005b818110156109e55760008061098c6004860184611132565b915091508160001c8784815181106109a057fe5b60200260200101906001600160a01b031690816001600160a01b0316815250508060001c8684815181106109d057fe5b60209081029190910101525050600101610974565b50505091939550919395565b600254610a45576040805162461bcd60e51b815260206004820152601660248201527f537461727461626c653a206e6f74207374617274656400000000000000000000604482015290519081900360640190fd5b610a55610a50611103565b6111c3565b610a5d61128a565b565b7f000000000000000000000000000000000000000000000000000000000000000081565b73eeeeeeeeeeeeeeeeeeeeeeeeeeeeeeeeeeeeeeee81565b60035460ff1681565b610aaf610a50611103565b815181518114610b06576040805162461bcd60e51b815260206004820152601960248201527f53616c653a20696e636f6e73697374656e742061727261797300000000000000604482015290519081900360640190fd5b60008481526006602052604090208054610b67576040805162461bcd60e51b815260206004820152601660248201527f53616c653a206e6f6e2d6578697374656e7420736b7500000000000000000000604482015290519081900360640190fd5b6004810182610bb2576000610b7b8261112e565b905060005b81811015610bab576000610b948482611132565b509050610ba184826112e2565b5050600101610b80565b5050610bbd565b610bbd8186866113c2565b857fcb3fe5489e0cd43d0f4a33d1e09a4a0463a03d0d38f56165530854e5540db1438686604051808060200180602001838103835285818151815260200191508051906020019060200280838360005b83811015610c25578181015183820152602001610c0d565b50505050905001838103825284818151815260200191508051906020019060200280838360005b83811015610c64578181015183820152602001610c4c565b5050505090500194505050505060405180910390a2505050505050565b60606004600001805480602002602001604051908101604052809291908181526020018280548015610cd257602002820191906000526020600020905b815481526020019060010190808311610cbe575b5050505050905090565b610ce7610a50611103565b6001600160a01b038116610d42576040805162461bcd60e51b815260206004820152601460248201527f5061796f75743a207a65726f2061646472657373000000000000000000000000604482015290519081900360640190fd5b6001805473ffffffffffffffffffffffffffffffffffffffff19166001600160a01b03838116919091179182905560408051929091168252517fdd880d24a789958a6398c99c2e54ce31bc10a638cbc42f7dd34285479ae0f855916020908290030190a150565b610db4610a50611103565b7f00000000000000000000000000000000000000000000000000000000000000006001600160a01b031663adebf6f2826040518263ffffffff1660e01b81526004018082815260200191505060206040518083038186803b158015610e1857600080fd5b505afa158015610e2c573d6000803e3d6000fd5b505050506040513d6020811015610e4257600080fd5b5051610e95576040805162461bcd60e51b815260206004820152601a60248201527f53616c653a206e6f7420612066756e6769626c6520746f6b656e000000000000604482015290519081900360640190fd5b6000848152600760205260408120829055610eb59085908590859061152b565b50505050565b600254610f0f576040805162461bcd60e51b815260206004820152601660248201527f537461727461626c653a206e6f74207374617274656400000000000000000000604482015290519081900360640190fd5b610f1a610a50611103565b610a5d611762565b6001546001600160a01b031681565b6000546001600160a01b031690565b60001981565b600254610f9a576040805162461bcd60e51b815260206004820152601660248201527f537461727461626c653a206e6f74207374617274656400000000000000000000604482015290519081900360640190fd5b610fa26110ab565b610faa61288c565b610fb2611103565b6001600160a01b03908116825287811660208084019190915290871660408084019190915260608301879052608083018690528051601f850183900483028101830190915283815290849084908190840183828082843760009201919091525050505060a0820152611023816117a0565b50505050505050565b611037610a50611103565b610a556117cd565b60025490565b611050610a50611103565b6000805473ffffffffffffffffffffffffffffffffffffffff19166001600160a01b0383811691821780845560405192939116917f8be0079c531659141344cd1fd0a4f28419497f9722a3daafe3b4186f6b6457e09190a350565b60035460ff1615610a5d576040805162461bcd60e51b815260206004820152601060248201527f5061757361626c653a2070617573656400000000000000000000000000000000604482015290519081900360640190fd5b3390565b600060606111148361184f565b61111d83611af9565b505060c081015160e0909101519091565b5490565b81546000908190831061118c576040805162461bcd60e51b815260206004820152601c60248201527f456e756d4d61703a20696e646578206f7574206f6620626f756e647300000000604482015290519081900360640190fd5b600084600001848154811061119d57fe5b906000526020600020906002020190508060000154816001015492509250509250929050565b306001600160a01b0316638da5cb5b6040518163ffffffff1660e01b815260040160206040518083038186803b1580156111fc57600080fd5b505afa158015611210573d6000803e3d6000fd5b505050506040513d602081101561122657600080fd5b50516001600160a01b03828116911614611287576040805162461bcd60e51b815260206004820152601660248201527f4f776e61626c653a206e6f7420746865206f776e657200000000000000000000604482015290519081900360640190fd5b50565b611292611b96565b6003805460ff191690557f5db9ee0a495bf2e6ff9c91a7834c1ba4fdd244a5e8aa4e537bd38aeae4b073aa6112c5611103565b604080516001600160a01b039092168252519081900360200190a1565b600081815260018301602052604081205480156113b6578354600019808301919081019060009087908390811061131557fe5b906000526020600020906002020190508087600001848154811061133557fe5b60009182526020808320845460029093020191825560019384015491840191909155835482528983019052604090209084019055865487908061137457fe5b60008281526020808220600260001990940193840201828155600190810183905592909355888152898201909252604082209190915594506113bc9350505050565b60009150505b92915050565b60005b82518110156114a85760008382815181106113dc57fe5b6020026020010151905060006001600160a01b0316816001600160a01b0316141561144e576040805162461bcd60e51b815260206004820152601860248201527f53616c653a207a65726f206164647265737320746f6b656e0000000000000000604482015290519081900360640190fd5b600083838151811061145c57fe5b60200260200101519050806000141561148857611482866001600160a01b0384166112e2565b5061149e565b61149c866001600160a01b03841683611bed565b505b50506001016113c5565b507f00000000000000000000000000000000000000000000000000000000000000006114d38461112e565b1115611526576040805162461bcd60e51b815260206004820152601560248201527f53616c653a20746f6f206d616e7920746f6b656e730000000000000000000000604482015290519081900360640190fd5b505050565b8261157d576040805162461bcd60e51b815260206004820152601160248201527f53616c653a207a65726f20737570706c79000000000000000000000000000000604482015290519081900360640190fd5b7f00000000000000000000000000000000000000000000000000000000000000006115a8600461112e565b106115fa576040805162461bcd60e51b815260206004820152601360248201527f53616c653a20746f6f206d616e7920736b757300000000000000000000000000604482015290519081900360640190fd5b611605600485611c87565b611656576040805162461bcd60e51b815260206004820152601960248201527f53616c653a20736b7520616c7265616479206372656174656400000000000000604482015290519081900360640190fd5b6001600160a01b038116156116c857611677816001600160a01b0316611cd1565b6116c8576040805162461bcd60e51b815260206004820152601b60248201527f53616c653a206e6f6e2d636f6e74726163742072656365697665720000000000604482015290519081900360640190fd5b60008481526006602090815260409182902085815560018101869055600281018590556003810180546001600160a01b03861673ffffffffffffffffffffffffffffffffffffffff1990911681179091558351888152928301879052828401869052606083015291517f38bd4aabce684540cd61351b91f2f5facf9d6963934347e25aab93d87ae7ac149181900360800190a15050505050565b61176a6110ab565b6003805460ff191660011790557f62e78cea01bee320cd4e420270b5ea74000d11b0c9f74754ebdbfc544b05a2586112c5611103565b6117a98161184f565b6117b281611af9565b6117bb81611cd7565b6117c481611e26565b61128781611f01565b60025415611822576040805162461bcd60e51b815260206004820152601260248201527f537461727461626c653a20737461727465640000000000000000000000000000604482015290519081900360640190fd5b426002557f27029695aa5f602a4ee81f4c32dfa86e562f200a17966496f3a7c3f2ec0f94176112c5611103565b60208101516001600160a01b03166118ae576040805162461bcd60e51b815260206004820152601c60248201527f53616c653a207a65726f206164647265737320726563697069656e7400000000604482015290519081900360640190fd5b60408101516001600160a01b031661190d576040805162461bcd60e51b815260206004820152601860248201527f53616c653a207a65726f206164647265737320746f6b656e0000000000000000604482015290519081900360640190fd5b6080810151611963576040805162461bcd60e51b815260206004820152601c60248201527f53616c653a207a65726f207175616e7469747920707572636861736500000000604482015290519081900360640190fd5b6060810151600090815260066020526040902080546119c9576040805162461bcd60e51b815260206004820152601660248201527f53616c653a206e6f6e2d6578697374656e7420736b7500000000000000000000604482015290519081900360640190fd5b816080015181600201541015611a26576040805162461bcd60e51b815260206004820152601860248201527f53616c653a2061626f7665206d6178207175616e746974790000000000000000604482015290519081900360640190fd5b805460001914611a8d57816080015181600101541015611a8d576040805162461bcd60e51b815260206004820152601960248201527f53616c653a20696e73756666696369656e7420737570706c7900000000000000604482015290519081900360640190fd5b60408201516001600160a01b0316611aa860048301826123ea565b611526576040805162461bcd60e51b815260206004820152601c60248201527f53616c653a206e6f6e2d6578697374656e7420736b7520746f6b656e00000000604482015290519081900360640190fd5b606081015160009081526006602052604090208054611b5f576040805162461bcd60e51b815260206004820152601560248201527f53616c653a20756e737570706f7274656420534b550000000000000000000000604482015290519081900360640190fd5b600481016000611b6f8483612402565b9050611b8884608001518261247290919063ffffffff16565b60c090940193909352505050565b60035460ff16610a5d576040805162461bcd60e51b815260206004820152601460248201527f5061757361626c653a206e6f7420706175736564000000000000000000000000604482015290519081900360640190fd5b600082815260018401602052604081205480611c52575050604080518082018252838152602080820184815286546001818101895560008981528481209551600290930290950191825591519082015586548684528188019092529290912055611c80565b82856000016001830381548110611c6557fe5b90600052602060002090600202016001018190555060009150505b9392505050565b6000611c9383836123ea565b611cc9575081546001818101845560008481526020808220909301849055845484825282860190935260409020919091556113bc565b5060006113bc565b3b151590565b60408101516001600160a01b031673eeeeeeeeeeeeeeeeeeeeeeeeeeeeeeeeeeeeeeee1415611dfa578060c00151341015611d59576040805162461bcd60e51b815260206004820152601660248201527f53616c653a20696e73756666696369656e742045544800000000000000000000604482015290519081900360640190fd5b60015460c08201516040516001600160a01b039092169181156108fc0291906000818181858888f19350505050158015611d97573d6000803e3d6000fd5b506000611db18260c00151346124cb90919063ffffffff16565b90508015611df45781516040516001600160a01b039091169082156108fc029083906000818181858888f19350505050158015611df2573d6000803e3d6000fd5b505b50611287565b611287611e05611103565b60015460c084015160408501516001600160a01b0390811693921690612528565b611e2f816125b0565b60208181015160608301516000908152600790925260408083205460808086015183517f5cfa92970000000000000000000000000000000000000000000000000000000081526001600160a01b0395861660048201526024810193909352604483015260648201526084810184905290517f000000000000000000000000000000000000000000000000000000000000000090921692635cfa92979260a48084019382900301818387803b158015611ee657600080fd5b505af1158015611efa573d6000803e3d6000fd5b5050505050565b806060015181604001516001600160a01b031682600001516001600160a01b03167f29f844483ca6b10b5c0611d039afc15ce8f6380e905307b381c3a8ee4e90e11e846020015185608001518660a001518760c001518860e001518961010001518a610120015160405160200180848051906020019060200280838360005b83811015611f98578181015183820152602001611f80565b50505050905001838051906020019060200280838360005b83811015611fc8578181015183820152602001611fb0565b50505050905001828051906020019060200280838360005b83811015611ff8578181015183820152602001611fe0565b50505050905001935050505060405160208183030381529060405260405180866001600160a01b031681526020018581526020018060200184815260200180602001838103835286818151815260200191508051906020019080838360005b8381101561206f578181015183820152602001612057565b50505050905090810190601f16801561209c5780820380516001836020036101000a031916815260200191505b50838103825284518152845160209182019186019080838360005b838110156120cf5781810151838201526020016120b7565b50505050905090810190601f1680156120fc5780820380516001836020036101000a031916815260200191505b5097505050505050505060405180910390a460608101516000908152600660205260409020600301546001600160a01b031680156123e6576361eceae860e01b7bffffffffffffffffffffffffffffffffffffffffffffffffffffffff1916816001600160a01b03166361eceae8846000015185602001518660400151876060015188608001518960a001518a60c001518b60e001518c61010001518d61012001516040518b63ffffffff1660e01b8152600401808b6001600160a01b031681526020018a6001600160a01b03168152602001896001600160a01b031681526020018881526020018781526020018060200186815260200180602001806020018060200185810385528a818151815260200191508051906020019080838360005b8381101561223557818101518382015260200161221d565b50505050905090810190601f1680156122625780820380516001836020036101000a031916815260200191505b508581038452885181528851602091820191808b01910280838360005b8381101561229757818101518382015260200161227f565b50505050905001858103835287818151815260200191508051906020019060200280838360005b838110156122d65781810151838201526020016122be565b50505050905001858103825286818151815260200191508051906020019060200280838360005b838110156123155781810151838201526020016122fd565b505050509050019e505050505050505050505050505050602060405180830381600087803b15801561234657600080fd5b505af115801561235a573d6000803e3d6000fd5b505050506040513d602081101561237057600080fd5b50517fffffffff0000000000000000000000000000000000000000000000000000000016146123e6576040805162461bcd60e51b815260206004820152601a60248201527f53616c653a206e6f74696669636174696f6e2072656675736564000000000000604482015290519081900360640190fd5b5050565b60009081526001919091016020526040902054151590565b604082015160009061241e9083906001600160a01b03166125fb565b9050806113bc576040805162461bcd60e51b815260206004820152601f60248201527f53616c653a20756e737570706f72746564207061796d656e7420746f6b656e00604482015290519081900360640190fd5b600082612481575060006113bc565b8282028284828161248e57fe5b0414611c805760405162461bcd60e51b81526004018080602001828103825260218152602001806128fe6021913960400191505060405180910390fd5b600082821115612522576040805162461bcd60e51b815260206004820152601e60248201527f536166654d6174683a207375627472616374696f6e206f766572666c6f770000604482015290519081900360640190fd5b50900390565b604080516001600160a01b0380861660248301528416604482015260648082018490528251808303909101815260849091019091526020810180517bffffffffffffffffffffffffffffffffffffffffffffffffffffffff167f23b872dd00000000000000000000000000000000000000000000000000000000179052610eb590859061268b565b606081015160009081526006602052604090208054600019146123e657608082015160018201546125e0916124cb565b60608301516000908152600660205260409020600101555050565b60008181526001830160205260408120548061265e576040805162461bcd60e51b815260206004820152601860248201527f456e756d4d61703a206e6f6e6578697374656e74206b65790000000000000000604482015290519081900360640190fd5b83600001600182038154811061267057fe5b90600052602060002090600202016001015491505092915050565b8161269e6001600160a01b038216611cd1565b6126ef576040805162461bcd60e51b815260206004820152601a60248201527f4552433230577261707065723a206e6f6e2d636f6e7472616374000000000000604482015290519081900360640190fd5b600080826001600160a01b0316846040518082805190602001908083835b6020831061274a57805182527fffffffffffffffffffffffffffffffffffffffffffffffffffffffffffffffe0909201916020918201910161270d565b6001836020036101000a0380198251168184511680821785525050505050509050019150506000604051808303816000865af19150503d80600081146127ac576040519150601f19603f3d011682016040523d82523d6000602084013e6127b1565b606091505b509150915081156128305780511561282b578080602001905160208110156127d857600080fd5b505161282b576040805162461bcd60e51b815260206004820152601e60248201527f4552433230577261707065723a206f7065726174696f6e206661696c65640000604482015290519081900360640190fd5b611efa565b8051612883576040805162461bcd60e51b815260206004820152601e60248201527f4552433230577261707065723a206f7065726174696f6e206661696c65640000604482015290519081900360640190fd5b80518082602001fd5b60405180610140016040528060006001600160a01b0316815260200160006001600160a01b0316815260200160006001600160a01b0316815260200160008019168152602001600081526020016060815260200160008152602001606081526020016060815260200160608152509056fe536166654d6174683a206d756c7469706c69636174696f6e206f766572666c6f77a2646970667358221220694af6fb6de07c069b4425c561ebf07ecd308f45f1d4a901521f14372c2ed2f464736f6c63430007060033",
  "linkReferences": {},
  "deployedLinkReferences": {}
}