{
  "_format": "hh-sol-artifact-1",
  "contractName": "TokenLaunchpadVoucherPacksSale",
  "sourceName": "contracts/sale/TokenLaunchpadVoucherPacksSale.sol",
  "abi": [
    {
      "inputs": [
        {
          "internalType": "contract IVouchersContract",
          "name": "vouchersContract_",
          "type": "address"
        },
        {
          "internalType": "address payable",
          "name": "payoutWallet",
          "type": "address"
        },
        {
          "internalType": "uint256",
          "name": "skusCapacity",
          "type": "uint256"
        },
        {
          "internalType": "uint256",
          "name": "tokensPerSkuCapacity",
          "type": "uint256"
        }
      ],
      "stateMutability": "nonpayable",
      "type": "constructor"
    },
    {
      "anonymous": false,
      "inputs": [
        {
          "indexed": false,
          "internalType": "bytes32[]",
          "name": "names",
          "type": "bytes32[]"
        },
        {
          "indexed": false,
          "internalType": "bytes32[]",
          "name": "values",
          "type": "bytes32[]"
        }
      ],
      "name": "MagicValues",
      "type": "event"
    },
    {
      "anonymous": false,
      "inputs": [
        {
          "indexed": true,
          "internalType": "address",
          "name": "previousOwner",
          "type": "address"
        },
        {
          "indexed": true,
          "internalType": "address",
          "name": "newOwner",
          "type": "address"
        }
      ],
      "name": "OwnershipTransferred",
      "type": "event"
    },
    {
      "anonymous": false,
      "inputs": [
        {
          "indexed": false,
          "internalType": "address",
          "name": "account",
          "type": "address"
        }
      ],
      "name": "Paused",
      "type": "event"
    },
    {
      "anonymous": false,
      "inputs": [
        {
          "indexed": false,
          "internalType": "address",
          "name": "payoutWallet_",
          "type": "address"
        }
      ],
      "name": "PayoutWalletSet",
      "type": "event"
    },
    {
      "anonymous": false,
      "inputs": [
        {
          "indexed": true,
          "internalType": "address",
          "name": "purchaser",
          "type": "address"
        },
        {
          "indexed": false,
          "internalType": "address",
          "name": "recipient",
          "type": "address"
        },
        {
          "indexed": true,
          "internalType": "address",
          "name": "token",
          "type": "address"
        },
        {
          "indexed": true,
          "internalType": "bytes32",
          "name": "sku",
          "type": "bytes32"
        },
        {
          "indexed": false,
          "internalType": "uint256",
          "name": "quantity",
          "type": "uint256"
        },
        {
          "indexed": false,
          "internalType": "bytes",
          "name": "userData",
          "type": "bytes"
        },
        {
          "indexed": false,
          "internalType": "uint256",
          "name": "totalPrice",
          "type": "uint256"
        },
        {
          "indexed": false,
          "internalType": "bytes",
          "name": "extData",
          "type": "bytes"
        }
      ],
      "name": "Purchase",
      "type": "event"
    },
    {
      "anonymous": false,
      "inputs": [
        {
          "indexed": false,
          "internalType": "bytes32",
          "name": "sku",
          "type": "bytes32"
        },
        {
          "indexed": false,
          "internalType": "uint256",
          "name": "totalSupply",
          "type": "uint256"
        },
        {
          "indexed": false,
          "internalType": "uint256",
          "name": "maxQuantityPerPurchase",
          "type": "uint256"
        },
        {
          "indexed": false,
          "internalType": "address",
          "name": "notificationsReceiver",
          "type": "address"
        }
      ],
      "name": "SkuCreation",
      "type": "event"
    },
    {
      "anonymous": false,
      "inputs": [
        {
          "indexed": true,
          "internalType": "bytes32",
          "name": "sku",
          "type": "bytes32"
        },
        {
          "indexed": false,
          "internalType": "address[]",
          "name": "tokens",
          "type": "address[]"
        },
        {
          "indexed": false,
          "internalType": "uint256[]",
          "name": "prices",
          "type": "uint256[]"
        }
      ],
      "name": "SkuPricingUpdate",
      "type": "event"
    },
    {
      "anonymous": false,
      "inputs": [
        {
          "indexed": false,
          "internalType": "address",
          "name": "account",
          "type": "address"
        }
      ],
      "name": "Started",
      "type": "event"
    },
    {
      "anonymous": false,
      "inputs": [
        {
          "indexed": false,
          "internalType": "address",
          "name": "account",
          "type": "address"
        }
      ],
      "name": "Unpaused",
      "type": "event"
    },
    {
      "inputs": [],
      "name": "SUPPLY_UNLIMITED",
      "outputs": [
        {
          "internalType": "uint256",
          "name": "",
          "type": "uint256"
        }
      ],
      "stateMutability": "view",
      "type": "function"
    },
    {
      "inputs": [],
      "name": "TOKEN_ETH",
      "outputs": [
        {
          "internalType": "address",
          "name": "",
          "type": "address"
        }
      ],
      "stateMutability": "view",
      "type": "function"
    },
    {
      "inputs": [
        {
          "internalType": "bytes32",
          "name": "sku",
          "type": "bytes32"
        },
        {
          "internalType": "uint256",
          "name": "totalSupply",
          "type": "uint256"
        },
        {
          "internalType": "uint256",
          "name": "maxQuantityPerPurchase",
          "type": "uint256"
        },
        {
          "internalType": "uint256[]",
          "name": "tokenIds",
          "type": "uint256[]"
        }
      ],
      "name": "createSku",
      "outputs": [],
      "stateMutability": "nonpayable",
      "type": "function"
    },
    {
      "inputs": [
        {
          "internalType": "address payable",
          "name": "recipient",
          "type": "address"
        },
        {
          "internalType": "address",
          "name": "token",
          "type": "address"
        },
        {
          "internalType": "bytes32",
          "name": "sku",
          "type": "bytes32"
        },
        {
          "internalType": "uint256",
          "name": "quantity",
          "type": "uint256"
        },
        {
          "internalType": "bytes",
          "name": "userData",
          "type": "bytes"
        }
      ],
      "name": "estimatePurchase",
      "outputs": [
        {
          "internalType": "uint256",
          "name": "totalPrice",
          "type": "uint256"
        },
        {
          "internalType": "bytes32[]",
          "name": "pricingData",
          "type": "bytes32[]"
        }
      ],
      "stateMutability": "view",
      "type": "function"
    },
    {
      "inputs": [
        {
          "internalType": "bytes32",
          "name": "sku",
          "type": "bytes32"
        }
      ],
      "name": "getSkuInfo",
      "outputs": [
        {
          "internalType": "uint256",
          "name": "totalSupply",
          "type": "uint256"
        },
        {
          "internalType": "uint256",
          "name": "remainingSupply",
          "type": "uint256"
        },
        {
          "internalType": "uint256",
          "name": "maxQuantityPerPurchase",
          "type": "uint256"
        },
        {
          "internalType": "address",
          "name": "notificationsReceiver",
          "type": "address"
        },
        {
          "internalType": "address[]",
          "name": "tokens",
          "type": "address[]"
        },
        {
          "internalType": "uint256[]",
          "name": "prices",
          "type": "uint256[]"
        }
      ],
      "stateMutability": "view",
      "type": "function"
    },
    {
      "inputs": [],
      "name": "getSkus",
      "outputs": [
        {
          "internalType": "bytes32[]",
          "name": "skus",
          "type": "bytes32[]"
        }
      ],
      "stateMutability": "view",
      "type": "function"
    },
    {
      "inputs": [],
      "name": "owner",
      "outputs": [
        {
          "internalType": "address",
          "name": "",
          "type": "address"
        }
      ],
      "stateMutability": "view",
      "type": "function"
    },
    {
      "inputs": [],
      "name": "pause",
      "outputs": [],
      "stateMutability": "nonpayable",
      "type": "function"
    },
    {
      "inputs": [],
      "name": "paused",
      "outputs": [
        {
          "internalType": "bool",
          "name": "",
          "type": "bool"
        }
      ],
      "stateMutability": "view",
      "type": "function"
    },
    {
      "inputs": [],
      "name": "payoutWallet",
      "outputs": [
        {
          "internalType": "address payable",
          "name": "",
          "type": "address"
        }
      ],
      "stateMutability": "view",
      "type": "function"
    },
    {
      "inputs": [
        {
          "internalType": "address payable",
          "name": "recipient",
          "type": "address"
        },
        {
          "internalType": "address",
          "name": "token",
          "type": "address"
        },
        {
          "internalType": "bytes32",
          "name": "sku",
          "type": "bytes32"
        },
        {
          "internalType": "uint256",
          "name": "quantity",
          "type": "uint256"
        },
        {
          "internalType": "bytes",
          "name": "userData",
          "type": "bytes"
        }
      ],
      "name": "purchaseFor",
      "outputs": [],
      "stateMutability": "payable",
      "type": "function"
    },
    {
      "inputs": [
        {
          "internalType": "address[]",
          "name": "accounts",
          "type": "address[]"
        },
        {
          "internalType": "address[]",
          "name": "tokens",
          "type": "address[]"
        },
        {
          "internalType": "uint256[]",
          "name": "amounts",
          "type": "uint256[]"
        }
      ],
      "name": "recoverERC20s",
      "outputs": [],
      "stateMutability": "nonpayable",
      "type": "function"
    },
    {
      "inputs": [
        {
          "internalType": "address[]",
          "name": "accounts",
          "type": "address[]"
        },
        {
          "internalType": "address[]",
          "name": "contracts",
          "type": "address[]"
        },
        {
          "internalType": "uint256[]",
          "name": "tokenIds",
          "type": "uint256[]"
        }
      ],
      "name": "recoverERC721s",
      "outputs": [],
      "stateMutability": "nonpayable",
      "type": "function"
    },
    {
      "inputs": [
        {
          "internalType": "address payable",
          "name": "payoutWallet_",
          "type": "address"
        }
      ],
      "name": "setPayoutWallet",
      "outputs": [],
      "stateMutability": "nonpayable",
      "type": "function"
    },
    {
      "inputs": [
        {
          "internalType": "bytes32",
          "name": "",
          "type": "bytes32"
        },
        {
          "internalType": "uint256",
          "name": "",
          "type": "uint256"
        }
      ],
      "name": "skuTokenIds",
      "outputs": [
        {
          "internalType": "uint256",
          "name": "",
          "type": "uint256"
        }
      ],
      "stateMutability": "view",
      "type": "function"
    },
    {
      "inputs": [],
      "name": "start",
      "outputs": [],
      "stateMutability": "nonpayable",
      "type": "function"
    },
    {
      "inputs": [],
      "name": "startedAt",
      "outputs": [
        {
          "internalType": "uint256",
          "name": "",
          "type": "uint256"
        }
      ],
      "stateMutability": "view",
      "type": "function"
    },
    {
      "inputs": [
        {
          "internalType": "address",
          "name": "newOwner",
          "type": "address"
        }
      ],
      "name": "transferOwnership",
      "outputs": [],
      "stateMutability": "nonpayable",
      "type": "function"
    },
    {
      "inputs": [],
      "name": "unpause",
      "outputs": [],
      "stateMutability": "nonpayable",
      "type": "function"
    },
    {
      "inputs": [
        {
          "internalType": "bytes32",
          "name": "sku",
          "type": "bytes32"
        },
        {
          "internalType": "address[]",
          "name": "tokens",
          "type": "address[]"
        },
        {
          "internalType": "uint256[]",
          "name": "prices",
          "type": "uint256[]"
        }
      ],
      "name": "updateSkuPricing",
      "outputs": [],
      "stateMutability": "nonpayable",
      "type": "function"
    },
    {
      "inputs": [],
      "name": "vouchersContract",
      "outputs": [
        {
          "internalType": "contract IVouchersContract",
          "name": "",
          "type": "address"
        }
      ],
      "stateMutability": "view",
      "type": "function"
    }
  ],
  "bytecode": "0x60e06040523480156200001157600080fd5b506040516200349f3803806200349f833981810160405260808110156200003757600080fd5b5080516020820151604080840151606090940151600080546001600160a01b031916339081178255925194959394919285928592859285928592859260019290918691839182917f8be0079c531659141344cd1fd0a4f28419497f9722a3daafe3b4186f6b6457e0908290a3506001600160a01b03811662000100576040805162461bcd60e51b815260206004820152601460248201527f5061796f75743a207a65726f2061646472657373000000000000000000000000604482015290519081900360640190fd5b600180546001600160a01b0383166001600160a01b0319909116811790915560408051918252517fdd880d24a789958a6398c99c2e54ce31bc10a638cbc42f7dd34285479ae0f8559181900360200190a150506003805460ff1916911515919091179055608082905260a081905260408051600280825260608201835260009260208301908036833750506040805160028082526060820183529394506000939092509060208301908036833750508351919250680a89e968a9cbe8aa8960bb1b9173eeeeeeeeeeeeeeeeeeeeeeeeeeeeeeeeeeeeeeee91508490600090620001e557fe5b6020026020010183600081518110620001fa57fe5b602002602001018281525082815250505060001960001b6f14d55414131657d5539312535255115160821b90836001815181106200023457fe5b60200260200101836001815181106200024957fe5b60200260200101828152508281525050507fabb92614f53337043b55dc996a83ebb09adce78ec336ca188ea02180b61d1c148282604051808060200180602001838103835285818151815260200191508051906020019060200280838360005b83811015620002c3578181015183820152602001620002a9565b50505050905001838103825284818151815260200191508051906020019060200280838360005b8381101562000304578181015183820152602001620002ea565b5050505090500194505050505060405180910390a15050506001600160601b031960609990991b9890981660c052505050505050505060805160a05160c05160601c61312b6200037460003980610d1152806112ce52806126f55250806119ee525080611bad525061312b6000f3fe60806040526004361061016a5760003560e01c80638456cb59116100cb578063ab43ca8f1161007f578063c3906c2011610059578063c3906c201461098f578063f21f537d146109bf578063f2fde38b146109d45761016a565b8063ab43ca8f146107c9578063be9a655514610859578063c3666c361461086e5761016a565b80638da5cb5b116100b05780638da5cb5b146106f85780639e0495451461070d578063a963b257146107345761016a565b80638456cb59146106ce5780638488bb4e146106e35761016a565b80635c975abb1161012257806361bd38511161010757806361bd3851146105155780636b8f9c431461057a57806373c8a958146105ad5761016a565b80635c975abb146103b15780635e6e9f70146103da5761016a565b80633f4ba83a116101535780633f4ba83a14610354578063474f28911461036b5780635c4fafc71461039c5761016a565b80631323b0661461016f5780632a8a45bc1461026c575b600080fd5b34801561017b57600080fd5b50610211600480360360a081101561019257600080fd5b6001600160a01b03823581169260208101359091169160408201359160608101359181019060a0810160808201356401000000008111156101d257600080fd5b8201836020820111156101e457600080fd5b8035906020019184600183028401116401000000008311171561020657600080fd5b509092509050610a07565b6040518083815260200180602001828103825283818151815260200191508051906020019060200280838360005b8381101561025757818101518382015260200161023f565b50505050905001935050505060405180910390f35b34801561027857600080fd5b506102966004803603602081101561028f57600080fd5b5035610afc565b60405180878152602001868152602001858152602001846001600160a01b031681526020018060200180602001838103835285818151815260200191508051906020019060200280838360005b838110156102fb5781810151838201526020016102e3565b50505050905001838103825284818151815260200191508051906020019060200280838360005b8381101561033a578181015183820152602001610322565b505050509050019850505050505050505060405180910390f35b34801561036057600080fd5b50610369610ca1565b005b34801561037757600080fd5b50610380610d0f565b604080516001600160a01b039092168252519081900360200190f35b3480156103a857600080fd5b50610380610d33565b3480156103bd57600080fd5b506103c6610d4b565b604080519115158252519081900360200190f35b3480156103e657600080fd5b50610369600480360360608110156103fd57600080fd5b8135919081019060408101602082013564010000000081111561041f57600080fd5b82018360208201111561043157600080fd5b8035906020019184602083028401116401000000008311171561045357600080fd5b91908080602002602001604051908101604052809392919081815260200183836020028082843760009201919091525092959493602081019350359150506401000000008111156104a357600080fd5b8201836020820111156104b557600080fd5b803590602001918460208302840111640100000000831117156104d757600080fd5b919080806020026020016040519081016040528093929190818152602001838360200280828437600092019190915250929550610d54945050505050565b34801561052157600080fd5b5061052a610f31565b60408051602080825283518183015283519192839290830191858101910280838360005b8381101561056657818101518382015260200161054e565b505050509050019250505060405180910390f35b34801561058657600080fd5b506103696004803603602081101561059d57600080fd5b50356001600160a01b0316610f8c565b3480156105b957600080fd5b50610369600480360360608110156105d057600080fd5b8101906020810181356401000000008111156105eb57600080fd5b8201836020820111156105fd57600080fd5b8035906020019184602083028401116401000000008311171561061f57600080fd5b91939092909160208101903564010000000081111561063d57600080fd5b82018360208201111561064f57600080fd5b8035906020019184602083028401116401000000008311171561067157600080fd5b91939092909160208101903564010000000081111561068f57600080fd5b8201836020820111156106a157600080fd5b803590602001918460208302840111640100000000831117156106c357600080fd5b509092509050611059565b3480156106da57600080fd5b50610369611146565b3480156106ef57600080fd5b506103806111ad565b34801561070457600080fd5b506103806111bc565b34801561071957600080fd5b506107226111cb565b60408051918252519081900360200190f35b610369600480360360a081101561074a57600080fd5b6001600160a01b03823581169260208101359091169160408201359160608101359181019060a08101608082013564010000000081111561078a57600080fd5b82018360208201111561079c57600080fd5b803590602001918460018302840111640100000000831117156107be57600080fd5b5090925090506111d1565b3480156107d557600080fd5b50610369600480360360808110156107ec57600080fd5b8135916020810135916040820135919081019060808101606082013564010000000081111561081a57600080fd5b82018360208201111561082c57600080fd5b8035906020019184602083028401116401000000008311171561084e57600080fd5b5090925090506112b7565b34801561086557600080fd5b506103696113f6565b34801561087a57600080fd5b506103696004803603606081101561089157600080fd5b8101906020810181356401000000008111156108ac57600080fd5b8201836020820111156108be57600080fd5b803590602001918460208302840111640100000000831117156108e057600080fd5b9193909290916020810190356401000000008111156108fe57600080fd5b82018360208201111561091057600080fd5b8035906020019184602083028401116401000000008311171561093257600080fd5b91939092909160208101903564010000000081111561095057600080fd5b82018360208201111561096257600080fd5b8035906020019184602083028401116401000000008311171561098457600080fd5b509092509050611409565b34801561099b57600080fd5b50610722600480360360408110156109b257600080fd5b5080359060200135611551565b3480156109cb57600080fd5b50610722611582565b3480156109e057600080fd5b50610369600480360360208110156109f757600080fd5b50356001600160a01b0316611588565b6000606060025460001415610a63576040805162461bcd60e51b815260206004820152601660248201527f537461727461626c653a206e6f74207374617274656400000000000000000000604482015290519081900360640190fd5b610a6b6115ee565b610a73613003565b610a7b611646565b6001600160a01b03908116825289811660208084019190915290891660408084019190915260608301899052608083018890528051601f870183900483028101830190915285815290869086908190840183828082843760009201919091525050505060a0820152610aec8161164a565b9250925050965096945050505050565b6000818152600660205260408120819081908190606090819083610b2260048301611671565b82549850905087610b7a576040805162461bcd60e51b815260206004820152601660248201527f53616c653a206e6f6e2d6578697374656e7420736b7500000000000000000000604482015290519081900360640190fd5b60018201546002830154600384015491985096506001600160a01b031694508067ffffffffffffffff81118015610bb057600080fd5b50604051908082528060200260200182016040528015610bda578160200160208202803683370190505b5093508067ffffffffffffffff81118015610bf457600080fd5b50604051908082528060200260200182016040528015610c1e578160200160208202803683370190505b50925060005b81811015610c9557600080610c3c6004860184611675565b915091508160001c878481518110610c5057fe5b60200260200101906001600160a01b031690816001600160a01b0316815250508060001c868481518110610c8057fe5b60209081029190910101525050600101610c24565b50505091939550919395565b600254610cf5576040805162461bcd60e51b815260206004820152601660248201527f537461727461626c653a206e6f74207374617274656400000000000000000000604482015290519081900360640190fd5b610d05610d00611646565b611706565b610d0d6117cd565b565b7f000000000000000000000000000000000000000000000000000000000000000081565b73eeeeeeeeeeeeeeeeeeeeeeeeeeeeeeeeeeeeeeee81565b60035460ff1681565b610d5f610d00611646565b815181518114610db6576040805162461bcd60e51b815260206004820152601960248201527f53616c653a20696e636f6e73697374656e742061727261797300000000000000604482015290519081900360640190fd5b60008481526006602052604090208054610e17576040805162461bcd60e51b815260206004820152601660248201527f53616c653a206e6f6e2d6578697374656e7420736b7500000000000000000000604482015290519081900360640190fd5b6004810182610e62576000610e2b82611671565b905060005b81811015610e5b576000610e448482611675565b509050610e518482611825565b5050600101610e30565b5050610e6d565b610e6d818686611905565b857fcb3fe5489e0cd43d0f4a33d1e09a4a0463a03d0d38f56165530854e5540db1438686604051808060200180602001838103835285818151815260200191508051906020019060200280838360005b83811015610ed5578181015183820152602001610ebd565b50505050905001838103825284818151815260200191508051906020019060200280838360005b83811015610f14578181015183820152602001610efc565b5050505090500194505050505060405180910390a2505050505050565b60606004600001805480602002602001604051908101604052809291908181526020018280548015610f8257602002820191906000526020600020905b815481526020019060010190808311610f6e575b5050505050905090565b610f97610d00611646565b6001600160a01b038116610ff2576040805162461bcd60e51b815260206004820152601460248201527f5061796f75743a207a65726f2061646472657373000000000000000000000000604482015290519081900360640190fd5b6001805473ffffffffffffffffffffffffffffffffffffffff19166001600160a01b03838116919091179182905560408051929091168252517fdd880d24a789958a6398c99c2e54ce31bc10a638cbc42f7dd34285479ae0f855916020908290030190a150565b611064610d00611646565b84838114801561107357508082145b6110c4576040805162461bcd60e51b815260206004820152601a60248201527f5265636f763a20696e636f6e73697374656e7420617272617973000000000000604482015290519081900360640190fd5b60005b81811461113c576111348888838181106110dd57fe5b905060200201356001600160a01b03168585848181106110f957fe5b9050602002013588888581811061110c57fe5b905060200201356001600160a01b03166001600160a01b0316611a6e9092919063ffffffff16565b6001016110c7565b5050505050505050565b60025461119a576040805162461bcd60e51b815260206004820152601660248201527f537461727461626c653a206e6f74207374617274656400000000000000000000604482015290519081900360640190fd5b6111a5610d00611646565b610d0d611aee565b6001546001600160a01b031681565b6000546001600160a01b031690565b60001981565b600254611225576040805162461bcd60e51b815260206004820152601660248201527f537461727461626c653a206e6f74207374617274656400000000000000000000604482015290519081900360640190fd5b61122d6115ee565b611235613003565b61123d611646565b6001600160a01b03908116825287811660208084019190915290871660408084019190915260608301879052608083018690528051601f850183900483028101830190915283815290849084908190840183828082843760009201919091525050505060a08201526112ae81611b2c565b50505050505050565b6112c2610d00611646565b60005b8082146113c7577f00000000000000000000000000000000000000000000000000000000000000006001600160a01b031663adebf6f284848481811061130757fe5b905060200201356040518263ffffffff1660e01b81526004018082815260200191505060206040518083038186803b15801561134257600080fd5b505afa158015611356573d6000803e3d6000fd5b505050506040513d602081101561136c57600080fd5b50516113bf576040805162461bcd60e51b815260206004820152601a60248201527f53616c653a206e6f7420612066756e6769626c6520746f6b656e000000000000604482015290519081900360640190fd5b6001016112c5565b5060008581526007602052604090206113e1908383613074565b506113ef8585856000611b59565b5050505050565b611401610d00611646565b610d05611d90565b611414610d00611646565b84838114801561142357508082145b611474576040805162461bcd60e51b815260206004820152601a60248201527f5265636f763a20696e636f6e73697374656e7420617272617973000000000000604482015290519081900360640190fd5b60005b81811461113c5785858281811061148a57fe5b905060200201356001600160a01b03166001600160a01b03166323b872dd308a8a858181106114b557fe5b905060200201356001600160a01b03168787868181106114d157fe5b905060200201356040518463ffffffff1660e01b815260040180846001600160a01b03168152602001836001600160a01b031681526020018281526020019350505050600060405180830381600087803b15801561152e57600080fd5b505af1158015611542573d6000803e3d6000fd5b50505050806001019050611477565b6007602052816000526040600020818154811061156d57600080fd5b90600052602060002001600091509150505481565b60025490565b611593610d00611646565b6000805473ffffffffffffffffffffffffffffffffffffffff19166001600160a01b0383811691821780845560405192939116917f8be0079c531659141344cd1fd0a4f28419497f9722a3daafe3b4186f6b6457e09190a350565b60035460ff1615610d0d576040805162461bcd60e51b815260206004820152601060248201527f5061757361626c653a2070617573656400000000000000000000000000000000604482015290519081900360640190fd5b3390565b6000606061165783611e12565b611660836120bc565b505060c081015160e0909101519091565b5490565b8154600090819083106116cf576040805162461bcd60e51b815260206004820152601c60248201527f456e756d4d61703a20696e646578206f7574206f6620626f756e647300000000604482015290519081900360640190fd5b60008460000184815481106116e057fe5b906000526020600020906002020190508060000154816001015492509250509250929050565b306001600160a01b0316638da5cb5b6040518163ffffffff1660e01b815260040160206040518083038186803b15801561173f57600080fd5b505afa158015611753573d6000803e3d6000fd5b505050506040513d602081101561176957600080fd5b50516001600160a01b038281169116146117ca576040805162461bcd60e51b815260206004820152601660248201527f4f776e61626c653a206e6f7420746865206f776e657200000000000000000000604482015290519081900360640190fd5b50565b6117d5612159565b6003805460ff191690557f5db9ee0a495bf2e6ff9c91a7834c1ba4fdd244a5e8aa4e537bd38aeae4b073aa611808611646565b604080516001600160a01b039092168252519081900360200190a1565b600081815260018301602052604081205480156118f9578354600019808301919081019060009087908390811061185857fe5b906000526020600020906002020190508087600001848154811061187857fe5b6000918252602080832084546002909302019182556001938401549184019190915583548252898301905260409020908401905586548790806118b757fe5b60008281526020808220600260001990940193840201828155600190810183905592909355888152898201909252604082209190915594506118ff9350505050565b60009150505b92915050565b60005b82518110156119eb57600083828151811061191f57fe5b6020026020010151905060006001600160a01b0316816001600160a01b03161415611991576040805162461bcd60e51b815260206004820152601860248201527f53616c653a207a65726f206164647265737320746f6b656e0000000000000000604482015290519081900360640190fd5b600083838151811061199f57fe5b6020026020010151905080600014156119cb576119c5866001600160a01b038416611825565b506119e1565b6119df866001600160a01b038416836121b0565b505b5050600101611908565b507f0000000000000000000000000000000000000000000000000000000000000000611a1684611671565b1115611a69576040805162461bcd60e51b815260206004820152601560248201527f53616c653a20746f6f206d616e7920746f6b656e730000000000000000000000604482015290519081900360640190fd5b505050565b604080516001600160a01b038416602482015260448082018490528251808303909101815260649091019091526020810180517bffffffffffffffffffffffffffffffffffffffffffffffffffffffff167fa9059cbb00000000000000000000000000000000000000000000000000000000179052611a6990849061224a565b611af66115ee565b6003805460ff191660011790557f62e78cea01bee320cd4e420270b5ea74000d11b0c9f74754ebdbfc544b05a258611808611646565b611b3581611e12565b611b3e816120bc565b611b478161244b565b611b508161259a565b6117ca81612823565b82611bab576040805162461bcd60e51b815260206004820152601160248201527f53616c653a207a65726f20737570706c79000000000000000000000000000000604482015290519081900360640190fd5b7f0000000000000000000000000000000000000000000000000000000000000000611bd66004611671565b10611c28576040805162461bcd60e51b815260206004820152601360248201527f53616c653a20746f6f206d616e7920736b757300000000000000000000000000604482015290519081900360640190fd5b611c33600485612d0c565b611c84576040805162461bcd60e51b815260206004820152601960248201527f53616c653a20736b7520616c7265616479206372656174656400000000000000604482015290519081900360640190fd5b6001600160a01b03811615611cf657611ca5816001600160a01b0316612d56565b611cf6576040805162461bcd60e51b815260206004820152601b60248201527f53616c653a206e6f6e2d636f6e74726163742072656365697665720000000000604482015290519081900360640190fd5b60008481526006602090815260409182902085815560018101869055600281018590556003810180546001600160a01b03861673ffffffffffffffffffffffffffffffffffffffff1990911681179091558351888152928301879052828401869052606083015291517f38bd4aabce684540cd61351b91f2f5facf9d6963934347e25aab93d87ae7ac149181900360800190a15050505050565b60025415611de5576040805162461bcd60e51b815260206004820152601260248201527f537461727461626c653a20737461727465640000000000000000000000000000604482015290519081900360640190fd5b426002557f27029695aa5f602a4ee81f4c32dfa86e562f200a17966496f3a7c3f2ec0f9417611808611646565b60208101516001600160a01b0316611e71576040805162461bcd60e51b815260206004820152601c60248201527f53616c653a207a65726f206164647265737320726563697069656e7400000000604482015290519081900360640190fd5b60408101516001600160a01b0316611ed0576040805162461bcd60e51b815260206004820152601860248201527f53616c653a207a65726f206164647265737320746f6b656e0000000000000000604482015290519081900360640190fd5b6080810151611f26576040805162461bcd60e51b815260206004820152601c60248201527f53616c653a207a65726f207175616e7469747920707572636861736500000000604482015290519081900360640190fd5b606081015160009081526006602052604090208054611f8c576040805162461bcd60e51b815260206004820152601660248201527f53616c653a206e6f6e2d6578697374656e7420736b7500000000000000000000604482015290519081900360640190fd5b816080015181600201541015611fe9576040805162461bcd60e51b815260206004820152601860248201527f53616c653a2061626f7665206d6178207175616e746974790000000000000000604482015290519081900360640190fd5b80546000191461205057816080015181600101541015612050576040805162461bcd60e51b815260206004820152601960248201527f53616c653a20696e73756666696369656e7420737570706c7900000000000000604482015290519081900360640190fd5b60408201516001600160a01b031661206b6004830182612d5c565b611a69576040805162461bcd60e51b815260206004820152601c60248201527f53616c653a206e6f6e2d6578697374656e7420736b7520746f6b656e00000000604482015290519081900360640190fd5b606081015160009081526006602052604090208054612122576040805162461bcd60e51b815260206004820152601560248201527f53616c653a20756e737570706f7274656420534b550000000000000000000000604482015290519081900360640190fd5b6004810160006121328483612d74565b905061214b846080015182612de490919063ffffffff16565b60c090940193909352505050565b60035460ff16610d0d576040805162461bcd60e51b815260206004820152601460248201527f5061757361626c653a206e6f7420706175736564000000000000000000000000604482015290519081900360640190fd5b600082815260018401602052604081205480612215575050604080518082018252838152602080820184815286546001818101895560008981528481209551600290930290950191825591519082015586548684528188019092529290912055612243565b8285600001600183038154811061222857fe5b90600052602060002090600202016001018190555060009150505b9392505050565b8161225d6001600160a01b038216612d56565b6122ae576040805162461bcd60e51b815260206004820152601a60248201527f4552433230577261707065723a206e6f6e2d636f6e7472616374000000000000604482015290519081900360640190fd5b600080826001600160a01b0316846040518082805190602001908083835b6020831061230957805182527fffffffffffffffffffffffffffffffffffffffffffffffffffffffffffffffe090920191602091820191016122cc565b6001836020036101000a0380198251168184511680821785525050505050509050019150506000604051808303816000865af19150503d806000811461236b576040519150601f19603f3d011682016040523d82523d6000602084013e612370565b606091505b509150915081156123ef578051156123ea5780806020019051602081101561239757600080fd5b50516123ea576040805162461bcd60e51b815260206004820152601e60248201527f4552433230577261707065723a206f7065726174696f6e206661696c65640000604482015290519081900360640190fd5b6113ef565b8051612442576040805162461bcd60e51b815260206004820152601e60248201527f4552433230577261707065723a206f7065726174696f6e206661696c65640000604482015290519081900360640190fd5b80518082602001fd5b60408101516001600160a01b031673eeeeeeeeeeeeeeeeeeeeeeeeeeeeeeeeeeeeeeee141561256e578060c001513410156124cd576040805162461bcd60e51b815260206004820152601660248201527f53616c653a20696e73756666696369656e742045544800000000000000000000604482015290519081900360640190fd5b60015460c08201516040516001600160a01b039092169181156108fc0291906000818181858888f1935050505015801561250b573d6000803e3d6000fd5b5060006125258260c0015134612e3d90919063ffffffff16565b905080156125685781516040516001600160a01b039091169082156108fc029083906000818181858888f19350505050158015612566573d6000803e3d6000fd5b505b506117ca565b6117ca612579611646565b60015460c084015160408501516001600160a01b0390811693921690612e9a565b6125a381612f28565b6080810151606082015160009081526007602090815260408083208054825181850281018501909352808352919290919083018282801561260357602002820191906000526020600020905b8154815260200190600101908083116125ef575b5050505050905060008151905060008167ffffffffffffffff8111801561262957600080fd5b50604051908082528060200260200182016040528015612653578160200160208202803683370190505b50905060008267ffffffffffffffff8111801561266f57600080fd5b50604051908082528060200260200182016040528015612699578160200160208202803683370190505b50905060005b8381146126f2578481815181106126b257fe5b60200260200101518382815181106126c657fe5b602002602001018181525050858282815181106126df57fe5b602090810291909101015260010161269f565b507f00000000000000000000000000000000000000000000000000000000000000006001600160a01b0316630d6a5bbb876020015184846040518463ffffffff1660e01b815260040180846001600160a01b03168152602001806020018060200180602001848103845286818151815260200191508051906020019060200280838360005b8381101561278f578181015183820152602001612777565b50505050905001848103835285818151815260200191508051906020019060200280838360005b838110156127ce5781810151838201526020016127b6565b505050509050018481038252600081526020019650505050505050600060405180830381600087803b15801561280357600080fd5b505af1158015612817573d6000803e3d6000fd5b50505050505050505050565b806060015181604001516001600160a01b031682600001516001600160a01b03167f29f844483ca6b10b5c0611d039afc15ce8f6380e905307b381c3a8ee4e90e11e846020015185608001518660a001518760c001518860e001518961010001518a610120015160405160200180848051906020019060200280838360005b838110156128ba5781810151838201526020016128a2565b50505050905001838051906020019060200280838360005b838110156128ea5781810151838201526020016128d2565b50505050905001828051906020019060200280838360005b8381101561291a578181015183820152602001612902565b50505050905001935050505060405160208183030381529060405260405180866001600160a01b031681526020018581526020018060200184815260200180602001838103835286818151815260200191508051906020019080838360005b83811015612991578181015183820152602001612979565b50505050905090810190601f1680156129be5780820380516001836020036101000a031916815260200191505b50838103825284518152845160209182019186019080838360005b838110156129f15781810151838201526020016129d9565b50505050905090810190601f168015612a1e5780820380516001836020036101000a031916815260200191505b5097505050505050505060405180910390a460608101516000908152600660205260409020600301546001600160a01b03168015612d08576361eceae860e01b7bffffffffffffffffffffffffffffffffffffffffffffffffffffffff1916816001600160a01b03166361eceae8846000015185602001518660400151876060015188608001518960a001518a60c001518b60e001518c61010001518d61012001516040518b63ffffffff1660e01b8152600401808b6001600160a01b031681526020018a6001600160a01b03168152602001896001600160a01b031681526020018881526020018781526020018060200186815260200180602001806020018060200185810385528a818151815260200191508051906020019080838360005b83811015612b57578181015183820152602001612b3f565b50505050905090810190601f168015612b845780820380516001836020036101000a031916815260200191505b508581038452885181528851602091820191808b01910280838360005b83811015612bb9578181015183820152602001612ba1565b50505050905001858103835287818151815260200191508051906020019060200280838360005b83811015612bf8578181015183820152602001612be0565b50505050905001858103825286818151815260200191508051906020019060200280838360005b83811015612c37578181015183820152602001612c1f565b505050509050019e505050505050505050505050505050602060405180830381600087803b158015612c6857600080fd5b505af1158015612c7c573d6000803e3d6000fd5b505050506040513d6020811015612c9257600080fd5b50517fffffffff000000000000000000000000000000000000000000000000000000001614612d08576040805162461bcd60e51b815260206004820152601a60248201527f53616c653a206e6f74696669636174696f6e2072656675736564000000000000604482015290519081900360640190fd5b5050565b6000612d188383612d5c565b612d4e575081546001818101845560008481526020808220909301849055845484825282860190935260409020919091556118ff565b5060006118ff565b3b151590565b60009081526001919091016020526040902054151590565b6040820151600090612d909083906001600160a01b0316612f73565b9050806118ff576040805162461bcd60e51b815260206004820152601f60248201527f53616c653a20756e737570706f72746564207061796d656e7420746f6b656e00604482015290519081900360640190fd5b600082612df3575060006118ff565b82820282848281612e0057fe5b04146122435760405162461bcd60e51b81526004018080602001828103825260218152602001806130d56021913960400191505060405180910390fd5b600082821115612e94576040805162461bcd60e51b815260206004820152601e60248201527f536166654d6174683a207375627472616374696f6e206f766572666c6f770000604482015290519081900360640190fd5b50900390565b604080516001600160a01b0380861660248301528416604482015260648082018490528251808303909101815260849091019091526020810180517bffffffffffffffffffffffffffffffffffffffffffffffffffffffff167f23b872dd00000000000000000000000000000000000000000000000000000000179052612f2290859061224a565b50505050565b60608101516000908152600660205260409020805460001914612d085760808201516001820154612f5891612e3d565b60608301516000908152600660205260409020600101555050565b600081815260018301602052604081205480612fd6576040805162461bcd60e51b815260206004820152601860248201527f456e756d4d61703a206e6f6e6578697374656e74206b65790000000000000000604482015290519081900360640190fd5b836000016001820381548110612fe857fe5b90600052602060002090600202016001015491505092915050565b60405180610140016040528060006001600160a01b0316815260200160006001600160a01b0316815260200160006001600160a01b03168152602001600080191681526020016000815260200160608152602001600081526020016060815260200160608152602001606081525090565b8280548282559060005260206000209081019282156130af579160200282015b828111156130af578235825591602001919060010190613094565b506130bb9291506130bf565b5090565b5b808211156130bb57600081556001016130c056fe536166654d6174683a206d756c7469706c69636174696f6e206f766572666c6f77a2646970667358221220fde5ccafb803b8f2e1cc792248a225b2bb0486e5f1bd37387206d0bbeb51122b64736f6c63430007060033",
  "linkReferences": {},
  "deployedLinkReferences": {}
}