{
  "_format": "hh-sol-artifact-1",
  "contractName": "TokenLaunchpadVoucherPacksSale",
  "sourceName": "contracts/sale/TokenLaunchpadVoucherPacksSale.sol",
  "abi": [
    {
      "inputs": [
        {
          "internalType": "contract IVouchersContract",
          "name": "vouchersContract_",
          "type": "address"
        },
        {
          "internalType": "address payable",
          "name": "payoutWallet",
          "type": "address"
        },
        {
          "internalType": "uint256",
          "name": "skusCapacity",
          "type": "uint256"
        },
        {
          "internalType": "uint256",
          "name": "tokensPerSkuCapacity",
          "type": "uint256"
        }
      ],
      "stateMutability": "nonpayable",
      "type": "constructor"
    },
    {
      "anonymous": false,
      "inputs": [
        {
          "indexed": false,
          "internalType": "bytes32[]",
          "name": "names",
          "type": "bytes32[]"
        },
        {
          "indexed": false,
          "internalType": "bytes32[]",
          "name": "values",
          "type": "bytes32[]"
        }
      ],
      "name": "MagicValues",
      "type": "event"
    },
    {
      "anonymous": false,
      "inputs": [
        {
          "indexed": true,
          "internalType": "address",
          "name": "previousOwner",
          "type": "address"
        },
        {
          "indexed": true,
          "internalType": "address",
          "name": "newOwner",
          "type": "address"
        }
      ],
      "name": "OwnershipTransferred",
      "type": "event"
    },
    {
      "anonymous": false,
      "inputs": [
        {
          "indexed": false,
          "internalType": "address",
          "name": "account",
          "type": "address"
        }
      ],
      "name": "Paused",
      "type": "event"
    },
    {
      "anonymous": false,
      "inputs": [
        {
          "indexed": false,
          "internalType": "address",
          "name": "payoutWallet_",
          "type": "address"
        }
      ],
      "name": "PayoutWalletSet",
      "type": "event"
    },
    {
      "anonymous": false,
      "inputs": [
        {
          "indexed": true,
          "internalType": "address",
          "name": "purchaser",
          "type": "address"
        },
        {
          "indexed": false,
          "internalType": "address",
          "name": "recipient",
          "type": "address"
        },
        {
          "indexed": true,
          "internalType": "address",
          "name": "token",
          "type": "address"
        },
        {
          "indexed": true,
          "internalType": "bytes32",
          "name": "sku",
          "type": "bytes32"
        },
        {
          "indexed": false,
          "internalType": "uint256",
          "name": "quantity",
          "type": "uint256"
        },
        {
          "indexed": false,
          "internalType": "bytes",
          "name": "userData",
          "type": "bytes"
        },
        {
          "indexed": false,
          "internalType": "uint256",
          "name": "totalPrice",
          "type": "uint256"
        },
        {
          "indexed": false,
          "internalType": "bytes",
          "name": "extData",
          "type": "bytes"
        }
      ],
      "name": "Purchase",
      "type": "event"
    },
    {
      "anonymous": false,
      "inputs": [
        {
          "indexed": false,
          "internalType": "bytes32",
          "name": "sku",
          "type": "bytes32"
        },
        {
          "indexed": false,
          "internalType": "uint256",
          "name": "totalSupply",
          "type": "uint256"
        },
        {
          "indexed": false,
          "internalType": "uint256",
          "name": "maxQuantityPerPurchase",
          "type": "uint256"
        },
        {
          "indexed": false,
          "internalType": "address",
          "name": "notificationsReceiver",
          "type": "address"
        }
      ],
      "name": "SkuCreation",
      "type": "event"
    },
    {
      "anonymous": false,
      "inputs": [
        {
          "indexed": true,
          "internalType": "bytes32",
          "name": "sku",
          "type": "bytes32"
        },
        {
          "indexed": false,
          "internalType": "address[]",
          "name": "tokens",
          "type": "address[]"
        },
        {
          "indexed": false,
          "internalType": "uint256[]",
          "name": "prices",
          "type": "uint256[]"
        }
      ],
      "name": "SkuPricingUpdate",
      "type": "event"
    },
    {
      "anonymous": false,
      "inputs": [
        {
          "indexed": false,
          "internalType": "address",
          "name": "account",
          "type": "address"
        }
      ],
      "name": "Started",
      "type": "event"
    },
    {
      "anonymous": false,
      "inputs": [
        {
          "indexed": false,
          "internalType": "address",
          "name": "account",
          "type": "address"
        }
      ],
      "name": "Unpaused",
      "type": "event"
    },
    {
      "inputs": [],
      "name": "SUPPLY_UNLIMITED",
      "outputs": [
        {
          "internalType": "uint256",
          "name": "",
          "type": "uint256"
        }
      ],
      "stateMutability": "view",
      "type": "function"
    },
    {
      "inputs": [],
      "name": "TOKEN_ETH",
      "outputs": [
        {
          "internalType": "address",
          "name": "",
          "type": "address"
        }
      ],
      "stateMutability": "view",
      "type": "function"
    },
    {
      "inputs": [
        {
          "internalType": "bytes32",
          "name": "sku",
          "type": "bytes32"
        },
        {
          "internalType": "uint256",
          "name": "totalSupply",
          "type": "uint256"
        },
        {
          "internalType": "uint256",
          "name": "maxQuantityPerPurchase",
          "type": "uint256"
        },
        {
          "internalType": "uint256[]",
          "name": "tokenIds",
          "type": "uint256[]"
        },
        {
          "internalType": "uint256",
          "name": "startTimestamp",
          "type": "uint256"
        },
        {
          "internalType": "uint256",
          "name": "endTimestamp",
          "type": "uint256"
        }
      ],
      "name": "createSku",
      "outputs": [],
      "stateMutability": "nonpayable",
      "type": "function"
    },
    {
      "inputs": [
        {
          "internalType": "address payable",
          "name": "recipient",
          "type": "address"
        },
        {
          "internalType": "address",
          "name": "token",
          "type": "address"
        },
        {
          "internalType": "bytes32",
          "name": "sku",
          "type": "bytes32"
        },
        {
          "internalType": "uint256",
          "name": "quantity",
          "type": "uint256"
        },
        {
          "internalType": "bytes",
          "name": "userData",
          "type": "bytes"
        }
      ],
      "name": "estimatePurchase",
      "outputs": [
        {
          "internalType": "uint256",
          "name": "totalPrice",
          "type": "uint256"
        },
        {
          "internalType": "bytes32[]",
          "name": "pricingData",
          "type": "bytes32[]"
        }
      ],
      "stateMutability": "view",
      "type": "function"
    },
    {
      "inputs": [
        {
          "internalType": "bytes32",
          "name": "sku",
          "type": "bytes32"
        }
      ],
      "name": "getSkuAdditionalInfo",
      "outputs": [
        {
          "internalType": "uint256[]",
          "name": "tokenIds",
          "type": "uint256[]"
        },
        {
          "internalType": "uint256",
          "name": "startTimestamp",
          "type": "uint256"
        },
        {
          "internalType": "uint256",
          "name": "endTimestamp",
          "type": "uint256"
        }
      ],
      "stateMutability": "view",
      "type": "function"
    },
    {
      "inputs": [
        {
          "internalType": "bytes32",
          "name": "sku",
          "type": "bytes32"
        }
      ],
      "name": "getSkuInfo",
      "outputs": [
        {
          "internalType": "uint256",
          "name": "totalSupply",
          "type": "uint256"
        },
        {
          "internalType": "uint256",
          "name": "remainingSupply",
          "type": "uint256"
        },
        {
          "internalType": "uint256",
          "name": "maxQuantityPerPurchase",
          "type": "uint256"
        },
        {
          "internalType": "address",
          "name": "notificationsReceiver",
          "type": "address"
        },
        {
          "internalType": "address[]",
          "name": "tokens",
          "type": "address[]"
        },
        {
          "internalType": "uint256[]",
          "name": "prices",
          "type": "uint256[]"
        }
      ],
      "stateMutability": "view",
      "type": "function"
    },
    {
      "inputs": [],
      "name": "getSkus",
      "outputs": [
        {
          "internalType": "bytes32[]",
          "name": "skus",
          "type": "bytes32[]"
        }
      ],
      "stateMutability": "view",
      "type": "function"
    },
    {
      "inputs": [],
      "name": "owner",
      "outputs": [
        {
          "internalType": "address",
          "name": "",
          "type": "address"
        }
      ],
      "stateMutability": "view",
      "type": "function"
    },
    {
      "inputs": [],
      "name": "pause",
      "outputs": [],
      "stateMutability": "nonpayable",
      "type": "function"
    },
    {
      "inputs": [],
      "name": "paused",
      "outputs": [
        {
          "internalType": "bool",
          "name": "",
          "type": "bool"
        }
      ],
      "stateMutability": "view",
      "type": "function"
    },
    {
      "inputs": [],
      "name": "payoutWallet",
      "outputs": [
        {
          "internalType": "address payable",
          "name": "",
          "type": "address"
        }
      ],
      "stateMutability": "view",
      "type": "function"
    },
    {
      "inputs": [
        {
          "internalType": "address payable",
          "name": "recipient",
          "type": "address"
        },
        {
          "internalType": "address",
          "name": "token",
          "type": "address"
        },
        {
          "internalType": "bytes32",
          "name": "sku",
          "type": "bytes32"
        },
        {
          "internalType": "uint256",
          "name": "quantity",
          "type": "uint256"
        },
        {
          "internalType": "bytes",
          "name": "userData",
          "type": "bytes"
        }
      ],
      "name": "purchaseFor",
      "outputs": [],
      "stateMutability": "payable",
      "type": "function"
    },
    {
      "inputs": [
        {
          "internalType": "address[]",
          "name": "accounts",
          "type": "address[]"
        },
        {
          "internalType": "address[]",
          "name": "tokens",
          "type": "address[]"
        },
        {
          "internalType": "uint256[]",
          "name": "amounts",
          "type": "uint256[]"
        }
      ],
      "name": "recoverERC20s",
      "outputs": [],
      "stateMutability": "nonpayable",
      "type": "function"
    },
    {
      "inputs": [
        {
          "internalType": "address[]",
          "name": "accounts",
          "type": "address[]"
        },
        {
          "internalType": "address[]",
          "name": "contracts",
          "type": "address[]"
        },
        {
          "internalType": "uint256[]",
          "name": "tokenIds",
          "type": "uint256[]"
        }
      ],
      "name": "recoverERC721s",
      "outputs": [],
      "stateMutability": "nonpayable",
      "type": "function"
    },
    {
      "inputs": [
        {
          "internalType": "address payable",
          "name": "payoutWallet_",
          "type": "address"
        }
      ],
      "name": "setPayoutWallet",
      "outputs": [],
      "stateMutability": "nonpayable",
      "type": "function"
    },
    {
      "inputs": [],
      "name": "start",
      "outputs": [],
      "stateMutability": "nonpayable",
      "type": "function"
    },
    {
      "inputs": [],
      "name": "startedAt",
      "outputs": [
        {
          "internalType": "uint256",
          "name": "",
          "type": "uint256"
        }
      ],
      "stateMutability": "view",
      "type": "function"
    },
    {
      "inputs": [
        {
          "internalType": "address",
          "name": "newOwner",
          "type": "address"
        }
      ],
      "name": "transferOwnership",
      "outputs": [],
      "stateMutability": "nonpayable",
      "type": "function"
    },
    {
      "inputs": [],
      "name": "unpause",
      "outputs": [],
      "stateMutability": "nonpayable",
      "type": "function"
    },
    {
      "inputs": [
        {
          "internalType": "bytes32",
          "name": "sku",
          "type": "bytes32"
        },
        {
          "internalType": "address[]",
          "name": "tokens",
          "type": "address[]"
        },
        {
          "internalType": "uint256[]",
          "name": "prices",
          "type": "uint256[]"
        }
      ],
      "name": "updateSkuPricing",
      "outputs": [],
      "stateMutability": "nonpayable",
      "type": "function"
    },
    {
      "inputs": [],
      "name": "vouchersContract",
      "outputs": [
        {
          "internalType": "contract IVouchersContract",
          "name": "",
          "type": "address"
        }
      ],
      "stateMutability": "view",
      "type": "function"
    }
  ],
  "bytecode": "0x60e06040523480156200001157600080fd5b506040516200377d3803806200377d833981810160405260808110156200003757600080fd5b5080516020820151604080840151606090940151600080546001600160a01b031916339081178255925194959394919285928592859285928592859260019290918691839182917f8be0079c531659141344cd1fd0a4f28419497f9722a3daafe3b4186f6b6457e0908290a3506001600160a01b03811662000100576040805162461bcd60e51b815260206004820152601460248201527f5061796f75743a207a65726f2061646472657373000000000000000000000000604482015290519081900360640190fd5b600180546001600160a01b0383166001600160a01b0319909116811790915560408051918252517fdd880d24a789958a6398c99c2e54ce31bc10a638cbc42f7dd34285479ae0f8559181900360200190a150506003805460ff1916911515919091179055608082905260a081905260408051600280825260608201835260009260208301908036833750506040805160028082526060820183529394506000939092509060208301908036833750508351919250680a89e968a9cbe8aa8960bb1b9173eeeeeeeeeeeeeeeeeeeeeeeeeeeeeeeeeeeeeeee91508490600090620001e557fe5b6020026020010183600081518110620001fa57fe5b602002602001018281525082815250505060001960001b6f14d55414131657d5539312535255115160821b90836001815181106200023457fe5b60200260200101836001815181106200024957fe5b60200260200101828152508281525050507fabb92614f53337043b55dc996a83ebb09adce78ec336ca188ea02180b61d1c148282604051808060200180602001838103835285818151815260200191508051906020019060200280838360005b83811015620002c3578181015183820152602001620002a9565b50505050905001838103825284818151815260200191508051906020019060200280838360005b8381101562000304578181015183820152602001620002ea565b5050505090500194505050505060405180910390a15050506001600160601b031960609990991b9890981660c052505050505050505060805160a05160c05160601c6134046200037960003980610bcd528061101252806128d65280612a19525080611dac52508061191352506134046000f3fe60806040526004361061016a5760003560e01c80636b8f9c43116100cb5780639e0495451161007f578063c3666c3611610059578063c3666c3614610900578063f21f537d14610a21578063f2fde38b14610a365761016a565b80639e0495451461082f578063a963b25714610856578063be9a6555146108eb5761016a565b80638456cb59116100b05780638456cb59146107f05780638488bb4e146108055780638da5cb5b1461081a5761016a565b80636b8f9c431461069c57806373c8a958146106cf5761016a565b8063474f2891116101225780635c975abb116101075780635c975abb146104d35780635e6e9f70146104fc57806361bd3851146106375761016a565b8063474f28911461048d5780635c4fafc7146104be5761016a565b80632a8a45bc116101535780632a8a45bc146103045780632e890782146103ec5780633f4ba83a146104785761016a565b80631323b0661461016f578063298f53f71461026c575b600080fd5b34801561017b57600080fd5b50610211600480360360a081101561019257600080fd5b6001600160a01b03823581169260208101359091169160408201359160608101359181019060a0810160808201356401000000008111156101d257600080fd5b8201836020820111156101e457600080fd5b8035906020019184600183028401116401000000008311171561020657600080fd5b509092509050610a69565b6040518083815260200180602001828103825283818151815260200191508051906020019060200280838360005b8381101561025757818101518382015260200161023f565b50505050905001935050505060405180910390f35b34801561027857600080fd5b50610302600480360360c081101561028f57600080fd5b813591602081013591604082013591908101906080810160608201356401000000008111156102bd57600080fd5b8201836020820111156102cf57600080fd5b803590602001918460208302840111640100000000831117156102f157600080fd5b919350915080359060200135610b5e565b005b34801561031057600080fd5b5061032e6004803603602081101561032757600080fd5b5035610d64565b60405180878152602001868152602001858152602001846001600160a01b031681526020018060200180602001838103835285818151815260200191508051906020019060200280838360005b8381101561039357818101518382015260200161037b565b50505050905001838103825284818151815260200191508051906020019060200280838360005b838110156103d25781810151838201526020016103ba565b505050509050019850505050505050505060405180910390f35b3480156103f857600080fd5b506104166004803603602081101561040f57600080fd5b5035610f09565b6040518080602001848152602001838152602001828103825285818151815260200191508051906020019060200280838360005b8381101561046257818101518382015260200161044a565b5050505090500194505050505060405180910390f35b34801561048457600080fd5b50610302610fa7565b34801561049957600080fd5b506104a2611010565b604080516001600160a01b039092168252519081900360200190f35b3480156104ca57600080fd5b506104a2611034565b3480156104df57600080fd5b506104e861104c565b604080519115158252519081900360200190f35b34801561050857600080fd5b506103026004803603606081101561051f57600080fd5b8135919081019060408101602082013564010000000081111561054157600080fd5b82018360208201111561055357600080fd5b8035906020019184602083028401116401000000008311171561057557600080fd5b91908080602002602001604051908101604052809392919081815260200183836020028082843760009201919091525092959493602081019350359150506401000000008111156105c557600080fd5b8201836020820111156105d757600080fd5b803590602001918460208302840111640100000000831117156105f957600080fd5b919080806020026020016040519081016040528093929190818152602001838360200280828437600092019190915250929550611055945050505050565b34801561064357600080fd5b5061064c611232565b60408051602080825283518183015283519192839290830191858101910280838360005b83811015610688578181015183820152602001610670565b505050509050019250505060405180910390f35b3480156106a857600080fd5b50610302600480360360208110156106bf57600080fd5b50356001600160a01b031661128d565b3480156106db57600080fd5b50610302600480360360608110156106f257600080fd5b81019060208101813564010000000081111561070d57600080fd5b82018360208201111561071f57600080fd5b8035906020019184602083028401116401000000008311171561074157600080fd5b91939092909160208101903564010000000081111561075f57600080fd5b82018360208201111561077157600080fd5b8035906020019184602083028401116401000000008311171561079357600080fd5b9193909290916020810190356401000000008111156107b157600080fd5b8201836020820111156107c357600080fd5b803590602001918460208302840111640100000000831117156107e557600080fd5b50909250905061135a565b3480156107fc57600080fd5b5061030261143d565b34801561081157600080fd5b506104a26114a4565b34801561082657600080fd5b506104a26114b3565b34801561083b57600080fd5b506108446114c2565b60408051918252519081900360200190f35b610302600480360360a081101561086c57600080fd5b6001600160a01b03823581169260208101359091169160408201359160608101359181019060a0810160808201356401000000008111156108ac57600080fd5b8201836020820111156108be57600080fd5b803590602001918460018302840111640100000000831117156108e057600080fd5b5090925090506114c8565b3480156108f757600080fd5b506103026115ae565b34801561090c57600080fd5b506103026004803603606081101561092357600080fd5b81019060208101813564010000000081111561093e57600080fd5b82018360208201111561095057600080fd5b8035906020019184602083028401116401000000008311171561097257600080fd5b91939092909160208101903564010000000081111561099057600080fd5b8201836020820111156109a257600080fd5b803590602001918460208302840111640100000000831117156109c457600080fd5b9193909290916020810190356401000000008111156109e257600080fd5b8201836020820111156109f457600080fd5b80359060200191846020830284011164010000000083111715610a1657600080fd5b5090925090506115c1565b348015610a2d57600080fd5b50610844611709565b348015610a4257600080fd5b5061030260048036036020811015610a5957600080fd5b50356001600160a01b031661170f565b6000606060025460001415610ac5576040805162461bcd60e51b815260206004820152601660248201527f537461727461626c653a206e6f74207374617274656400000000000000000000604482015290519081900360640190fd5b610acd611775565b610ad56132dc565b610add6117cd565b6001600160a01b03908116825289811660208084019190915290891660408084019190915260608301899052608083018890528051601f870183900483028101830190915285815290869086908190840183828082843760009201919091525050505060a0820152610b4e816117d1565b9250925050965096945050505050565b610b6e610b696117cd565b6117f8565b8280610bc1576040805162461bcd60e51b815260206004820152601260248201527f53616c653a20656d70747920746f6b656e730000000000000000000000000000604482015290519081900360640190fd5b60005b818114610cc6577f00000000000000000000000000000000000000000000000000000000000000006001600160a01b031663adebf6f2878784818110610c0657fe5b905060200201356040518263ffffffff1660e01b81526004018082815260200191505060206040518083038186803b158015610c4157600080fd5b505afa158015610c55573d6000803e3d6000fd5b505050506040513d6020811015610c6b57600080fd5b5051610cbe576040805162461bcd60e51b815260206004820152601a60248201527f53616c653a206e6f7420612066756e6769626c6520746f6b656e000000000000604482015290519081900360640190fd5b600101610bc4565b5060405180606001604052808686808060200260200160405190810160405280939291908181526020018383602002808284376000920182905250938552505050602080830187905260409283018690528b825260078152919020825180519192610d369284929091019061334d565b5060208201516001820155604090910151600290910155610d5a88888860006118bf565b5050505050505050565b6000818152600660205260408120819081908190606090819083610d8a60048301611af6565b82549850905087610de2576040805162461bcd60e51b815260206004820152601660248201527f53616c653a206e6f6e2d6578697374656e7420736b7500000000000000000000604482015290519081900360640190fd5b60018201546002830154600384015491985096506001600160a01b031694508067ffffffffffffffff81118015610e1857600080fd5b50604051908082528060200260200182016040528015610e42578160200160208202803683370190505b5093508067ffffffffffffffff81118015610e5c57600080fd5b50604051908082528060200260200182016040528015610e86578160200160208202803683370190505b50925060005b81811015610efd57600080610ea46004860184611afa565b915091508160001c878481518110610eb857fe5b60200260200101906001600160a01b031690816001600160a01b0316815250508060001c868481518110610ee857fe5b60209081029190910101525050600101610e8c565b50505091939550919395565b60008181526007602090815260408083208151815460809481028201850190935260608181018481529095948594859492849290918491840182828015610f6f57602002820191906000526020600020905b815481526020019060010190808311610f5b575b505050918352505060018201546020808301919091526002909201546040918201528251918301519201519097919650945092505050565b600254610ffb576040805162461bcd60e51b815260206004820152601660248201527f537461727461626c653a206e6f74207374617274656400000000000000000000604482015290519081900360640190fd5b611006610b696117cd565b61100e611b8b565b565b7f000000000000000000000000000000000000000000000000000000000000000081565b73eeeeeeeeeeeeeeeeeeeeeeeeeeeeeeeeeeeeeeee81565b60035460ff1681565b611060610b696117cd565b8151815181146110b7576040805162461bcd60e51b815260206004820152601960248201527f53616c653a20696e636f6e73697374656e742061727261797300000000000000604482015290519081900360640190fd5b60008481526006602052604090208054611118576040805162461bcd60e51b815260206004820152601660248201527f53616c653a206e6f6e2d6578697374656e7420736b7500000000000000000000604482015290519081900360640190fd5b600481018261116357600061112c82611af6565b905060005b8181101561115c5760006111458482611afa565b5090506111528482611be3565b5050600101611131565b505061116e565b61116e818686611cc3565b857fcb3fe5489e0cd43d0f4a33d1e09a4a0463a03d0d38f56165530854e5540db1438686604051808060200180602001838103835285818151815260200191508051906020019060200280838360005b838110156111d65781810151838201526020016111be565b50505050905001838103825284818151815260200191508051906020019060200280838360005b838110156112155781810151838201526020016111fd565b5050505090500194505050505060405180910390a2505050505050565b6060600460000180548060200260200160405190810160405280929190818152602001828054801561128357602002820191906000526020600020905b81548152602001906001019080831161126f575b5050505050905090565b611298610b696117cd565b6001600160a01b0381166112f3576040805162461bcd60e51b815260206004820152601460248201527f5061796f75743a207a65726f2061646472657373000000000000000000000000604482015290519081900360640190fd5b6001805473ffffffffffffffffffffffffffffffffffffffff19166001600160a01b03838116919091179182905560408051929091168252517fdd880d24a789958a6398c99c2e54ce31bc10a638cbc42f7dd34285479ae0f855916020908290030190a150565b611365610b696117cd565b84838114801561137457508082145b6113c5576040805162461bcd60e51b815260206004820152601a60248201527f5265636f763a20696e636f6e73697374656e7420617272617973000000000000604482015290519081900360640190fd5b60005b818114610d5a576114358888838181106113de57fe5b905060200201356001600160a01b03168585848181106113fa57fe5b9050602002013588888581811061140d57fe5b905060200201356001600160a01b03166001600160a01b0316611e2c9092919063ffffffff16565b6001016113c8565b600254611491576040805162461bcd60e51b815260206004820152601660248201527f537461727461626c653a206e6f74207374617274656400000000000000000000604482015290519081900360640190fd5b61149c610b696117cd565b61100e611eac565b6001546001600160a01b031681565b6000546001600160a01b031690565b60001981565b60025461151c576040805162461bcd60e51b815260206004820152601660248201527f537461727461626c653a206e6f74207374617274656400000000000000000000604482015290519081900360640190fd5b611524611775565b61152c6132dc565b6115346117cd565b6001600160a01b03908116825287811660208084019190915290871660408084019190915260608301879052608083018690528051601f850183900483028101830190915283815290849084908190840183828082843760009201919091525050505060a08201526115a581611eea565b50505050505050565b6115b9610b696117cd565b611006611f17565b6115cc610b696117cd565b8483811480156115db57508082145b61162c576040805162461bcd60e51b815260206004820152601a60248201527f5265636f763a20696e636f6e73697374656e7420617272617973000000000000604482015290519081900360640190fd5b60005b818114610d5a5785858281811061164257fe5b905060200201356001600160a01b03166001600160a01b03166323b872dd308a8a8581811061166d57fe5b905060200201356001600160a01b031687878681811061168957fe5b905060200201356040518463ffffffff1660e01b815260040180846001600160a01b03168152602001836001600160a01b031681526020018281526020019350505050600060405180830381600087803b1580156116e657600080fd5b505af11580156116fa573d6000803e3d6000fd5b5050505080600101905061162f565b60025490565b61171a610b696117cd565b6000805473ffffffffffffffffffffffffffffffffffffffff19166001600160a01b0383811691821780845560405192939116917f8be0079c531659141344cd1fd0a4f28419497f9722a3daafe3b4186f6b6457e09190a350565b60035460ff161561100e576040805162461bcd60e51b815260206004820152601060248201527f5061757361626c653a2070617573656400000000000000000000000000000000604482015290519081900360640190fd5b3390565b600060606117de83611f99565b6117e783612243565b505060c081015160e0909101519091565b306001600160a01b0316638da5cb5b6040518163ffffffff1660e01b815260040160206040518083038186803b15801561183157600080fd5b505afa158015611845573d6000803e3d6000fd5b505050506040513d602081101561185b57600080fd5b50516001600160a01b038281169116146118bc576040805162461bcd60e51b815260206004820152601660248201527f4f776e61626c653a206e6f7420746865206f776e657200000000000000000000604482015290519081900360640190fd5b50565b82611911576040805162461bcd60e51b815260206004820152601160248201527f53616c653a207a65726f20737570706c79000000000000000000000000000000604482015290519081900360640190fd5b7f000000000000000000000000000000000000000000000000000000000000000061193c6004611af6565b1061198e576040805162461bcd60e51b815260206004820152601360248201527f53616c653a20746f6f206d616e7920736b757300000000000000000000000000604482015290519081900360640190fd5b6119996004856122e0565b6119ea576040805162461bcd60e51b815260206004820152601960248201527f53616c653a20736b7520616c7265616479206372656174656400000000000000604482015290519081900360640190fd5b6001600160a01b03811615611a5c57611a0b816001600160a01b031661232a565b611a5c576040805162461bcd60e51b815260206004820152601b60248201527f53616c653a206e6f6e2d636f6e74726163742072656365697665720000000000604482015290519081900360640190fd5b60008481526006602090815260409182902085815560018101869055600281018590556003810180546001600160a01b03861673ffffffffffffffffffffffffffffffffffffffff1990911681179091558351888152928301879052828401869052606083015291517f38bd4aabce684540cd61351b91f2f5facf9d6963934347e25aab93d87ae7ac149181900360800190a15050505050565b5490565b815460009081908310611b54576040805162461bcd60e51b815260206004820152601c60248201527f456e756d4d61703a20696e646578206f7574206f6620626f756e647300000000604482015290519081900360640190fd5b6000846000018481548110611b6557fe5b906000526020600020906002020190508060000154816001015492509250509250929050565b611b93612330565b6003805460ff191690557f5db9ee0a495bf2e6ff9c91a7834c1ba4fdd244a5e8aa4e537bd38aeae4b073aa611bc66117cd565b604080516001600160a01b039092168252519081900360200190a1565b60008181526001830160205260408120548015611cb75783546000198083019190810190600090879083908110611c1657fe5b9060005260206000209060020201905080876000018481548110611c3657fe5b600091825260208083208454600290930201918255600193840154918401919091558354825289830190526040902090840190558654879080611c7557fe5b6000828152602080822060026000199094019384020182815560019081018390559290935588815289820190925260408220919091559450611cbd9350505050565b60009150505b92915050565b60005b8251811015611da9576000838281518110611cdd57fe5b6020026020010151905060006001600160a01b0316816001600160a01b03161415611d4f576040805162461bcd60e51b815260206004820152601860248201527f53616c653a207a65726f206164647265737320746f6b656e0000000000000000604482015290519081900360640190fd5b6000838381518110611d5d57fe5b602002602001015190508060001415611d8957611d83866001600160a01b038416611be3565b50611d9f565b611d9d866001600160a01b03841683612387565b505b5050600101611cc6565b507f0000000000000000000000000000000000000000000000000000000000000000611dd484611af6565b1115611e27576040805162461bcd60e51b815260206004820152601560248201527f53616c653a20746f6f206d616e7920746f6b656e730000000000000000000000604482015290519081900360640190fd5b505050565b604080516001600160a01b038416602482015260448082018490528251808303909101815260649091019091526020810180517bffffffffffffffffffffffffffffffffffffffffffffffffffffffff167fa9059cbb00000000000000000000000000000000000000000000000000000000179052611e27908490612421565b611eb4611775565b6003805460ff191660011790557f62e78cea01bee320cd4e420270b5ea74000d11b0c9f74754ebdbfc544b05a258611bc66117cd565b611ef381611f99565b611efc81612243565b611f0581612629565b611f0e81612778565b6118bc81612b4c565b60025415611f6c576040805162461bcd60e51b815260206004820152601260248201527f537461727461626c653a20737461727465640000000000000000000000000000604482015290519081900360640190fd5b426002557f27029695aa5f602a4ee81f4c32dfa86e562f200a17966496f3a7c3f2ec0f9417611bc66117cd565b60208101516001600160a01b0316611ff8576040805162461bcd60e51b815260206004820152601c60248201527f53616c653a207a65726f206164647265737320726563697069656e7400000000604482015290519081900360640190fd5b60408101516001600160a01b0316612057576040805162461bcd60e51b815260206004820152601860248201527f53616c653a207a65726f206164647265737320746f6b656e0000000000000000604482015290519081900360640190fd5b60808101516120ad576040805162461bcd60e51b815260206004820152601c60248201527f53616c653a207a65726f207175616e7469747920707572636861736500000000604482015290519081900360640190fd5b606081015160009081526006602052604090208054612113576040805162461bcd60e51b815260206004820152601660248201527f53616c653a206e6f6e2d6578697374656e7420736b7500000000000000000000604482015290519081900360640190fd5b816080015181600201541015612170576040805162461bcd60e51b815260206004820152601860248201527f53616c653a2061626f7665206d6178207175616e746974790000000000000000604482015290519081900360640190fd5b8054600019146121d7578160800151816001015410156121d7576040805162461bcd60e51b815260206004820152601960248201527f53616c653a20696e73756666696369656e7420737570706c7900000000000000604482015290519081900360640190fd5b60408201516001600160a01b03166121f26004830182613035565b611e27576040805162461bcd60e51b815260206004820152601c60248201527f53616c653a206e6f6e2d6578697374656e7420736b7520746f6b656e00000000604482015290519081900360640190fd5b6060810151600090815260066020526040902080546122a9576040805162461bcd60e51b815260206004820152601560248201527f53616c653a20756e737570706f7274656420534b550000000000000000000000604482015290519081900360640190fd5b6004810160006122b9848361304d565b90506122d28460800151826130bd90919063ffffffff16565b60c090940193909352505050565b60006122ec8383613035565b61232257508154600181810184556000848152602080822090930184905584548482528286019093526040902091909155611cbd565b506000611cbd565b3b151590565b60035460ff1661100e576040805162461bcd60e51b815260206004820152601460248201527f5061757361626c653a206e6f7420706175736564000000000000000000000000604482015290519081900360640190fd5b6000828152600184016020526040812054806123ec57505060408051808201825283815260208082018481528654600181810189556000898152848120955160029093029095019182559151908201558654868452818801909252929091205561241a565b828560000160018303815481106123ff57fe5b90600052602060002090600202016001018190555060009150505b9392505050565b816124346001600160a01b03821661232a565b612485576040805162461bcd60e51b815260206004820152601a60248201527f4552433230577261707065723a206e6f6e2d636f6e7472616374000000000000604482015290519081900360640190fd5b600080826001600160a01b0316846040518082805190602001908083835b602083106124e057805182527fffffffffffffffffffffffffffffffffffffffffffffffffffffffffffffffe090920191602091820191016124a3565b6001836020036101000a0380198251168184511680821785525050505050509050019150506000604051808303816000865af19150503d8060008114612542576040519150601f19603f3d011682016040523d82523d6000602084013e612547565b606091505b509150915081156125c6578051156125c15780806020019051602081101561256e57600080fd5b50516125c1576040805162461bcd60e51b815260206004820152601e60248201527f4552433230577261707065723a206f7065726174696f6e206661696c65640000604482015290519081900360640190fd5b612622565b8051612619576040805162461bcd60e51b815260206004820152601e60248201527f4552433230577261707065723a206f7065726174696f6e206661696c65640000604482015290519081900360640190fd5b80518082602001fd5b5050505050565b60408101516001600160a01b031673eeeeeeeeeeeeeeeeeeeeeeeeeeeeeeeeeeeeeeee141561274c578060c001513410156126ab576040805162461bcd60e51b815260206004820152601660248201527f53616c653a20696e73756666696369656e742045544800000000000000000000604482015290519081900360640190fd5b60015460c08201516040516001600160a01b039092169181156108fc0291906000818181858888f193505050501580156126e9573d6000803e3d6000fd5b5060006127038260c001513461311690919063ffffffff16565b905080156127465781516040516001600160a01b039091169082156108fc029083906000818181858888f19350505050158015612744573d6000803e3d6000fd5b505b506118bc565b6118bc6127576117cd565b60015460c084015160408501516001600160a01b0390811693921690613173565b61278181613201565b6060808201516000908152600760209081526040808320815181546080948102820185019093529485018281529394939092849284918401828280156127e657602002820191906000526020600020905b8154815260200190600101908083116127d2575b5050505050815260200160018201548152602001600282015481525050905060008160200151905060008260400151905042821061286b576040805162461bcd60e51b815260206004820152601560248201527f53616c653a206e6f742073746172746564207965740000000000000000000000604482015290519081900360640190fd5b80158061287757504281115b6128c8576040805162461bcd60e51b815260206004820152601360248201527f53616c653a20616c726561647920656e64656400000000000000000000000000604482015290519081900360640190fd5b82515160018114156129a1577f00000000000000000000000000000000000000000000000000000000000000006001600160a01b0316635cfa92978660200151866000015160008151811061291957fe5b602002602001015188608001516040518463ffffffff1660e01b815260040180846001600160a01b0316815260200183815260200182815260200180602001828103825260008152602001945050505050600060405180830381600087803b15801561298457600080fd5b505af1158015612998573d6000803e3d6000fd5b50505050612622565b608085015160008267ffffffffffffffff811180156129bf57600080fd5b506040519080825280602002602001820160405280156129e9578160200160208202803683370190505b50905060005b838114612a165782828281518110612a0357fe5b60209081029190910101526001016129ef565b507f00000000000000000000000000000000000000000000000000000000000000006001600160a01b0316630d6a5bbb88602001518860000151846040518463ffffffff1660e01b815260040180846001600160a01b03168152602001806020018060200180602001848103845286818151815260200191508051906020019060200280838360005b83811015612ab7578181015183820152602001612a9f565b50505050905001848103835285818151815260200191508051906020019060200280838360005b83811015612af6578181015183820152602001612ade565b505050509050018481038252600081526020019650505050505050600060405180830381600087803b158015612b2b57600080fd5b505af1158015612b3f573d6000803e3d6000fd5b5050505050505050505050565b806060015181604001516001600160a01b031682600001516001600160a01b03167f29f844483ca6b10b5c0611d039afc15ce8f6380e905307b381c3a8ee4e90e11e846020015185608001518660a001518760c001518860e001518961010001518a610120015160405160200180848051906020019060200280838360005b83811015612be3578181015183820152602001612bcb565b50505050905001838051906020019060200280838360005b83811015612c13578181015183820152602001612bfb565b50505050905001828051906020019060200280838360005b83811015612c43578181015183820152602001612c2b565b50505050905001935050505060405160208183030381529060405260405180866001600160a01b031681526020018581526020018060200184815260200180602001838103835286818151815260200191508051906020019080838360005b83811015612cba578181015183820152602001612ca2565b50505050905090810190601f168015612ce75780820380516001836020036101000a031916815260200191505b50838103825284518152845160209182019186019080838360005b83811015612d1a578181015183820152602001612d02565b50505050905090810190601f168015612d475780820380516001836020036101000a031916815260200191505b5097505050505050505060405180910390a460608101516000908152600660205260409020600301546001600160a01b03168015613031576361eceae860e01b7bffffffffffffffffffffffffffffffffffffffffffffffffffffffff1916816001600160a01b03166361eceae8846000015185602001518660400151876060015188608001518960a001518a60c001518b60e001518c61010001518d61012001516040518b63ffffffff1660e01b8152600401808b6001600160a01b031681526020018a6001600160a01b03168152602001896001600160a01b031681526020018881526020018781526020018060200186815260200180602001806020018060200185810385528a818151815260200191508051906020019080838360005b83811015612e80578181015183820152602001612e68565b50505050905090810190601f168015612ead5780820380516001836020036101000a031916815260200191505b508581038452885181528851602091820191808b01910280838360005b83811015612ee2578181015183820152602001612eca565b50505050905001858103835287818151815260200191508051906020019060200280838360005b83811015612f21578181015183820152602001612f09565b50505050905001858103825286818151815260200191508051906020019060200280838360005b83811015612f60578181015183820152602001612f48565b505050509050019e505050505050505050505050505050602060405180830381600087803b158015612f9157600080fd5b505af1158015612fa5573d6000803e3d6000fd5b505050506040513d6020811015612fbb57600080fd5b50517fffffffff000000000000000000000000000000000000000000000000000000001614613031576040805162461bcd60e51b815260206004820152601a60248201527f53616c653a206e6f74696669636174696f6e2072656675736564000000000000604482015290519081900360640190fd5b5050565b60009081526001919091016020526040902054151590565b60408201516000906130699083906001600160a01b031661324c565b905080611cbd576040805162461bcd60e51b815260206004820152601f60248201527f53616c653a20756e737570706f72746564207061796d656e7420746f6b656e00604482015290519081900360640190fd5b6000826130cc57506000611cbd565b828202828482816130d957fe5b041461241a5760405162461bcd60e51b81526004018080602001828103825260218152602001806133ae6021913960400191505060405180910390fd5b60008282111561316d576040805162461bcd60e51b815260206004820152601e60248201527f536166654d6174683a207375627472616374696f6e206f766572666c6f770000604482015290519081900360640190fd5b50900390565b604080516001600160a01b0380861660248301528416604482015260648082018490528251808303909101815260849091019091526020810180517bffffffffffffffffffffffffffffffffffffffffffffffffffffffff167f23b872dd000000000000000000000000000000000000000000000000000000001790526131fb908590612421565b50505050565b60608101516000908152600660205260409020805460001914613031576080820151600182015461323191613116565b60608301516000908152600660205260409020600101555050565b6000818152600183016020526040812054806132af576040805162461bcd60e51b815260206004820152601860248201527f456e756d4d61703a206e6f6e6578697374656e74206b65790000000000000000604482015290519081900360640190fd5b8360000160018203815481106132c157fe5b90600052602060002090600202016001015491505092915050565b60405180610140016040528060006001600160a01b0316815260200160006001600160a01b0316815260200160006001600160a01b03168152602001600080191681526020016000815260200160608152602001600081526020016060815260200160608152602001606081525090565b828054828255906000526020600020908101928215613388579160200282015b8281111561338857825182559160200191906001019061336d565b50613394929150613398565b5090565b5b80821115613394576000815560010161339956fe536166654d6174683a206d756c7469706c69636174696f6e206f766572666c6f77a2646970667358221220138de13944145b56be8d2d063e5569019aaae9e049289943b3051f567ef9480a64736f6c63430007060033",
  "linkReferences": {},
  "deployedLinkReferences": {}
}