{
  "_format": "hh-sol-artifact-1",
  "contractName": "TokenLaunchpadVouchers",
  "sourceName": "contracts/token/ERC1155/TokenLaunchpadVouchers.sol",
  "abi": [
    {
      "inputs": [],
      "stateMutability": "nonpayable",
      "type": "constructor"
    },
    {
      "anonymous": false,
      "inputs": [
        {
          "indexed": true,
          "internalType": "address",
          "name": "_owner",
          "type": "address"
        },
        {
          "indexed": true,
          "internalType": "address",
          "name": "_operator",
          "type": "address"
        },
        {
          "indexed": false,
          "internalType": "bool",
          "name": "_approved",
          "type": "bool"
        }
      ],
      "name": "ApprovalForAll",
      "type": "event"
    },
    {
      "anonymous": false,
      "inputs": [
        {
          "indexed": false,
          "internalType": "string",
          "name": "baseMetadataURI",
          "type": "string"
        }
      ],
      "name": "BaseMetadataURISet",
      "type": "event"
    },
    {
      "anonymous": false,
      "inputs": [
        {
          "indexed": true,
          "internalType": "uint256",
          "name": "collectionId",
          "type": "uint256"
        },
        {
          "indexed": true,
          "internalType": "bool",
          "name": "fungible",
          "type": "bool"
        }
      ],
      "name": "CollectionCreated",
      "type": "event"
    },
    {
      "anonymous": false,
      "inputs": [
        {
          "indexed": true,
          "internalType": "address",
          "name": "account",
          "type": "address"
        }
      ],
      "name": "MinterAdded",
      "type": "event"
    },
    {
      "anonymous": false,
      "inputs": [
        {
          "indexed": true,
          "internalType": "address",
          "name": "account",
          "type": "address"
        }
      ],
      "name": "MinterRemoved",
      "type": "event"
    },
    {
      "anonymous": false,
      "inputs": [
        {
          "indexed": true,
          "internalType": "address",
          "name": "previousOwner",
          "type": "address"
        },
        {
          "indexed": true,
          "internalType": "address",
          "name": "newOwner",
          "type": "address"
        }
      ],
      "name": "OwnershipTransferred",
      "type": "event"
    },
    {
      "anonymous": false,
      "inputs": [
        {
          "indexed": false,
          "internalType": "address",
          "name": "account",
          "type": "address"
        }
      ],
      "name": "Paused",
      "type": "event"
    },
    {
      "anonymous": false,
      "inputs": [
        {
          "indexed": true,
          "internalType": "address",
          "name": "_operator",
          "type": "address"
        },
        {
          "indexed": true,
          "internalType": "address",
          "name": "_from",
          "type": "address"
        },
        {
          "indexed": true,
          "internalType": "address",
          "name": "_to",
          "type": "address"
        },
        {
          "indexed": false,
          "internalType": "uint256[]",
          "name": "_ids",
          "type": "uint256[]"
        },
        {
          "indexed": false,
          "internalType": "uint256[]",
          "name": "_values",
          "type": "uint256[]"
        }
      ],
      "name": "TransferBatch",
      "type": "event"
    },
    {
      "anonymous": false,
      "inputs": [
        {
          "indexed": true,
          "internalType": "address",
          "name": "_operator",
          "type": "address"
        },
        {
          "indexed": true,
          "internalType": "address",
          "name": "_from",
          "type": "address"
        },
        {
          "indexed": true,
          "internalType": "address",
          "name": "_to",
          "type": "address"
        },
        {
          "indexed": false,
          "internalType": "uint256",
          "name": "_id",
          "type": "uint256"
        },
        {
          "indexed": false,
          "internalType": "uint256",
          "name": "_value",
          "type": "uint256"
        }
      ],
      "name": "TransferSingle",
      "type": "event"
    },
    {
      "anonymous": false,
      "inputs": [
        {
          "indexed": false,
          "internalType": "string",
          "name": "_value",
          "type": "string"
        },
        {
          "indexed": true,
          "internalType": "uint256",
          "name": "_id",
          "type": "uint256"
        }
      ],
      "name": "URI",
      "type": "event"
    },
    {
      "anonymous": false,
      "inputs": [
        {
          "indexed": false,
          "internalType": "address",
          "name": "account",
          "type": "address"
        }
      ],
      "name": "Unpaused",
      "type": "event"
    },
    {
      "inputs": [
        {
          "internalType": "address",
          "name": "account",
          "type": "address"
        }
      ],
      "name": "addMinter",
      "outputs": [],
      "stateMutability": "nonpayable",
      "type": "function"
    },
    {
      "inputs": [
        {
          "internalType": "address",
          "name": "owner",
          "type": "address"
        },
        {
          "internalType": "uint256",
          "name": "id",
          "type": "uint256"
        }
      ],
      "name": "balanceOf",
      "outputs": [
        {
          "internalType": "uint256",
          "name": "",
          "type": "uint256"
        }
      ],
      "stateMutability": "view",
      "type": "function"
    },
    {
      "inputs": [
        {
          "internalType": "address[]",
          "name": "owners",
          "type": "address[]"
        },
        {
          "internalType": "uint256[]",
          "name": "ids",
          "type": "uint256[]"
        }
      ],
      "name": "balanceOfBatch",
      "outputs": [
        {
          "internalType": "uint256[]",
          "name": "",
          "type": "uint256[]"
        }
      ],
      "stateMutability": "view",
      "type": "function"
    },
    {
      "inputs": [],
      "name": "baseMetadataURI",
      "outputs": [
        {
          "internalType": "string",
          "name": "",
          "type": "string"
        }
      ],
      "stateMutability": "view",
      "type": "function"
    },
    {
      "inputs": [
        {
          "internalType": "address",
          "name": "from",
          "type": "address"
        },
        {
          "internalType": "uint256[]",
          "name": "ids",
          "type": "uint256[]"
        },
        {
          "internalType": "uint256[]",
          "name": "values",
          "type": "uint256[]"
        }
      ],
      "name": "batchBurnFrom",
      "outputs": [],
      "stateMutability": "nonpayable",
      "type": "function"
    },
    {
      "inputs": [
        {
          "internalType": "address",
          "name": "from",
          "type": "address"
        },
        {
          "internalType": "uint256",
          "name": "id",
          "type": "uint256"
        },
        {
          "internalType": "uint256",
          "name": "value",
          "type": "uint256"
        }
      ],
      "name": "burnFrom",
      "outputs": [],
      "stateMutability": "nonpayable",
      "type": "function"
    },
    {
      "inputs": [
        {
          "internalType": "uint256",
          "name": "nftId",
          "type": "uint256"
        }
      ],
      "name": "collectionOf",
      "outputs": [
        {
          "internalType": "uint256",
          "name": "",
          "type": "uint256"
        }
      ],
      "stateMutability": "pure",
      "type": "function"
    },
    {
      "inputs": [
        {
          "internalType": "uint256",
          "name": "collectionId",
          "type": "uint256"
        }
      ],
      "name": "createCollection",
      "outputs": [],
      "stateMutability": "nonpayable",
      "type": "function"
    },
    {
      "inputs": [
        {
          "internalType": "uint256",
          "name": "collectionId",
          "type": "uint256"
        }
      ],
      "name": "creator",
      "outputs": [
        {
          "internalType": "address",
          "name": "",
          "type": "address"
        }
      ],
      "stateMutability": "view",
      "type": "function"
    },
    {
      "inputs": [
        {
          "internalType": "address",
          "name": "tokenOwner",
          "type": "address"
        },
        {
          "internalType": "address",
          "name": "operator",
          "type": "address"
        }
      ],
      "name": "isApprovedForAll",
      "outputs": [
        {
          "internalType": "bool",
          "name": "",
          "type": "bool"
        }
      ],
      "stateMutability": "view",
      "type": "function"
    },
    {
      "inputs": [
        {
          "internalType": "uint256",
          "name": "id",
          "type": "uint256"
        }
      ],
      "name": "isFungible",
      "outputs": [
        {
          "internalType": "bool",
          "name": "",
          "type": "bool"
        }
      ],
      "stateMutability": "pure",
      "type": "function"
    },
    {
      "inputs": [
        {
          "internalType": "address",
          "name": "",
          "type": "address"
        }
      ],
      "name": "isMinter",
      "outputs": [
        {
          "internalType": "bool",
          "name": "",
          "type": "bool"
        }
      ],
      "stateMutability": "view",
      "type": "function"
    },
    {
      "inputs": [],
      "name": "owner",
      "outputs": [
        {
          "internalType": "address",
          "name": "",
          "type": "address"
        }
      ],
      "stateMutability": "view",
      "type": "function"
    },
    {
      "inputs": [
        {
          "internalType": "uint256",
          "name": "nftId",
          "type": "uint256"
        }
      ],
      "name": "ownerOf",
      "outputs": [
        {
          "internalType": "address",
          "name": "",
          "type": "address"
        }
      ],
      "stateMutability": "view",
      "type": "function"
    },
    {
      "inputs": [],
      "name": "pause",
      "outputs": [],
      "stateMutability": "nonpayable",
      "type": "function"
    },
    {
      "inputs": [],
      "name": "paused",
      "outputs": [
        {
          "internalType": "bool",
          "name": "",
          "type": "bool"
        }
      ],
      "stateMutability": "view",
      "type": "function"
    },
    {
      "inputs": [],
      "name": "renounceMinter",
      "outputs": [],
      "stateMutability": "nonpayable",
      "type": "function"
    },
    {
      "inputs": [
        {
          "internalType": "address",
          "name": "to",
          "type": "address"
        },
        {
          "internalType": "uint256[]",
          "name": "ids",
          "type": "uint256[]"
        },
        {
          "internalType": "uint256[]",
          "name": "values",
          "type": "uint256[]"
        },
        {
          "internalType": "bytes",
          "name": "data",
          "type": "bytes"
        }
      ],
      "name": "safeBatchMint",
      "outputs": [],
      "stateMutability": "nonpayable",
      "type": "function"
    },
    {
      "inputs": [
        {
          "internalType": "address",
          "name": "from",
          "type": "address"
        },
        {
          "internalType": "address",
          "name": "to",
          "type": "address"
        },
        {
          "internalType": "uint256[]",
          "name": "ids",
          "type": "uint256[]"
        },
        {
          "internalType": "uint256[]",
          "name": "values",
          "type": "uint256[]"
        },
        {
          "internalType": "bytes",
          "name": "data",
          "type": "bytes"
        }
      ],
      "name": "safeBatchTransferFrom",
      "outputs": [],
      "stateMutability": "nonpayable",
      "type": "function"
    },
    {
      "inputs": [
        {
          "internalType": "address",
          "name": "to",
          "type": "address"
        },
        {
          "internalType": "uint256",
          "name": "id",
          "type": "uint256"
        },
        {
          "internalType": "uint256",
          "name": "value",
          "type": "uint256"
        },
        {
          "internalType": "bytes",
          "name": "data",
          "type": "bytes"
        }
      ],
      "name": "safeMint",
      "outputs": [],
      "stateMutability": "nonpayable",
      "type": "function"
    },
    {
      "inputs": [
        {
          "internalType": "address",
          "name": "from",
          "type": "address"
        },
        {
          "internalType": "address",
          "name": "to",
          "type": "address"
        },
        {
          "internalType": "uint256",
          "name": "id",
          "type": "uint256"
        },
        {
          "internalType": "uint256",
          "name": "value",
          "type": "uint256"
        },
        {
          "internalType": "bytes",
          "name": "data",
          "type": "bytes"
        }
      ],
      "name": "safeTransferFrom",
      "outputs": [],
      "stateMutability": "nonpayable",
      "type": "function"
    },
    {
      "inputs": [
        {
          "internalType": "address",
          "name": "operator",
          "type": "address"
        },
        {
          "internalType": "bool",
          "name": "approved",
          "type": "bool"
        }
      ],
      "name": "setApprovalForAll",
      "outputs": [],
      "stateMutability": "nonpayable",
      "type": "function"
    },
    {
      "inputs": [
        {
          "internalType": "string",
          "name": "baseMetadataURI_",
          "type": "string"
        }
      ],
      "name": "setBaseMetadataURI",
      "outputs": [],
      "stateMutability": "nonpayable",
      "type": "function"
    },
    {
      "inputs": [
        {
          "internalType": "bytes4",
          "name": "interfaceId",
          "type": "bytes4"
        }
      ],
      "name": "supportsInterface",
      "outputs": [
        {
          "internalType": "bool",
          "name": "",
          "type": "bool"
        }
      ],
      "stateMutability": "view",
      "type": "function"
    },
    {
      "inputs": [
        {
          "internalType": "uint256",
          "name": "id",
          "type": "uint256"
        }
      ],
      "name": "totalSupply",
      "outputs": [
        {
          "internalType": "uint256",
          "name": "",
          "type": "uint256"
        }
      ],
      "stateMutability": "view",
      "type": "function"
    },
    {
      "inputs": [
        {
          "internalType": "address",
          "name": "newOwner",
          "type": "address"
        }
      ],
      "name": "transferOwnership",
      "outputs": [],
      "stateMutability": "nonpayable",
      "type": "function"
    },
    {
      "inputs": [],
      "name": "unpause",
      "outputs": [],
      "stateMutability": "nonpayable",
      "type": "function"
    },
    {
      "inputs": [
        {
          "internalType": "uint256",
          "name": "id",
          "type": "uint256"
        }
      ],
      "name": "uri",
      "outputs": [
        {
          "internalType": "string",
          "name": "",
          "type": "string"
        }
      ],
      "stateMutability": "view",
      "type": "function"
    }
  ],
  "bytecode": "0x60806040523480156200001157600080fd5b50600580546001600160a01b03191633908117909155604051600091908190819084907f8be0079c531659141344cd1fd0a4f28419497f9722a3daafe3b4186f6b6457e0908290a35062000065816200007d565b506008805460ff1916911515919091179055620000c9565b6001600160a01b038116600081815260076020526040808220805460ff19166001179055517f6ae172837ea30b801fbfcdd4108aa1d5bf8ff775444fd70256b44e6bf3dfc3f69190a250565b6134a780620000d96000396000f3fe608060405234801561001057600080fd5b50600436106101c35760003560e01c806380534934116100f9578063adebf6f211610097578063d0011d9d11610071578063d0011d9d14610b5e578063e985e9c514610b7b578063f242432a14610ba9578063f2fde38b14610c74576101c3565b8063adebf6f214610b07578063bd85b03914610b24578063c7778baa14610b41576101c3565b8063983b2d56116100d3578063983b2d5614610a855780639865027514610aab578063a22cb46514610ab3578063aa271e1a14610ae1576101c3565b8063805349341461093e5780638456cb5914610a755780638da5cb5b14610a7d576101c3565b80634e1273f4116101665780635c975abb116101405780635c975abb146107e75780635cfa9297146107ef5780636352211e146108b15780637e518ec8146108ce576101c3565b80634e1273f414610694578063510b5158146107a65780635b2bd79e146107df576101c3565b80630e89341c116101a25780630e89341c14610401578063124d91e5146104935780632eb2c2d6146104c55780633f4ba83a1461068c576101c3565b8062fdd58e146101c857806301ffc9a7146102065780630d6a5bbb14610241575b600080fd5b6101f4600480360360408110156101de57600080fd5b506001600160a01b038135169060200135610c9a565b60408051918252519081900360200190f35b61022d6004803603602081101561021c57600080fd5b50356001600160e01b031916610d65565b604080519115158252519081900360200190f35b6103ff6004803603608081101561025757600080fd5b6001600160a01b03823516919081019060408101602082013564010000000081111561028257600080fd5b82018360208201111561029457600080fd5b803590602001918460208302840111640100000000831117156102b657600080fd5b919080806020026020016040519081016040528093929190818152602001838360200280828437600092019190915250929594936020810193503591505064010000000081111561030657600080fd5b82018360208201111561031857600080fd5b8035906020019184602083028401116401000000008311171561033a57600080fd5b919080806020026020016040519081016040528093929190818152602001838360200280828437600092019190915250929594936020810193503591505064010000000081111561038a57600080fd5b82018360208201111561039c57600080fd5b803590602001918460018302840111640100000000831117156103be57600080fd5b91908080601f016020809104026020016040519081016040528093929190818152602001838380828437600092019190915250929550610ddf945050505050565b005b61041e6004803603602081101561041757600080fd5b5035610e01565b6040805160208082528351818301528351919283929083019185019080838360005b83811015610458578181015183820152602001610440565b50505050905090810190601f1680156104855780820380516001836020036101000a031916815260200191505b509250505060405180910390f35b6103ff600480360360608110156104a957600080fd5b506001600160a01b038135169060208101359060400135610e0c565b6103ff600480360360a08110156104db57600080fd5b6001600160a01b03823581169260208101359091169181019060608101604082013564010000000081111561050f57600080fd5b82018360208201111561052157600080fd5b8035906020019184602083028401116401000000008311171561054357600080fd5b919080806020026020016040519081016040528093929190818152602001838360200280828437600092019190915250929594936020810193503591505064010000000081111561059357600080fd5b8201836020820111156105a557600080fd5b803590602001918460208302840111640100000000831117156105c757600080fd5b919080806020026020016040519081016040528093929190818152602001838360200280828437600092019190915250929594936020810193503591505064010000000081111561061757600080fd5b82018360208201111561062957600080fd5b8035906020019184600183028401116401000000008311171561064b57600080fd5b91908080601f016020809104026020016040519081016040528093929190818152602001838380828437600092019190915250929550610e24945050505050565b6103ff610e40565b610756600480360360408110156106aa57600080fd5b8101906020810181356401000000008111156106c557600080fd5b8201836020820111156106d757600080fd5b803590602001918460208302840111640100000000831117156106f957600080fd5b91939092909160208101903564010000000081111561071757600080fd5b82018360208201111561072957600080fd5b8035906020019184602083028401116401000000008311171561074b57600080fd5b509092509050610e5a565b60408051602080825283518183015283519192839290830191858101910280838360005b8381101561079257818101518382015260200161077a565b505050509050019250505060405180910390f35b6107c3600480360360208110156107bc57600080fd5b5035610f60565b604080516001600160a01b039092168252519081900360200190f35b61041e610f6b565b61022d610ff9565b6103ff6004803603608081101561080557600080fd5b6001600160a01b03823516916020810135916040820135919081019060808101606082013564010000000081111561083c57600080fd5b82018360208201111561084e57600080fd5b8035906020019184600183028401116401000000008311171561087057600080fd5b91908080601f016020809104026020016040519081016040528093929190818152602001838380828437600092019190915250929550611002945050505050565b6107c3600480360360208110156108c757600080fd5b5035611019565b6103ff600480360360208110156108e457600080fd5b8101906020810181356401000000008111156108ff57600080fd5b82018360208201111561091157600080fd5b8035906020019184600183028401116401000000008311171561093357600080fd5b509092509050611083565b6103ff6004803603606081101561095457600080fd5b6001600160a01b03823516919081019060408101602082013564010000000081111561097f57600080fd5b82018360208201111561099157600080fd5b803590602001918460208302840111640100000000831117156109b357600080fd5b9190808060200260200160405190810160405280939291908181526020018383602002808284376000920191909152509295949360208101935035915050640100000000811115610a0357600080fd5b820183602082011115610a1557600080fd5b80359060200191846020830284011164010000000083111715610a3757600080fd5b9190808060200260200160405190810160405280939291908181526020018383602002808284376000920191909152509295506110ff945050505050565b6103ff611112565b6107c3611125565b6103ff60048036036020811015610a9b57600080fd5b50356001600160a01b0316611134565b6103ff61114b565b6103ff60048036036040811015610ac957600080fd5b506001600160a01b03813516906020013515156111a9565b61022d60048036036020811015610af757600080fd5b50356001600160a01b0316611288565b61022d60048036036020811015610b1d57600080fd5b503561129d565b6101f460048036036020811015610b3a57600080fd5b50356112a8565b6101f460048036036020811015610b5757600080fd5b50356112fe565b6103ff60048036036020811015610b7457600080fd5b5035611363565b61022d60048036036040811015610b9157600080fd5b506001600160a01b0381358116916020013516611377565b6103ff600480360360a0811015610bbf57600080fd5b6001600160a01b03823581169260208101359091169160408201359160608101359181019060a081016080820135640100000000811115610bff57600080fd5b820183602082011115610c1157600080fd5b80359060200191846001830284011164010000000083111715610c3357600080fd5b91908080601f0160208091040260200160405190810160405280939291908181526020018383808284376000920191909152509295506113a3945050505050565b6103ff60048036036020811015610c8a57600080fd5b50356001600160a01b03166113b8565b60006001600160a01b038316610cf7576040805162461bcd60e51b815260206004820152601760248201527f496e76656e746f72793a207a65726f2061646472657373000000000000000000604482015290519081900360640190fd5b610d008261142b565b15610d3a576000828152600360205260409020546001600160a01b03848116911614610d2d576000610d30565b60015b60ff169050610d5f565b5060008181526001602090815260408083206001600160a01b03861684529091529020545b92915050565b60006001600160e01b031982167f5190c92c000000000000000000000000000000000000000000000000000000001480610dc857506001600160e01b031982167f510b515800000000000000000000000000000000000000000000000000000000145b80610dd75750610dd78261147d565b90505b919050565b610def610dea6114bb565b6114bf565b610dfb8484848461152c565b50505050565b6060610dd782611894565b610e14611967565b610e1f8383836119bf565b505050565b610e2c611967565b610e398585858585611ac3565b5050505050565b610e50610e4b6114bb565b611ad0565b610e58611b94565b565b6060838214610eb0576040805162461bcd60e51b815260206004820152601e60248201527f496e76656e746f72793a20696e636f6e73697374656e74206172726179730000604482015290519081900360640190fd5b60008467ffffffffffffffff81118015610ec957600080fd5b50604051908082528060200260200182016040528015610ef3578160200160208202803683370190505b50905060005b808614610f5657610f37878783818110610f0f57fe5b905060200201356001600160a01b0316868684818110610f2b57fe5b90506020020135610c9a565b828281518110610f4357fe5b6020908102919091010152600101610ef9565b5095945050505050565b6000610dd782611bec565b6006805460408051602060026001851615610100026000190190941693909304601f81018490048402820184019092528181529291830182828015610ff15780601f10610fc657610100808354040283529160200191610ff1565b820191906000526020600020905b815481529060010190602001808311610fd457829003601f168201915b505050505081565b60085460ff1681565b61100d610dea6114bb565b610dfb84848484611c65565b6000818152600360205260408120546001600160a01b038116610dd7576040805162461bcd60e51b815260206004820152601b60248201527f496e76656e746f72793a206e6f6e2d6578697374696e67204e46540000000000604482015290519081900360640190fd5b61108e610e4b6114bb565b61109a600683836133d0565b507f04b1dc5c136a3ce9fded8db0ce3d3366c58764ec3a8e4c2b9e52e4ddfe5ebbf7828260405180806020018281038252848482818152602001925080828437600083820152604051601f909101601f19169092018290039550909350505050a15050565b611107611967565b610e1f838383611d7a565b61111d610e4b6114bb565b610e5861207c565b6005546001600160a01b031690565b61113f610e4b6114bb565b611148816120ba565b50565b60006111556114bb565b9050611160816114bf565b6001600160a01b038116600081815260076020526040808220805460ff19169055517fe94479a9f7e1952cc78f2d6baab678adc1b772d936c6583def489e524cb666929190a250565b60006111b36114bb565b9050806001600160a01b0316836001600160a01b0316141561121c576040805162461bcd60e51b815260206004820152601860248201527f496e76656e746f72793a2073656c662d617070726f76616c0000000000000000604482015290519081900360640190fd5b6001600160a01b0381811660008181526020818152604080832094881680845294825291829020805460ff1916871515908117909155825190815291517f17307eab39ab6107e8899845ad3d59bd9653f200f220920489ca2b5937696c319281900390910190a3505050565b60076020526000908152604090205460ff1681565b6000610dd782612106565b60006112b38261142b565b156112e9576000828152600360205260409020546001600160a01b0316156112dc5760016112df565b60005b60ff169050610dda565b50600081815260026020526040902054610dda565b60006113098261142b565b61135a576040805162461bcd60e51b815260206004820152601560248201527f496e76656e746f72793a206e6f7420616e204e46540000000000000000000000604482015290519081900360640190fd5b610dd78261212c565b61136e610e4b6114bb565b61114881612139565b6001600160a01b0391821660009081526020818152604080832093909416825291909152205460ff1690565b6113ab611967565b610e398585858585612285565b6113c3610e4b6114bb565b600580547fffffffffffffffffffffffff0000000000000000000000000000000000000000166001600160a01b0383811691821792839055604051919216907f8be0079c531659141344cd1fd0a4f28419497f9722a3daafe3b4186f6b6457e090600090a350565b60007f8000000000000000000000000000000000000000000000000000000000000000821615801590610dd75750507bffffffffffffffffffffffffffffffffffffffffffffffffffffffff16151590565b60006001600160e01b031982167f921ed8d1000000000000000000000000000000000000000000000000000000001480610dd75750610dd78261240b565b3390565b6001600160a01b03811660009081526007602052604090205460ff16611148576040805162461bcd60e51b815260206004820152601860248201527f4d696e746572526f6c653a206e6f742061204d696e7465720000000000000000604482015290519081900360640190fd5b6001600160a01b038416611587576040805162461bcd60e51b815260206004820152601760248201527f496e76656e746f72793a206d696e7420746f207a65726f000000000000000000604482015290519081900360640190fd5b8251825181146115de576040805162461bcd60e51b815260206004820152601e60248201527f496e76656e746f72793a20696e636f6e73697374656e74206172726179730000604482015290519081900360640190fd5b60008060005b83811461174e5760008782815181106115f957fe5b60200260200101519050600087838151811061161157fe5b6020026020010151905061162482612106565b15611639576116348a838361250c565b611744565b6116428261142b565b156116f7576116548a838360016125fe565b600061165f8361212c565b90508561167257809550600194506116f1565b8581146116ea57846001600088815260200190815260200160002060008d6001600160a01b03166001600160a01b0316815260200190815260200160002060008282540192505081905550846002600088815260200190815260200160002060008282540192505081905550809550600194506116f1565b8460010194505b50611744565b6040805162461bcd60e51b815260206004820152601960248201527f496e76656e746f72793a206e6f74206120746f6b656e20696400000000000000604482015290519081900360640190fd5b50506001016115e4565b50811561178e5760008281526001602090815260408083206001600160a01b038b1684528252808320805485019055848352600290915290208054820190555b6001600160a01b03871660006117a26114bb565b6001600160a01b03167f4a39dc06d4c0dbc64b70af90fd698a233a518aa5d07e595d983b8c0526c8f7fb8989604051808060200180602001838103835285818151815260200191508051906020019060200280838360005b838110156118125781810151838201526020016117fa565b50505050905001838103825284818151815260200191508051906020019060200280838360005b83811015611851578181015183820152602001611839565b5050505090500194505050505060405180910390a4611878876001600160a01b031661271f565b1561188b5761188b600088888888612725565b50505050505050565b606060066118a18361292b565b60405160200180838054600181600116156101000203166002900480156118ff5780601f106118dd5761010080835404028352918201916118ff565b820191906000526020600020905b8154815290600101906020018083116118eb575b5050825160208401908083835b6020831061192b5780518252601f19909201916020918201910161190c565b6001836020036101000a038019825116818451168082178552505050505050905001925050506040516020818303038152906040529050919050565b60085460ff1615610e58576040805162461bcd60e51b815260206004820152601060248201527f5061757361626c653a2070617573656400000000000000000000000000000000604482015290519081900360640190fd5b60006119c96114bb565b90506119d58482612a3a565b611a26576040805162461bcd60e51b815260206004820152601e60248201527f496e76656e746f72793a206e6f6e2d617070726f7665642073656e6465720000604482015290519081900360640190fd5b611a2f83612106565b15611a4457611a3f848484612a86565b611a5f565b611a4d8361142b565b156116f757611a3f8484846000612b8f565b60006001600160a01b0316846001600160a01b0316826001600160a01b03167fc3d58168c5ae7397731d063d5bbf3d657854427343f4c083240f7aacaa2d0f628686604051808381526020018281526020019250505060405180910390a450505050565b610e398585858585612cd8565b306001600160a01b0316638da5cb5b6040518163ffffffff1660e01b815260040160206040518083038186803b158015611b0957600080fd5b505afa158015611b1d573d6000803e3d6000fd5b505050506040513d6020811015611b3357600080fd5b50516001600160a01b03828116911614611148576040805162461bcd60e51b815260206004820152601660248201527f4f776e61626c653a206e6f7420746865206f776e657200000000000000000000604482015290519081900360640190fd5b611b9c612fd4565b6008805460ff191690557f5db9ee0a495bf2e6ff9c91a7834c1ba4fdd244a5e8aa4e537bd38aeae4b073aa611bcf6114bb565b604080516001600160a01b039092168252519081900360200190a1565b6000611bf78261142b565b15611c49576040805162461bcd60e51b815260206004820152601b60248201527f496e76656e746f72793a206e6f74206120636f6c6c656374696f6e0000000000604482015290519081900360640190fd5b506000908152600460205260409020546001600160a01b031690565b6001600160a01b038416611cc0576040805162461bcd60e51b815260206004820152601760248201527f496e76656e746f72793a206d696e7420746f207a65726f000000000000000000604482015290519081900360640190fd5b611cc983612106565b15611cde57611cd984848461250c565b611cf9565b611ce78361142b565b156116f757611cd984848460006125fe565b6001600160a01b0384166000611d0d6114bb565b6001600160a01b03167fc3d58168c5ae7397731d063d5bbf3d657854427343f4c083240f7aacaa2d0f628686604051808381526020018281526020019250505060405180910390a4611d67846001600160a01b031661271f565b15610dfb57610dfb60008585858561302b565b815181518114611dd1576040805162461bcd60e51b815260206004820152601e60248201527f496e76656e746f72793a20696e636f6e73697374656e74206172726179730000604482015290519081900360640190fd5b6000611ddb6114bb565b9050611de78582612a3a565b611e38576040805162461bcd60e51b815260206004820152601e60248201527f496e76656e746f72793a206e6f6e2d617070726f7665642073656e6465720000604482015290519081900360640190fd5b60008060005b848114611f57576000878281518110611e5357fe5b602002602001015190506000878381518110611e6b57fe5b60200260200101519050611e7e82612106565b15611e9357611e8e8a8383612a86565b611f4d565b611e9c8261142b565b156116f757611eae8a83836001612b8f565b6000611eb98361212c565b905085611ecc5780955060019450611f4b565b858114611f4457846001600088815260200190815260200160002060008d6001600160a01b03166001600160a01b031681526020019081526020016000206000828254039250508190555084600260008881526020019081526020016000206000828254039250508190555080955060019450611f4b565b8460010194505b505b5050600101611e3e565b508115611f995760008281526001602090815260408083206001600160a01b038b16845282528083208054859003905584835260029091529020805482900390555b60006001600160a01b0316876001600160a01b0316846001600160a01b03167f4a39dc06d4c0dbc64b70af90fd698a233a518aa5d07e595d983b8c0526c8f7fb8989604051808060200180602001838103835285818151815260200191508051906020019060200280838360005b8381101561201f578181015183820152602001612007565b50505050905001838103825284818151815260200191508051906020019060200280838360005b8381101561205e578181015183820152602001612046565b5050505090500194505050505060405180910390a450505050505050565b612084611967565b6008805460ff191660011790557f62e78cea01bee320cd4e420270b5ea74000d11b0c9f74754ebdbfc544b05a258611bcf6114bb565b6001600160a01b038116600081815260076020526040808220805460ff19166001179055517f6ae172837ea30b801fbfcdd4108aa1d5bf8ff775444fd70256b44e6bf3dfc3f69190a250565b7f8000000000000000000000000000000000000000000000000000000000000000161590565b6001600160e01b03191690565b6121428161142b565b15612194576040805162461bcd60e51b815260206004820152601b60248201527f496e76656e746f72793a206e6f74206120636f6c6c656374696f6e0000000000604482015290519081900360640190fd5b6000818152600460205260409020546001600160a01b0316156121fe576040805162461bcd60e51b815260206004820152601e60248201527f496e76656e746f72793a206578697374696e6720636f6c6c656374696f6e0000604482015290519081900360640190fd5b6122066114bb565b600082815260046020526040902080547fffffffffffffffffffffffff0000000000000000000000000000000000000000166001600160a01b039290921691909117905561225381612106565b1515817f4ebf8ad0df535ba5e487bc9cb27fe44120ca81c3a95d3eba79c0bd1df2ab2d5d60405160405180910390a350565b600061228f6114bb565b90506001600160a01b0385166122ec576040805162461bcd60e51b815260206004820152601b60248201527f496e76656e746f72793a207472616e7366657220746f207a65726f0000000000604482015290519081900360640190fd5b6122f68682612a3a565b612347576040805162461bcd60e51b815260206004820152601e60248201527f496e76656e746f72793a206e6f6e2d617070726f7665642073656e6465720000604482015290519081900360640190fd5b61235084612106565b15612366576123618686868661312d565b612382565b61236f8461142b565b156116f75761236186868686600061324b565b846001600160a01b0316866001600160a01b0316826001600160a01b03167fc3d58168c5ae7397731d063d5bbf3d657854427343f4c083240f7aacaa2d0f628787604051808381526020018281526020019250505060405180910390a46123f1856001600160a01b031661271f565b1561240357612403868686868661302b565b505050505050565b60006001600160e01b031982167f01ffc9a700000000000000000000000000000000000000000000000000000000148061246e57506001600160e01b031982167fd9b67a2600000000000000000000000000000000000000000000000000000000145b806124a257506001600160e01b031982167f0e89341c00000000000000000000000000000000000000000000000000000000145b806124d657506001600160e01b031982167f09ce5c4600000000000000000000000000000000000000000000000000000000145b80610dd75750506001600160e01b0319167fbd85b039000000000000000000000000000000000000000000000000000000001490565b8061255e576040805162461bcd60e51b815260206004820152601560248201527f496e76656e746f72793a207a65726f2076616c75650000000000000000000000604482015290519081900360640190fd5b6000828152600260205260409020548181018181116125c4576040805162461bcd60e51b815260206004820152601a60248201527f496e76656e746f72793a20737570706c79206f766572666c6f77000000000000604482015290519081900360640190fd5b600093845260026020908152604080862092909255600181528185206001600160a01b039096168552949094525091902080549091019055565b81600114612653576040805162461bcd60e51b815260206004820152601a60248201527f496e76656e746f72793a2077726f6e67204e46542076616c7565000000000000604482015290519081900360640190fd5b600083815260036020526040902054156126b4576040805162461bcd60e51b815260206004820152601d60248201527f496e76656e746f72793a206578697374696e672f6275726e74204e4654000000604482015290519081900360640190fd5b60008381526003602052604090206001600160a01b038516905580610dfb5760006126de8461212c565b6000908152600260209081526040808320805460019081019091558083528184206001600160a01b038a168552909252909120805490910190555050505050565b3b151590565b7fbc197c81000000000000000000000000000000000000000000000000000000006001600160a01b03851663bc197c8161275d6114bb565b888787876040518663ffffffff1660e01b815260040180866001600160a01b03168152602001856001600160a01b03168152602001806020018060200180602001848103845287818151815260200191508051906020019060200280838360005b838110156127d65781810151838201526020016127be565b50505050905001848103835286818151815260200191508051906020019060200280838360005b838110156128155781810151838201526020016127fd565b50505050905001848103825285818151815260200191508051906020019080838360005b83811015612851578181015183820152602001612839565b50505050905090810190601f16801561287e5780820380516001836020036101000a031916815260200191505b5098505050505050505050602060405180830381600087803b1580156128a357600080fd5b505af11580156128b7573d6000803e3d6000fd5b505050506040513d60208110156128cd57600080fd5b50516001600160e01b03191614610e39576040805162461bcd60e51b815260206004820152601b60248201527f496e76656e746f72793a207472616e7366657220726566757365640000000000604482015290519081900360640190fd5b60608161296c575060408051808201909152600181527f30000000000000000000000000000000000000000000000000000000000000006020820152610dda565b8160005b811561298457600101600a82049150612970565b60008167ffffffffffffffff8111801561299d57600080fd5b506040519080825280601f01601f1916602001820160405280156129c8576020820181803683370190505b50859350905060001982015b8315612a3157600a840660300160f81b828280600190039350815181106129f757fe5b60200101907effffffffffffffffffffffffffffffffffffffffffffffffffffffffffffff1916908160001a905350600a840493506129d4565b50949350505050565b6000816001600160a01b0316836001600160a01b03161480612a7f57506001600160a01b038084166000908152602081815260408083209386168352929052205460ff165b9392505050565b80612ad8576040805162461bcd60e51b815260206004820152601560248201527f496e76656e746f72793a207a65726f2076616c75650000000000000000000000604482015290519081900360640190fd5b60008281526001602090815260408083206001600160a01b038716845290915290205481811015612b50576040805162461bcd60e51b815260206004820152601d60248201527f496e76656e746f72793a206e6f7420656e6f7567682062616c616e6365000000604482015290519081900360640190fd5b60008381526001602090815260408083206001600160a01b03909716835295815285822092849003909255928352600290529190208054919091039055565b81600114612be4576040805162461bcd60e51b815260206004820152601a60248201527f496e76656e746f72793a2077726f6e67204e46542076616c7565000000000000604482015290519081900360640190fd5b6000838152600360205260409020546001600160a01b03858116911614612c52576040805162461bcd60e51b815260206004820152601860248201527f496e76656e746f72793a206e6f6e2d6f776e6564204e46540000000000000000604482015290519081900360640190fd5b60008381526003602052604090207fdead000000000000000000000000000000000000000000000000000000000000905580610dfb576000612c938461212c565b60008181526001602090815260408083206001600160a01b038a1684528252808320805460001990810190915593835260029091529020805490910190555050505050565b6001600160a01b038416612d33576040805162461bcd60e51b815260206004820152601b60248201527f496e76656e746f72793a207472616e7366657220746f207a65726f0000000000604482015290519081900360640190fd5b825182518114612d8a576040805162461bcd60e51b815260206004820152601e60248201527f496e76656e746f72793a20696e636f6e73697374656e74206172726179730000604482015290519081900360640190fd5b6000612d946114bb565b9050612da08782612a3a565b612df1576040805162461bcd60e51b815260206004820152601e60248201527f496e76656e746f72793a206e6f6e2d617070726f7665642073656e6465720000604482015290519081900360640190fd5b60008060005b848114612eb9576000888281518110612e0c57fe5b602002602001015190506000888381518110612e2457fe5b60200260200101519050612e3782612106565b15612e4d57612e488c8c848461312d565b612eaf565b612e568261142b565b156116f757612e698c8c8484600161324b565b6000612e748361212c565b905085612e875780955060019450612ead565b858114612ea657612e9a8d8d888861337c565b80955060019450612ead565b8460010194505b505b5050600101612df7565b508115612ecc57612ecc8989848461337c565b876001600160a01b0316896001600160a01b0316846001600160a01b03167f4a39dc06d4c0dbc64b70af90fd698a233a518aa5d07e595d983b8c0526c8f7fb8a8a604051808060200180602001838103835285818151815260200191508051906020019060200280838360005b83811015612f51578181015183820152602001612f39565b50505050905001838103825284818151815260200191508051906020019060200280838360005b83811015612f90578181015183820152602001612f78565b5050505090500194505050505060405180910390a4612fb7886001600160a01b031661271f565b15612fc957612fc98989898989612725565b505050505050505050565b60085460ff16610e58576040805162461bcd60e51b815260206004820152601460248201527f5061757361626c653a206e6f7420706175736564000000000000000000000000604482015290519081900360640190fd5b7ff23a6e61000000000000000000000000000000000000000000000000000000006001600160a01b03851663f23a6e616130636114bb565b888787876040518663ffffffff1660e01b815260040180866001600160a01b03168152602001856001600160a01b0316815260200184815260200183815260200180602001828103825283818151815260200191508051906020019080838360005b838110156130dd5781810151838201526020016130c5565b50505050905090810190601f16801561310a5780820380516001836020036101000a031916815260200191505b509650505050505050602060405180830381600087803b1580156128a357600080fd5b8061317f576040805162461bcd60e51b815260206004820152601560248201527f496e76656e746f72793a207a65726f2076616c75650000000000000000000000604482015290519081900360640190fd5b60008281526001602090815260408083206001600160a01b0388168452909152902054818110156131f7576040805162461bcd60e51b815260206004820152601d60248201527f496e76656e746f72793a206e6f7420656e6f7567682062616c616e6365000000604482015290519081900360640190fd5b836001600160a01b0316856001600160a01b031614610e395760009283526001602090815260408085206001600160a01b039788168652909152808420918390039091559290931681522080549091019055565b816001146132a0576040805162461bcd60e51b815260206004820152601a60248201527f496e76656e746f72793a2077726f6e67204e46542076616c7565000000000000604482015290519081900360640190fd5b6000838152600360205260409020546001600160a01b0386811691161461330e576040805162461bcd60e51b815260206004820152601860248201527f496e76656e746f72793a206e6f6e2d6f776e6564204e46540000000000000000604482015290519081900360640190fd5b60008381526003602052604090206001600160a01b038516905580610e395760006133388461212c565b60009081526001602081815260408084206001600160a01b039a8b168552909152808320805460001901905596909716815294909420805490950190945550505050565b826001600160a01b0316846001600160a01b031614610dfb5760009182526001602090815260408084206001600160a01b039687168552909152808320805483900390559290931681522080549091019055565b828054600181600116156101000203166002900490600052602060002090601f016020900481019282613406576000855561344c565b82601f1061341f5782800160ff1982351617855561344c565b8280016001018555821561344c579182015b8281111561344c578235825591602001919060010190613431565b5061345892915061345c565b5090565b5b80821115613458576000815560010161345d56fea2646970667358221220210e5d5c7c8a885eff714ffbf535589b3f3a3cb1c91ee94542610c42173cd0d364736f6c63430007060033",
  "linkReferences": {},
  "deployedLinkReferences": {}
}