{
  "_format": "hh-sol-artifact-1",
  "contractName": "TokenLaunchpadVouchers",
  "sourceName": "contracts/token/ERC1155/TokenLaunchpadVouchers.sol",
  "abi": [
    {
      "inputs": [
        {
          "internalType": "contract IForwarderRegistry",
          "name": "forwarderRegistry",
          "type": "address"
        },
        {
          "internalType": "address",
          "name": "universalForwarder",
          "type": "address"
        }
      ],
      "stateMutability": "nonpayable",
      "type": "constructor"
    },
    {
      "anonymous": false,
      "inputs": [
        {
          "indexed": true,
          "internalType": "address",
          "name": "_owner",
          "type": "address"
        },
        {
          "indexed": true,
          "internalType": "address",
          "name": "_operator",
          "type": "address"
        },
        {
          "indexed": false,
          "internalType": "bool",
          "name": "_approved",
          "type": "bool"
        }
      ],
      "name": "ApprovalForAll",
      "type": "event"
    },
    {
      "anonymous": false,
      "inputs": [
        {
          "indexed": false,
          "internalType": "string",
          "name": "baseMetadataURI",
          "type": "string"
        }
      ],
      "name": "BaseMetadataURISet",
      "type": "event"
    },
    {
      "anonymous": false,
      "inputs": [
        {
          "indexed": true,
          "internalType": "uint256",
          "name": "collectionId",
          "type": "uint256"
        },
        {
          "indexed": true,
          "internalType": "bool",
          "name": "fungible",
          "type": "bool"
        }
      ],
      "name": "CollectionCreated",
      "type": "event"
    },
    {
      "anonymous": false,
      "inputs": [
        {
          "indexed": true,
          "internalType": "address",
          "name": "account",
          "type": "address"
        }
      ],
      "name": "MinterAdded",
      "type": "event"
    },
    {
      "anonymous": false,
      "inputs": [
        {
          "indexed": true,
          "internalType": "address",
          "name": "account",
          "type": "address"
        }
      ],
      "name": "MinterRemoved",
      "type": "event"
    },
    {
      "anonymous": false,
      "inputs": [
        {
          "indexed": true,
          "internalType": "address",
          "name": "previousOwner",
          "type": "address"
        },
        {
          "indexed": true,
          "internalType": "address",
          "name": "newOwner",
          "type": "address"
        }
      ],
      "name": "OwnershipTransferred",
      "type": "event"
    },
    {
      "anonymous": false,
      "inputs": [
        {
          "indexed": false,
          "internalType": "address",
          "name": "account",
          "type": "address"
        }
      ],
      "name": "Paused",
      "type": "event"
    },
    {
      "anonymous": false,
      "inputs": [
        {
          "indexed": true,
          "internalType": "address",
          "name": "_operator",
          "type": "address"
        },
        {
          "indexed": true,
          "internalType": "address",
          "name": "_from",
          "type": "address"
        },
        {
          "indexed": true,
          "internalType": "address",
          "name": "_to",
          "type": "address"
        },
        {
          "indexed": false,
          "internalType": "uint256[]",
          "name": "_ids",
          "type": "uint256[]"
        },
        {
          "indexed": false,
          "internalType": "uint256[]",
          "name": "_values",
          "type": "uint256[]"
        }
      ],
      "name": "TransferBatch",
      "type": "event"
    },
    {
      "anonymous": false,
      "inputs": [
        {
          "indexed": true,
          "internalType": "address",
          "name": "_operator",
          "type": "address"
        },
        {
          "indexed": true,
          "internalType": "address",
          "name": "_from",
          "type": "address"
        },
        {
          "indexed": true,
          "internalType": "address",
          "name": "_to",
          "type": "address"
        },
        {
          "indexed": false,
          "internalType": "uint256",
          "name": "_id",
          "type": "uint256"
        },
        {
          "indexed": false,
          "internalType": "uint256",
          "name": "_value",
          "type": "uint256"
        }
      ],
      "name": "TransferSingle",
      "type": "event"
    },
    {
      "anonymous": false,
      "inputs": [
        {
          "indexed": false,
          "internalType": "string",
          "name": "_value",
          "type": "string"
        },
        {
          "indexed": true,
          "internalType": "uint256",
          "name": "_id",
          "type": "uint256"
        }
      ],
      "name": "URI",
      "type": "event"
    },
    {
      "anonymous": false,
      "inputs": [
        {
          "indexed": false,
          "internalType": "address",
          "name": "account",
          "type": "address"
        }
      ],
      "name": "Unpaused",
      "type": "event"
    },
    {
      "inputs": [
        {
          "internalType": "address",
          "name": "account",
          "type": "address"
        }
      ],
      "name": "addMinter",
      "outputs": [],
      "stateMutability": "nonpayable",
      "type": "function"
    },
    {
      "inputs": [
        {
          "internalType": "address",
          "name": "owner",
          "type": "address"
        },
        {
          "internalType": "uint256",
          "name": "id",
          "type": "uint256"
        }
      ],
      "name": "balanceOf",
      "outputs": [
        {
          "internalType": "uint256",
          "name": "",
          "type": "uint256"
        }
      ],
      "stateMutability": "view",
      "type": "function"
    },
    {
      "inputs": [
        {
          "internalType": "address[]",
          "name": "owners",
          "type": "address[]"
        },
        {
          "internalType": "uint256[]",
          "name": "ids",
          "type": "uint256[]"
        }
      ],
      "name": "balanceOfBatch",
      "outputs": [
        {
          "internalType": "uint256[]",
          "name": "",
          "type": "uint256[]"
        }
      ],
      "stateMutability": "view",
      "type": "function"
    },
    {
      "inputs": [],
      "name": "baseMetadataURI",
      "outputs": [
        {
          "internalType": "string",
          "name": "",
          "type": "string"
        }
      ],
      "stateMutability": "view",
      "type": "function"
    },
    {
      "inputs": [
        {
          "internalType": "address",
          "name": "from",
          "type": "address"
        },
        {
          "internalType": "uint256[]",
          "name": "ids",
          "type": "uint256[]"
        },
        {
          "internalType": "uint256[]",
          "name": "values",
          "type": "uint256[]"
        }
      ],
      "name": "batchBurnFrom",
      "outputs": [],
      "stateMutability": "nonpayable",
      "type": "function"
    },
    {
      "inputs": [
        {
          "internalType": "address",
          "name": "from",
          "type": "address"
        },
        {
          "internalType": "uint256",
          "name": "id",
          "type": "uint256"
        },
        {
          "internalType": "uint256",
          "name": "value",
          "type": "uint256"
        }
      ],
      "name": "burnFrom",
      "outputs": [],
      "stateMutability": "nonpayable",
      "type": "function"
    },
    {
      "inputs": [
        {
          "internalType": "uint256",
          "name": "nftId",
          "type": "uint256"
        }
      ],
      "name": "collectionOf",
      "outputs": [
        {
          "internalType": "uint256",
          "name": "",
          "type": "uint256"
        }
      ],
      "stateMutability": "pure",
      "type": "function"
    },
    {
      "inputs": [
        {
          "internalType": "uint256",
          "name": "collectionId",
          "type": "uint256"
        }
      ],
      "name": "createCollection",
      "outputs": [],
      "stateMutability": "nonpayable",
      "type": "function"
    },
    {
      "inputs": [
        {
          "internalType": "uint256",
          "name": "collectionId",
          "type": "uint256"
        }
      ],
      "name": "creator",
      "outputs": [
        {
          "internalType": "address",
          "name": "",
          "type": "address"
        }
      ],
      "stateMutability": "view",
      "type": "function"
    },
    {
      "inputs": [
        {
          "internalType": "address",
          "name": "tokenOwner",
          "type": "address"
        },
        {
          "internalType": "address",
          "name": "operator",
          "type": "address"
        }
      ],
      "name": "isApprovedForAll",
      "outputs": [
        {
          "internalType": "bool",
          "name": "",
          "type": "bool"
        }
      ],
      "stateMutability": "view",
      "type": "function"
    },
    {
      "inputs": [
        {
          "internalType": "uint256",
          "name": "id",
          "type": "uint256"
        }
      ],
      "name": "isFungible",
      "outputs": [
        {
          "internalType": "bool",
          "name": "",
          "type": "bool"
        }
      ],
      "stateMutability": "pure",
      "type": "function"
    },
    {
      "inputs": [
        {
          "internalType": "address",
          "name": "",
          "type": "address"
        }
      ],
      "name": "isMinter",
      "outputs": [
        {
          "internalType": "bool",
          "name": "",
          "type": "bool"
        }
      ],
      "stateMutability": "view",
      "type": "function"
    },
    {
      "inputs": [
        {
          "internalType": "address",
          "name": "forwarder",
          "type": "address"
        }
      ],
      "name": "isTrustedForwarder",
      "outputs": [
        {
          "internalType": "bool",
          "name": "",
          "type": "bool"
        }
      ],
      "stateMutability": "view",
      "type": "function"
    },
    {
      "inputs": [],
      "name": "owner",
      "outputs": [
        {
          "internalType": "address",
          "name": "",
          "type": "address"
        }
      ],
      "stateMutability": "view",
      "type": "function"
    },
    {
      "inputs": [
        {
          "internalType": "uint256",
          "name": "nftId",
          "type": "uint256"
        }
      ],
      "name": "ownerOf",
      "outputs": [
        {
          "internalType": "address",
          "name": "",
          "type": "address"
        }
      ],
      "stateMutability": "view",
      "type": "function"
    },
    {
      "inputs": [],
      "name": "pause",
      "outputs": [],
      "stateMutability": "nonpayable",
      "type": "function"
    },
    {
      "inputs": [],
      "name": "paused",
      "outputs": [
        {
          "internalType": "bool",
          "name": "",
          "type": "bool"
        }
      ],
      "stateMutability": "view",
      "type": "function"
    },
    {
      "inputs": [
        {
          "internalType": "address[]",
          "name": "accounts",
          "type": "address[]"
        },
        {
          "internalType": "address[]",
          "name": "tokens",
          "type": "address[]"
        },
        {
          "internalType": "uint256[]",
          "name": "amounts",
          "type": "uint256[]"
        }
      ],
      "name": "recoverERC20s",
      "outputs": [],
      "stateMutability": "nonpayable",
      "type": "function"
    },
    {
      "inputs": [
        {
          "internalType": "address[]",
          "name": "accounts",
          "type": "address[]"
        },
        {
          "internalType": "address[]",
          "name": "contracts",
          "type": "address[]"
        },
        {
          "internalType": "uint256[]",
          "name": "tokenIds",
          "type": "uint256[]"
        }
      ],
      "name": "recoverERC721s",
      "outputs": [],
      "stateMutability": "nonpayable",
      "type": "function"
    },
    {
      "inputs": [],
      "name": "renounceMinter",
      "outputs": [],
      "stateMutability": "nonpayable",
      "type": "function"
    },
    {
      "inputs": [
        {
          "internalType": "address",
          "name": "to",
          "type": "address"
        },
        {
          "internalType": "uint256[]",
          "name": "ids",
          "type": "uint256[]"
        },
        {
          "internalType": "uint256[]",
          "name": "values",
          "type": "uint256[]"
        },
        {
          "internalType": "bytes",
          "name": "data",
          "type": "bytes"
        }
      ],
      "name": "safeBatchMint",
      "outputs": [],
      "stateMutability": "nonpayable",
      "type": "function"
    },
    {
      "inputs": [
        {
          "internalType": "address",
          "name": "from",
          "type": "address"
        },
        {
          "internalType": "address",
          "name": "to",
          "type": "address"
        },
        {
          "internalType": "uint256[]",
          "name": "ids",
          "type": "uint256[]"
        },
        {
          "internalType": "uint256[]",
          "name": "values",
          "type": "uint256[]"
        },
        {
          "internalType": "bytes",
          "name": "data",
          "type": "bytes"
        }
      ],
      "name": "safeBatchTransferFrom",
      "outputs": [],
      "stateMutability": "nonpayable",
      "type": "function"
    },
    {
      "inputs": [
        {
          "internalType": "address",
          "name": "to",
          "type": "address"
        },
        {
          "internalType": "uint256",
          "name": "id",
          "type": "uint256"
        },
        {
          "internalType": "uint256",
          "name": "value",
          "type": "uint256"
        },
        {
          "internalType": "bytes",
          "name": "data",
          "type": "bytes"
        }
      ],
      "name": "safeMint",
      "outputs": [],
      "stateMutability": "nonpayable",
      "type": "function"
    },
    {
      "inputs": [
        {
          "internalType": "address",
          "name": "from",
          "type": "address"
        },
        {
          "internalType": "address",
          "name": "to",
          "type": "address"
        },
        {
          "internalType": "uint256",
          "name": "id",
          "type": "uint256"
        },
        {
          "internalType": "uint256",
          "name": "value",
          "type": "uint256"
        },
        {
          "internalType": "bytes",
          "name": "data",
          "type": "bytes"
        }
      ],
      "name": "safeTransferFrom",
      "outputs": [],
      "stateMutability": "nonpayable",
      "type": "function"
    },
    {
      "inputs": [
        {
          "internalType": "address",
          "name": "operator",
          "type": "address"
        },
        {
          "internalType": "bool",
          "name": "approved",
          "type": "bool"
        }
      ],
      "name": "setApprovalForAll",
      "outputs": [],
      "stateMutability": "nonpayable",
      "type": "function"
    },
    {
      "inputs": [
        {
          "internalType": "string",
          "name": "baseMetadataURI_",
          "type": "string"
        }
      ],
      "name": "setBaseMetadataURI",
      "outputs": [],
      "stateMutability": "nonpayable",
      "type": "function"
    },
    {
      "inputs": [
        {
          "internalType": "bytes4",
          "name": "interfaceId",
          "type": "bytes4"
        }
      ],
      "name": "supportsInterface",
      "outputs": [
        {
          "internalType": "bool",
          "name": "",
          "type": "bool"
        }
      ],
      "stateMutability": "view",
      "type": "function"
    },
    {
      "inputs": [
        {
          "internalType": "uint256",
          "name": "id",
          "type": "uint256"
        }
      ],
      "name": "totalSupply",
      "outputs": [
        {
          "internalType": "uint256",
          "name": "",
          "type": "uint256"
        }
      ],
      "stateMutability": "view",
      "type": "function"
    },
    {
      "inputs": [
        {
          "internalType": "address",
          "name": "newOwner",
          "type": "address"
        }
      ],
      "name": "transferOwnership",
      "outputs": [],
      "stateMutability": "nonpayable",
      "type": "function"
    },
    {
      "inputs": [],
      "name": "unpause",
      "outputs": [],
      "stateMutability": "nonpayable",
      "type": "function"
    },
    {
      "inputs": [
        {
          "internalType": "uint256",
          "name": "id",
          "type": "uint256"
        }
      ],
      "name": "uri",
      "outputs": [
        {
          "internalType": "string",
          "name": "",
          "type": "string"
        }
      ],
      "stateMutability": "view",
      "type": "function"
    }
  ],
  "bytecode": "0x60c06040523480156200001157600080fd5b5060405162003edb38038062003edb833981810160405260408110156200003757600080fd5b508051602090910151600580546001600160a01b0319163390811790915560405183918391600091908190819084907f8be0079c531659141344cd1fd0a4f28419497f9722a3daafe3b4186f6b6457e0908290a3506200009781620000cd565b506008805460ff1916911515919091179055606090811b6001600160601b031990811660a05291901b1660805250620001199050565b6001600160a01b038116600081815260076020526040808220805460ff19166001179055517f6ae172837ea30b801fbfcdd4108aa1d5bf8ff775444fd70256b44e6bf3dfc3f69190a250565b60805160601c60a05160601c613d8962000152600039806111aa5280612acc5250806111e55280612a915280612b245250613d896000f3fe608060405234801561001057600080fd5b50600436106101e45760003560e01c80637e518ec81161010f578063adebf6f2116100a2578063d0011d9d11610071578063d0011d9d14610dcd578063e985e9c514610dea578063f242432a14610e18578063f2fde38b14610ee3576101e4565b8063adebf6f214610c62578063bd85b03914610c7f578063c3666c3614610c9c578063c7778baa14610db0576101e4565b8063983b2d56116100de578063983b2d5614610be05780639865027514610c06578063a22cb46514610c0e578063aa271e1a14610c3c576101e4565b80637e518ec814610a295780638053493414610a995780638456cb5914610bd05780638da5cb5b14610bd8576101e4565b80634e1273f4116101875780635c975abb116101565780635c975abb1461082e5780635cfa9297146108365780636352211e146108f857806373c8a95814610915576101e4565b80634e1273f4146106b5578063510b5158146107c7578063572b6c05146108005780635b2bd79e14610826576101e4565b80630e89341c116101c35780630e89341c14610422578063124d91e5146104b45780632eb2c2d6146104e65780633f4ba83a146106ad576101e4565b8062fdd58e146101e957806301ffc9a7146102275780630d6a5bbb14610262575b600080fd5b610215600480360360408110156101ff57600080fd5b506001600160a01b038135169060200135610f09565b60408051918252519081900360200190f35b61024e6004803603602081101561023d57600080fd5b50356001600160e01b031916610fd4565b604080519115158252519081900360200190f35b6104206004803603608081101561027857600080fd5b6001600160a01b0382351691908101906040810160208201356401000000008111156102a357600080fd5b8201836020820111156102b557600080fd5b803590602001918460208302840111640100000000831117156102d757600080fd5b919080806020026020016040519081016040528093929190818152602001838360200280828437600092019190915250929594936020810193503591505064010000000081111561032757600080fd5b82018360208201111561033957600080fd5b8035906020019184602083028401116401000000008311171561035b57600080fd5b91908080602002602001604051908101604052809392919081815260200183836020028082843760009201919091525092959493602081019350359150506401000000008111156103ab57600080fd5b8201836020820111156103bd57600080fd5b803590602001918460018302840111640100000000831117156103df57600080fd5b91908080601f01602080910402602001604051908101604052809392919081815260200183838082843760009201919091525092955061101a945050505050565b005b61043f6004803603602081101561043857600080fd5b503561103c565b6040805160208082528351818301528351919283929083019185019080838360005b83811015610479578181015183820152602001610461565b50505050905090810190601f1680156104a65780820380516001836020036101000a031916815260200191505b509250505060405180910390f35b610420600480360360608110156104ca57600080fd5b506001600160a01b038135169060208101359060400135611047565b610420600480360360a08110156104fc57600080fd5b6001600160a01b03823581169260208101359091169181019060608101604082013564010000000081111561053057600080fd5b82018360208201111561054257600080fd5b8035906020019184602083028401116401000000008311171561056457600080fd5b91908080602002602001604051908101604052809392919081815260200183836020028082843760009201919091525092959493602081019350359150506401000000008111156105b457600080fd5b8201836020820111156105c657600080fd5b803590602001918460208302840111640100000000831117156105e857600080fd5b919080806020026020016040519081016040528093929190818152602001838360200280828437600092019190915250929594936020810193503591505064010000000081111561063857600080fd5b82018360208201111561064a57600080fd5b8035906020019184600183028401116401000000008311171561066c57600080fd5b91908080601f01602080910402602001604051908101604052809392919081815260200183838082843760009201919091525092955061105f945050505050565b61042061107b565b610777600480360360408110156106cb57600080fd5b8101906020810181356401000000008111156106e657600080fd5b8201836020820111156106f857600080fd5b8035906020019184602083028401116401000000008311171561071a57600080fd5b91939092909160208101903564010000000081111561073857600080fd5b82018360208201111561074a57600080fd5b8035906020019184602083028401116401000000008311171561076c57600080fd5b509092509050611095565b60408051602080825283518183015283519192839290830191858101910280838360005b838110156107b357818101518382015260200161079b565b505050509050019250505060405180910390f35b6107e4600480360360208110156107dd57600080fd5b503561119b565b604080516001600160a01b039092168252519081900360200190f35b61024e6004803603602081101561081657600080fd5b50356001600160a01b03166111a6565b61043f61121f565b61024e6112ad565b6104206004803603608081101561084c57600080fd5b6001600160a01b03823516916020810135916040820135919081019060808101606082013564010000000081111561088357600080fd5b82018360208201111561089557600080fd5b803590602001918460018302840111640100000000831117156108b757600080fd5b91908080601f0160208091040260200160405190810160405280939291908181526020018383808284376000920191909152509295506112b6945050505050565b6107e46004803603602081101561090e57600080fd5b50356112cd565b6104206004803603606081101561092b57600080fd5b81019060208101813564010000000081111561094657600080fd5b82018360208201111561095857600080fd5b8035906020019184602083028401116401000000008311171561097a57600080fd5b91939092909160208101903564010000000081111561099857600080fd5b8201836020820111156109aa57600080fd5b803590602001918460208302840111640100000000831117156109cc57600080fd5b9193909290916020810190356401000000008111156109ea57600080fd5b8201836020820111156109fc57600080fd5b80359060200191846020830284011164010000000083111715610a1e57600080fd5b509092509050611337565b61042060048036036020811015610a3f57600080fd5b810190602081018135640100000000811115610a5a57600080fd5b820183602082011115610a6c57600080fd5b80359060200191846001830284011164010000000083111715610a8e57600080fd5b509092509050611424565b61042060048036036060811015610aaf57600080fd5b6001600160a01b038235169190810190604081016020820135640100000000811115610ada57600080fd5b820183602082011115610aec57600080fd5b80359060200191846020830284011164010000000083111715610b0e57600080fd5b9190808060200260200160405190810160405280939291908181526020018383602002808284376000920191909152509295949360208101935035915050640100000000811115610b5e57600080fd5b820183602082011115610b7057600080fd5b80359060200191846020830284011164010000000083111715610b9257600080fd5b9190808060200260200160405190810160405280939291908181526020018383602002808284376000920191909152509295506114a0945050505050565b6104206114b3565b6107e46114c6565b61042060048036036020811015610bf657600080fd5b50356001600160a01b03166114d6565b6104206114ed565b61042060048036036040811015610c2457600080fd5b506001600160a01b038135169060200135151561154b565b61024e60048036036020811015610c5257600080fd5b50356001600160a01b031661162a565b61024e60048036036020811015610c7857600080fd5b503561163f565b61021560048036036020811015610c9557600080fd5b503561164a565b61042060048036036060811015610cb257600080fd5b810190602081018135640100000000811115610ccd57600080fd5b820183602082011115610cdf57600080fd5b80359060200191846020830284011164010000000083111715610d0157600080fd5b919390929091602081019035640100000000811115610d1f57600080fd5b820183602082011115610d3157600080fd5b80359060200191846020830284011164010000000083111715610d5357600080fd5b919390929091602081019035640100000000811115610d7157600080fd5b820183602082011115610d8357600080fd5b80359060200191846020830284011164010000000083111715610da557600080fd5b5090925090506116a0565b61021560048036036020811015610dc657600080fd5b50356117e8565b61042060048036036020811015610de357600080fd5b503561184d565b61024e60048036036040811015610e0057600080fd5b506001600160a01b0381358116916020013516611861565b610420600480360360a0811015610e2e57600080fd5b6001600160a01b03823581169260208101359091169160408201359160608101359181019060a081016080820135640100000000811115610e6e57600080fd5b820183602082011115610e8057600080fd5b80359060200191846001830284011164010000000083111715610ea257600080fd5b91908080601f01602080910402602001604051908101604052809392919081815260200183838082843760009201919091525092955061188d945050505050565b61042060048036036020811015610ef957600080fd5b50356001600160a01b03166118a2565b60006001600160a01b038316610f66576040805162461bcd60e51b815260206004820152601760248201527f496e76656e746f72793a207a65726f2061646472657373000000000000000000604482015290519081900360640190fd5b610f6f82611915565b15610fa9576000828152600360205260409020546001600160a01b03848116911614610f9c576000610f9f565b60015b60ff169050610fce565b5060008181526001602090815260408083206001600160a01b03861684529091529020545b92915050565b60006001600160e01b031982167f510b5158000000000000000000000000000000000000000000000000000000001480611012575061101282611967565b90505b919050565b61102a6110256119a5565b6119b4565b61103684848484611a21565b50505050565b606061101282611d89565b61104f611e5c565b61105a838383611eb4565b505050565b611067611e5c565b6110748585858585611fb8565b5050505050565b61108b6110866119a5565b611fc5565b611093612089565b565b60608382146110eb576040805162461bcd60e51b815260206004820152601e60248201527f496e76656e746f72793a20696e636f6e73697374656e74206172726179730000604482015290519081900360640190fd5b60008467ffffffffffffffff8111801561110457600080fd5b5060405190808252806020026020018201604052801561112e578160200160208202803683370190505b50905060005b8086146111915761117287878381811061114a57fe5b905060200201356001600160a01b031686868481811061116657fe5b90506020020135610f09565b82828151811061117e57fe5b6020908102919091010152600101611134565b5095945050505050565b6000611012826120e1565b60007f00000000000000000000000000000000000000000000000000000000000000006001600160a01b0316826001600160a01b0316148061101257507f00000000000000000000000000000000000000000000000000000000000000006001600160a01b0316826001600160a01b0316149050919050565b6006805460408051602060026001851615610100026000190190941693909304601f810184900484028201840190925281815292918301828280156112a55780601f1061127a576101008083540402835291602001916112a5565b820191906000526020600020905b81548152906001019060200180831161128857829003601f168201915b505050505081565b60085460ff1681565b6112c16110256119a5565b6110368484848461215a565b6000818152600360205260408120546001600160a01b038116611012576040805162461bcd60e51b815260206004820152601b60248201527f496e76656e746f72793a206e6f6e2d6578697374696e67204e46540000000000604482015290519081900360640190fd5b6113426110866119a5565b84838114801561135157508082145b6113a2576040805162461bcd60e51b815260206004820152601a60248201527f5265636f763a20696e636f6e73697374656e7420617272617973000000000000604482015290519081900360640190fd5b60005b81811461141a576114128888838181106113bb57fe5b905060200201356001600160a01b03168585848181106113d757fe5b905060200201358888858181106113ea57fe5b905060200201356001600160a01b03166001600160a01b031661226f9092919063ffffffff16565b6001016113a5565b5050505050505050565b61142f6110866119a5565b61143b60068383613cb2565b507f04b1dc5c136a3ce9fded8db0ce3d3366c58764ec3a8e4c2b9e52e4ddfe5ebbf7828260405180806020018281038252848482818152602001925080828437600083820152604051601f909101601f19169092018290039550909350505050a15050565b6114a8611e5c565b61105a8383836122ef565b6114be6110866119a5565b6110936125f1565b6005546001600160a01b03165b90565b6114e16110866119a5565b6114ea8161262f565b50565b60006114f76119a5565b9050611502816119b4565b6001600160a01b038116600081815260076020526040808220805460ff19169055517fe94479a9f7e1952cc78f2d6baab678adc1b772d936c6583def489e524cb666929190a250565b60006115556119a5565b9050806001600160a01b0316836001600160a01b031614156115be576040805162461bcd60e51b815260206004820152601860248201527f496e76656e746f72793a2073656c662d617070726f76616c0000000000000000604482015290519081900360640190fd5b6001600160a01b0381811660008181526020818152604080832094881680845294825291829020805460ff1916871515908117909155825190815291517f17307eab39ab6107e8899845ad3d59bd9653f200f220920489ca2b5937696c319281900390910190a3505050565b60076020526000908152604090205460ff1681565b60006110128261267b565b600061165582611915565b1561168b576000828152600360205260409020546001600160a01b03161561167e576001611681565b60005b60ff169050611015565b50600081815260026020526040902054611015565b6116ab6110866119a5565b8483811480156116ba57508082145b61170b576040805162461bcd60e51b815260206004820152601a60248201527f5265636f763a20696e636f6e73697374656e7420617272617973000000000000604482015290519081900360640190fd5b60005b81811461141a5785858281811061172157fe5b905060200201356001600160a01b03166001600160a01b03166323b872dd308a8a8581811061174c57fe5b905060200201356001600160a01b031687878681811061176857fe5b905060200201356040518463ffffffff1660e01b815260040180846001600160a01b03168152602001836001600160a01b031681526020018281526020019350505050600060405180830381600087803b1580156117c557600080fd5b505af11580156117d9573d6000803e3d6000fd5b5050505080600101905061170e565b60006117f382611915565b611844576040805162461bcd60e51b815260206004820152601560248201527f496e76656e746f72793a206e6f7420616e204e46540000000000000000000000604482015290519081900360640190fd5b611012826126a1565b6118586110866119a5565b6114ea816126ae565b6001600160a01b0391821660009081526020818152604080832093909416825291909152205460ff1690565b611895611e5c565b61107485858585856127fa565b6118ad6110866119a5565b600580547fffffffffffffffffffffffff0000000000000000000000000000000000000000166001600160a01b0383811691821792839055604051919216907f8be0079c531659141344cd1fd0a4f28419497f9722a3daafe3b4186f6b6457e090600090a350565b60007f80000000000000000000000000000000000000000000000000000000000000008216158015906110125750507bffffffffffffffffffffffffffffffffffffffffffffffffffffffff16151590565b60006001600160e01b031982167f921ed8d1000000000000000000000000000000000000000000000000000000001480611012575061101282612980565b60006119af612a81565b905090565b6001600160a01b03811660009081526007602052604090205460ff166114ea576040805162461bcd60e51b815260206004820152601860248201527f4d696e746572526f6c653a206e6f742061204d696e7465720000000000000000604482015290519081900360640190fd5b6001600160a01b038416611a7c576040805162461bcd60e51b815260206004820152601760248201527f496e76656e746f72793a206d696e7420746f207a65726f000000000000000000604482015290519081900360640190fd5b825182518114611ad3576040805162461bcd60e51b815260206004820152601e60248201527f496e76656e746f72793a20696e636f6e73697374656e74206172726179730000604482015290519081900360640190fd5b60008060005b838114611c43576000878281518110611aee57fe5b602002602001015190506000878381518110611b0657fe5b60200260200101519050611b198261267b565b15611b2e57611b298a8383612be1565b611c39565b611b3782611915565b15611bec57611b498a83836001612cd3565b6000611b54836126a1565b905085611b675780955060019450611be6565b858114611bdf57846001600088815260200190815260200160002060008d6001600160a01b03166001600160a01b031681526020019081526020016000206000828254019250508190555084600260008881526020019081526020016000206000828254019250508190555080955060019450611be6565b8460010194505b50611c39565b6040805162461bcd60e51b815260206004820152601960248201527f496e76656e746f72793a206e6f74206120746f6b656e20696400000000000000604482015290519081900360640190fd5b5050600101611ad9565b508115611c835760008281526001602090815260408083206001600160a01b038b1684528252808320805485019055848352600290915290208054820190555b6001600160a01b0387166000611c976119a5565b6001600160a01b03167f4a39dc06d4c0dbc64b70af90fd698a233a518aa5d07e595d983b8c0526c8f7fb8989604051808060200180602001838103835285818151815260200191508051906020019060200280838360005b83811015611d07578181015183820152602001611cef565b50505050905001838103825284818151815260200191508051906020019060200280838360005b83811015611d46578181015183820152602001611d2e565b5050505090500194505050505060405180910390a4611d6d876001600160a01b0316612df4565b15611d8057611d80600088888888612dfa565b50505050505050565b60606006611d9683613000565b6040516020018083805460018160011615610100020316600290048015611df45780601f10611dd2576101008083540402835291820191611df4565b820191906000526020600020905b815481529060010190602001808311611de0575b5050825160208401908083835b60208310611e205780518252601f199092019160209182019101611e01565b6001836020036101000a038019825116818451168082178552505050505050905001925050506040516020818303038152906040529050919050565b60085460ff1615611093576040805162461bcd60e51b815260206004820152601060248201527f5061757361626c653a2070617573656400000000000000000000000000000000604482015290519081900360640190fd5b6000611ebe6119a5565b9050611eca848261310f565b611f1b576040805162461bcd60e51b815260206004820152601e60248201527f496e76656e746f72793a206e6f6e2d617070726f7665642073656e6465720000604482015290519081900360640190fd5b611f248361267b565b15611f3957611f3484848461315b565b611f54565b611f4283611915565b15611bec57611f348484846000613264565b60006001600160a01b0316846001600160a01b0316826001600160a01b03167fc3d58168c5ae7397731d063d5bbf3d657854427343f4c083240f7aacaa2d0f628686604051808381526020018281526020019250505060405180910390a450505050565b61107485858585856133ad565b306001600160a01b0316638da5cb5b6040518163ffffffff1660e01b815260040160206040518083038186803b158015611ffe57600080fd5b505afa158015612012573d6000803e3d6000fd5b505050506040513d602081101561202857600080fd5b50516001600160a01b038281169116146114ea576040805162461bcd60e51b815260206004820152601660248201527f4f776e61626c653a206e6f7420746865206f776e657200000000000000000000604482015290519081900360640190fd5b6120916136a9565b6008805460ff191690557f5db9ee0a495bf2e6ff9c91a7834c1ba4fdd244a5e8aa4e537bd38aeae4b073aa6120c46119a5565b604080516001600160a01b039092168252519081900360200190a1565b60006120ec82611915565b1561213e576040805162461bcd60e51b815260206004820152601b60248201527f496e76656e746f72793a206e6f74206120636f6c6c656374696f6e0000000000604482015290519081900360640190fd5b506000908152600460205260409020546001600160a01b031690565b6001600160a01b0384166121b5576040805162461bcd60e51b815260206004820152601760248201527f496e76656e746f72793a206d696e7420746f207a65726f000000000000000000604482015290519081900360640190fd5b6121be8361267b565b156121d3576121ce848484612be1565b6121ee565b6121dc83611915565b15611bec576121ce8484846000612cd3565b6001600160a01b03841660006122026119a5565b6001600160a01b03167fc3d58168c5ae7397731d063d5bbf3d657854427343f4c083240f7aacaa2d0f628686604051808381526020018281526020019250505060405180910390a461225c846001600160a01b0316612df4565b1561103657611036600085858585613700565b604080516001600160a01b038416602482015260448082018490528251808303909101815260649091019091526020810180517bffffffffffffffffffffffffffffffffffffffffffffffffffffffff167fa9059cbb0000000000000000000000000000000000000000000000000000000017905261105a908490613802565b815181518114612346576040805162461bcd60e51b815260206004820152601e60248201527f496e76656e746f72793a20696e636f6e73697374656e74206172726179730000604482015290519081900360640190fd5b60006123506119a5565b905061235c858261310f565b6123ad576040805162461bcd60e51b815260206004820152601e60248201527f496e76656e746f72793a206e6f6e2d617070726f7665642073656e6465720000604482015290519081900360640190fd5b60008060005b8481146124cc5760008782815181106123c857fe5b6020026020010151905060008783815181106123e057fe5b602002602001015190506123f38261267b565b15612408576124038a838361315b565b6124c2565b61241182611915565b15611bec576124238a83836001613264565b600061242e836126a1565b90508561244157809550600194506124c0565b8581146124b957846001600088815260200190815260200160002060008d6001600160a01b03166001600160a01b0316815260200190815260200160002060008282540392505081905550846002600088815260200190815260200160002060008282540392505081905550809550600194506124c0565b8460010194505b505b50506001016123b3565b50811561250e5760008281526001602090815260408083206001600160a01b038b16845282528083208054859003905584835260029091529020805482900390555b60006001600160a01b0316876001600160a01b0316846001600160a01b03167f4a39dc06d4c0dbc64b70af90fd698a233a518aa5d07e595d983b8c0526c8f7fb8989604051808060200180602001838103835285818151815260200191508051906020019060200280838360005b8381101561259457818101518382015260200161257c565b50505050905001838103825284818151815260200191508051906020019060200280838360005b838110156125d35781810151838201526020016125bb565b5050505090500194505050505060405180910390a450505050505050565b6125f9611e5c565b6008805460ff191660011790557f62e78cea01bee320cd4e420270b5ea74000d11b0c9f74754ebdbfc544b05a2586120c46119a5565b6001600160a01b038116600081815260076020526040808220805460ff19166001179055517f6ae172837ea30b801fbfcdd4108aa1d5bf8ff775444fd70256b44e6bf3dfc3f69190a250565b7f8000000000000000000000000000000000000000000000000000000000000000161590565b6001600160e01b03191690565b6126b781611915565b15612709576040805162461bcd60e51b815260206004820152601b60248201527f496e76656e746f72793a206e6f74206120636f6c6c656374696f6e0000000000604482015290519081900360640190fd5b6000818152600460205260409020546001600160a01b031615612773576040805162461bcd60e51b815260206004820152601e60248201527f496e76656e746f72793a206578697374696e6720636f6c6c656374696f6e0000604482015290519081900360640190fd5b61277b6119a5565b600082815260046020526040902080547fffffffffffffffffffffffff0000000000000000000000000000000000000000166001600160a01b03929092169190911790556127c88161267b565b1515817f4ebf8ad0df535ba5e487bc9cb27fe44120ca81c3a95d3eba79c0bd1df2ab2d5d60405160405180910390a350565b60006128046119a5565b90506001600160a01b038516612861576040805162461bcd60e51b815260206004820152601b60248201527f496e76656e746f72793a207472616e7366657220746f207a65726f0000000000604482015290519081900360640190fd5b61286b868261310f565b6128bc576040805162461bcd60e51b815260206004820152601e60248201527f496e76656e746f72793a206e6f6e2d617070726f7665642073656e6465720000604482015290519081900360640190fd5b6128c58461267b565b156128db576128d6868686866139e5565b6128f7565b6128e484611915565b15611bec576128d6868686866000613b03565b846001600160a01b0316866001600160a01b0316826001600160a01b03167fc3d58168c5ae7397731d063d5bbf3d657854427343f4c083240f7aacaa2d0f628787604051808381526020018281526020019250505060405180910390a4612966856001600160a01b0316612df4565b15612978576129788686868686613700565b505050505050565b60006001600160e01b031982167f01ffc9a70000000000000000000000000000000000000000000000000000000014806129e357506001600160e01b031982167fd9b67a2600000000000000000000000000000000000000000000000000000000145b80612a1757506001600160e01b031982167f0e89341c00000000000000000000000000000000000000000000000000000000145b80612a4b57506001600160e01b031982167f09ce5c4600000000000000000000000000000000000000000000000000000000145b806110125750506001600160e01b0319167fbd85b039000000000000000000000000000000000000000000000000000000001490565b60003381612a8d613c34565b90507f00000000000000000000000000000000000000000000000000000000000000006001600160a01b0316826001600160a01b03161480612b0057507f00000000000000000000000000000000000000000000000000000000000000006001600160a01b0316826001600160a01b0316145b15612b0e5791506114d39050565b6001600160a01b0382163214801590612bcd57507f00000000000000000000000000000000000000000000000000000000000000006001600160a01b031663e60125d682846040518363ffffffff1660e01b815260040180836001600160a01b03168152602001826001600160a01b031681526020019250505060206040518083038186803b158015612ba057600080fd5b505afa158015612bb4573d6000803e3d6000fd5b505050506040513d6020811015612bca57600080fd5b50515b15612bdb5791506114d39050565b50905090565b80612c33576040805162461bcd60e51b815260206004820152601560248201527f496e76656e746f72793a207a65726f2076616c75650000000000000000000000604482015290519081900360640190fd5b600082815260026020526040902054818101818111612c99576040805162461bcd60e51b815260206004820152601a60248201527f496e76656e746f72793a20737570706c79206f766572666c6f77000000000000604482015290519081900360640190fd5b600093845260026020908152604080862092909255600181528185206001600160a01b039096168552949094525091902080549091019055565b81600114612d28576040805162461bcd60e51b815260206004820152601a60248201527f496e76656e746f72793a2077726f6e67204e46542076616c7565000000000000604482015290519081900360640190fd5b60008381526003602052604090205415612d89576040805162461bcd60e51b815260206004820152601d60248201527f496e76656e746f72793a206578697374696e672f6275726e74204e4654000000604482015290519081900360640190fd5b60008381526003602052604090206001600160a01b038516905580611036576000612db3846126a1565b6000908152600260209081526040808320805460019081019091558083528184206001600160a01b038a168552909252909120805490910190555050505050565b3b151590565b7fbc197c81000000000000000000000000000000000000000000000000000000006001600160a01b03851663bc197c81612e326119a5565b888787876040518663ffffffff1660e01b815260040180866001600160a01b03168152602001856001600160a01b03168152602001806020018060200180602001848103845287818151815260200191508051906020019060200280838360005b83811015612eab578181015183820152602001612e93565b50505050905001848103835286818151815260200191508051906020019060200280838360005b83811015612eea578181015183820152602001612ed2565b50505050905001848103825285818151815260200191508051906020019080838360005b83811015612f26578181015183820152602001612f0e565b50505050905090810190601f168015612f535780820380516001836020036101000a031916815260200191505b5098505050505050505050602060405180830381600087803b158015612f7857600080fd5b505af1158015612f8c573d6000803e3d6000fd5b505050506040513d6020811015612fa257600080fd5b50516001600160e01b03191614611074576040805162461bcd60e51b815260206004820152601b60248201527f496e76656e746f72793a207472616e7366657220726566757365640000000000604482015290519081900360640190fd5b606081613041575060408051808201909152600181527f30000000000000000000000000000000000000000000000000000000000000006020820152611015565b8160005b811561305957600101600a82049150613045565b60008167ffffffffffffffff8111801561307257600080fd5b506040519080825280601f01601f19166020018201604052801561309d576020820181803683370190505b50859350905060001982015b831561310657600a840660300160f81b828280600190039350815181106130cc57fe5b60200101907effffffffffffffffffffffffffffffffffffffffffffffffffffffffffffff1916908160001a905350600a840493506130a9565b50949350505050565b6000816001600160a01b0316836001600160a01b0316148061315457506001600160a01b038084166000908152602081815260408083209386168352929052205460ff165b9392505050565b806131ad576040805162461bcd60e51b815260206004820152601560248201527f496e76656e746f72793a207a65726f2076616c75650000000000000000000000604482015290519081900360640190fd5b60008281526001602090815260408083206001600160a01b038716845290915290205481811015613225576040805162461bcd60e51b815260206004820152601d60248201527f496e76656e746f72793a206e6f7420656e6f7567682062616c616e6365000000604482015290519081900360640190fd5b60008381526001602090815260408083206001600160a01b03909716835295815285822092849003909255928352600290529190208054919091039055565b816001146132b9576040805162461bcd60e51b815260206004820152601a60248201527f496e76656e746f72793a2077726f6e67204e46542076616c7565000000000000604482015290519081900360640190fd5b6000838152600360205260409020546001600160a01b03858116911614613327576040805162461bcd60e51b815260206004820152601860248201527f496e76656e746f72793a206e6f6e2d6f776e6564204e46540000000000000000604482015290519081900360640190fd5b60008381526003602052604090207fdead000000000000000000000000000000000000000000000000000000000000905580611036576000613368846126a1565b60008181526001602090815260408083206001600160a01b038a1684528252808320805460001990810190915593835260029091529020805490910190555050505050565b6001600160a01b038416613408576040805162461bcd60e51b815260206004820152601b60248201527f496e76656e746f72793a207472616e7366657220746f207a65726f0000000000604482015290519081900360640190fd5b82518251811461345f576040805162461bcd60e51b815260206004820152601e60248201527f496e76656e746f72793a20696e636f6e73697374656e74206172726179730000604482015290519081900360640190fd5b60006134696119a5565b9050613475878261310f565b6134c6576040805162461bcd60e51b815260206004820152601e60248201527f496e76656e746f72793a206e6f6e2d617070726f7665642073656e6465720000604482015290519081900360640190fd5b60008060005b84811461358e5760008882815181106134e157fe5b6020026020010151905060008883815181106134f957fe5b6020026020010151905061350c8261267b565b156135225761351d8c8c84846139e5565b613584565b61352b82611915565b15611bec5761353e8c8c84846001613b03565b6000613549836126a1565b90508561355c5780955060019450613582565b85811461357b5761356f8d8d8888613c5e565b80955060019450613582565b8460010194505b505b50506001016134cc565b5081156135a1576135a189898484613c5e565b876001600160a01b0316896001600160a01b0316846001600160a01b03167f4a39dc06d4c0dbc64b70af90fd698a233a518aa5d07e595d983b8c0526c8f7fb8a8a604051808060200180602001838103835285818151815260200191508051906020019060200280838360005b8381101561362657818101518382015260200161360e565b50505050905001838103825284818151815260200191508051906020019060200280838360005b8381101561366557818101518382015260200161364d565b5050505090500194505050505060405180910390a461368c886001600160a01b0316612df4565b1561369e5761369e8989898989612dfa565b505050505050505050565b60085460ff16611093576040805162461bcd60e51b815260206004820152601460248201527f5061757361626c653a206e6f7420706175736564000000000000000000000000604482015290519081900360640190fd5b7ff23a6e61000000000000000000000000000000000000000000000000000000006001600160a01b03851663f23a6e616137386119a5565b888787876040518663ffffffff1660e01b815260040180866001600160a01b03168152602001856001600160a01b0316815260200184815260200183815260200180602001828103825283818151815260200191508051906020019080838360005b838110156137b257818101518382015260200161379a565b50505050905090810190601f1680156137df5780820380516001836020036101000a031916815260200191505b509650505050505050602060405180830381600087803b158015612f7857600080fd5b816138156001600160a01b038216612df4565b613866576040805162461bcd60e51b815260206004820152601a60248201527f4552433230577261707065723a206e6f6e2d636f6e7472616374000000000000604482015290519081900360640190fd5b600080826001600160a01b0316846040518082805190602001908083835b602083106138a35780518252601f199092019160209182019101613884565b6001836020036101000a0380198251168184511680821785525050505050509050019150506000604051808303816000865af19150503d8060008114613905576040519150601f19603f3d011682016040523d82523d6000602084013e61390a565b606091505b50915091508115613989578051156139845780806020019051602081101561393157600080fd5b5051613984576040805162461bcd60e51b815260206004820152601e60248201527f4552433230577261707065723a206f7065726174696f6e206661696c65640000604482015290519081900360640190fd5b611074565b80516139dc576040805162461bcd60e51b815260206004820152601e60248201527f4552433230577261707065723a206f7065726174696f6e206661696c65640000604482015290519081900360640190fd5b80518082602001fd5b80613a37576040805162461bcd60e51b815260206004820152601560248201527f496e76656e746f72793a207a65726f2076616c75650000000000000000000000604482015290519081900360640190fd5b60008281526001602090815260408083206001600160a01b038816845290915290205481811015613aaf576040805162461bcd60e51b815260206004820152601d60248201527f496e76656e746f72793a206e6f7420656e6f7567682062616c616e6365000000604482015290519081900360640190fd5b836001600160a01b0316856001600160a01b0316146110745760009283526001602090815260408085206001600160a01b039788168652909152808420918390039091559290931681522080549091019055565b81600114613b58576040805162461bcd60e51b815260206004820152601a60248201527f496e76656e746f72793a2077726f6e67204e46542076616c7565000000000000604482015290519081900360640190fd5b6000838152600360205260409020546001600160a01b03868116911614613bc6576040805162461bcd60e51b815260206004820152601860248201527f496e76656e746f72793a206e6f6e2d6f776e6564204e46540000000000000000604482015290519081900360640190fd5b60008381526003602052604090206001600160a01b038516905580611074576000613bf0846126a1565b60009081526001602081815260408084206001600160a01b039a8b168552909152808320805460001901905596909716815294909420805490950190945550505050565b7fffffffffffffffffffffffffffffffffffffffffffffffffffffffffffffffec36013560601c90565b826001600160a01b0316846001600160a01b0316146110365760009182526001602090815260408084206001600160a01b039687168552909152808320805483900390559290931681522080549091019055565b828054600181600116156101000203166002900490600052602060002090601f016020900481019282613ce85760008555613d2e565b82601f10613d015782800160ff19823516178555613d2e565b82800160010185558215613d2e579182015b82811115613d2e578235825591602001919060010190613d13565b50613d3a929150613d3e565b5090565b5b80821115613d3a5760008155600101613d3f56fea2646970667358221220b6f84922c17213279434ea45693759f5da2cce3a8654d985fa81a975f8a3989064736f6c63430007060033",
  "linkReferences": {},
  "deployedLinkReferences": {}
}