{
  "_format": "hh-sol-artifact-1",
  "contractName": "TokenLaunchpadVouchers",
  "sourceName": "contracts/token/ERC1155/TokenLaunchpadVouchers.sol",
  "abi": [
    {
      "inputs": [
        {
          "internalType": "contract IForwarderRegistry",
          "name": "forwarderRegistry",
          "type": "address"
        },
        {
          "internalType": "address",
          "name": "universalForwarder",
          "type": "address"
        }
      ],
      "stateMutability": "nonpayable",
      "type": "constructor"
    },
    {
      "anonymous": false,
      "inputs": [
        {
          "indexed": true,
          "internalType": "address",
          "name": "_owner",
          "type": "address"
        },
        {
          "indexed": true,
          "internalType": "address",
          "name": "_operator",
          "type": "address"
        },
        {
          "indexed": false,
          "internalType": "bool",
          "name": "_approved",
          "type": "bool"
        }
      ],
      "name": "ApprovalForAll",
      "type": "event"
    },
    {
      "anonymous": false,
      "inputs": [
        {
          "indexed": false,
          "internalType": "string",
          "name": "baseMetadataURI",
          "type": "string"
        }
      ],
      "name": "BaseMetadataURISet",
      "type": "event"
    },
    {
      "anonymous": false,
      "inputs": [
        {
          "indexed": true,
          "internalType": "uint256",
          "name": "collectionId",
          "type": "uint256"
        },
        {
          "indexed": true,
          "internalType": "bool",
          "name": "fungible",
          "type": "bool"
        }
      ],
      "name": "CollectionCreated",
      "type": "event"
    },
    {
      "anonymous": false,
      "inputs": [
        {
          "indexed": true,
          "internalType": "address",
          "name": "account",
          "type": "address"
        }
      ],
      "name": "MinterAdded",
      "type": "event"
    },
    {
      "anonymous": false,
      "inputs": [
        {
          "indexed": true,
          "internalType": "address",
          "name": "account",
          "type": "address"
        }
      ],
      "name": "MinterRemoved",
      "type": "event"
    },
    {
      "anonymous": false,
      "inputs": [
        {
          "indexed": true,
          "internalType": "address",
          "name": "previousOwner",
          "type": "address"
        },
        {
          "indexed": true,
          "internalType": "address",
          "name": "newOwner",
          "type": "address"
        }
      ],
      "name": "OwnershipTransferred",
      "type": "event"
    },
    {
      "anonymous": false,
      "inputs": [
        {
          "indexed": false,
          "internalType": "address",
          "name": "account",
          "type": "address"
        }
      ],
      "name": "Paused",
      "type": "event"
    },
    {
      "anonymous": false,
      "inputs": [
        {
          "indexed": true,
          "internalType": "address",
          "name": "_operator",
          "type": "address"
        },
        {
          "indexed": true,
          "internalType": "address",
          "name": "_from",
          "type": "address"
        },
        {
          "indexed": true,
          "internalType": "address",
          "name": "_to",
          "type": "address"
        },
        {
          "indexed": false,
          "internalType": "uint256[]",
          "name": "_ids",
          "type": "uint256[]"
        },
        {
          "indexed": false,
          "internalType": "uint256[]",
          "name": "_values",
          "type": "uint256[]"
        }
      ],
      "name": "TransferBatch",
      "type": "event"
    },
    {
      "anonymous": false,
      "inputs": [
        {
          "indexed": true,
          "internalType": "address",
          "name": "_operator",
          "type": "address"
        },
        {
          "indexed": true,
          "internalType": "address",
          "name": "_from",
          "type": "address"
        },
        {
          "indexed": true,
          "internalType": "address",
          "name": "_to",
          "type": "address"
        },
        {
          "indexed": false,
          "internalType": "uint256",
          "name": "_id",
          "type": "uint256"
        },
        {
          "indexed": false,
          "internalType": "uint256",
          "name": "_value",
          "type": "uint256"
        }
      ],
      "name": "TransferSingle",
      "type": "event"
    },
    {
      "anonymous": false,
      "inputs": [
        {
          "indexed": false,
          "internalType": "string",
          "name": "_value",
          "type": "string"
        },
        {
          "indexed": true,
          "internalType": "uint256",
          "name": "_id",
          "type": "uint256"
        }
      ],
      "name": "URI",
      "type": "event"
    },
    {
      "anonymous": false,
      "inputs": [
        {
          "indexed": false,
          "internalType": "address",
          "name": "account",
          "type": "address"
        }
      ],
      "name": "Unpaused",
      "type": "event"
    },
    {
      "inputs": [
        {
          "internalType": "address",
          "name": "account",
          "type": "address"
        }
      ],
      "name": "addMinter",
      "outputs": [],
      "stateMutability": "nonpayable",
      "type": "function"
    },
    {
      "inputs": [
        {
          "internalType": "address",
          "name": "owner",
          "type": "address"
        },
        {
          "internalType": "uint256",
          "name": "id",
          "type": "uint256"
        }
      ],
      "name": "balanceOf",
      "outputs": [
        {
          "internalType": "uint256",
          "name": "",
          "type": "uint256"
        }
      ],
      "stateMutability": "view",
      "type": "function"
    },
    {
      "inputs": [
        {
          "internalType": "address[]",
          "name": "owners",
          "type": "address[]"
        },
        {
          "internalType": "uint256[]",
          "name": "ids",
          "type": "uint256[]"
        }
      ],
      "name": "balanceOfBatch",
      "outputs": [
        {
          "internalType": "uint256[]",
          "name": "",
          "type": "uint256[]"
        }
      ],
      "stateMutability": "view",
      "type": "function"
    },
    {
      "inputs": [],
      "name": "baseMetadataURI",
      "outputs": [
        {
          "internalType": "string",
          "name": "",
          "type": "string"
        }
      ],
      "stateMutability": "view",
      "type": "function"
    },
    {
      "inputs": [
        {
          "internalType": "address",
          "name": "from",
          "type": "address"
        },
        {
          "internalType": "uint256[]",
          "name": "ids",
          "type": "uint256[]"
        },
        {
          "internalType": "uint256[]",
          "name": "values",
          "type": "uint256[]"
        }
      ],
      "name": "batchBurnFrom",
      "outputs": [],
      "stateMutability": "nonpayable",
      "type": "function"
    },
    {
      "inputs": [
        {
          "internalType": "address",
          "name": "from",
          "type": "address"
        },
        {
          "internalType": "uint256",
          "name": "id",
          "type": "uint256"
        },
        {
          "internalType": "uint256",
          "name": "value",
          "type": "uint256"
        }
      ],
      "name": "burnFrom",
      "outputs": [],
      "stateMutability": "nonpayable",
      "type": "function"
    },
    {
      "inputs": [
        {
          "internalType": "uint256",
          "name": "nftId",
          "type": "uint256"
        }
      ],
      "name": "collectionOf",
      "outputs": [
        {
          "internalType": "uint256",
          "name": "",
          "type": "uint256"
        }
      ],
      "stateMutability": "pure",
      "type": "function"
    },
    {
      "inputs": [
        {
          "internalType": "uint256",
          "name": "collectionId",
          "type": "uint256"
        }
      ],
      "name": "createCollection",
      "outputs": [],
      "stateMutability": "nonpayable",
      "type": "function"
    },
    {
      "inputs": [
        {
          "internalType": "uint256",
          "name": "collectionId",
          "type": "uint256"
        }
      ],
      "name": "creator",
      "outputs": [
        {
          "internalType": "address",
          "name": "",
          "type": "address"
        }
      ],
      "stateMutability": "view",
      "type": "function"
    },
    {
      "inputs": [
        {
          "internalType": "address",
          "name": "tokenOwner",
          "type": "address"
        },
        {
          "internalType": "address",
          "name": "operator",
          "type": "address"
        }
      ],
      "name": "isApprovedForAll",
      "outputs": [
        {
          "internalType": "bool",
          "name": "",
          "type": "bool"
        }
      ],
      "stateMutability": "view",
      "type": "function"
    },
    {
      "inputs": [
        {
          "internalType": "uint256",
          "name": "id",
          "type": "uint256"
        }
      ],
      "name": "isFungible",
      "outputs": [
        {
          "internalType": "bool",
          "name": "",
          "type": "bool"
        }
      ],
      "stateMutability": "pure",
      "type": "function"
    },
    {
      "inputs": [
        {
          "internalType": "address",
          "name": "",
          "type": "address"
        }
      ],
      "name": "isMinter",
      "outputs": [
        {
          "internalType": "bool",
          "name": "",
          "type": "bool"
        }
      ],
      "stateMutability": "view",
      "type": "function"
    },
    {
      "inputs": [
        {
          "internalType": "address",
          "name": "forwarder",
          "type": "address"
        }
      ],
      "name": "isTrustedForwarder",
      "outputs": [
        {
          "internalType": "bool",
          "name": "",
          "type": "bool"
        }
      ],
      "stateMutability": "view",
      "type": "function"
    },
    {
      "inputs": [],
      "name": "owner",
      "outputs": [
        {
          "internalType": "address",
          "name": "",
          "type": "address"
        }
      ],
      "stateMutability": "view",
      "type": "function"
    },
    {
      "inputs": [
        {
          "internalType": "uint256",
          "name": "nftId",
          "type": "uint256"
        }
      ],
      "name": "ownerOf",
      "outputs": [
        {
          "internalType": "address",
          "name": "",
          "type": "address"
        }
      ],
      "stateMutability": "view",
      "type": "function"
    },
    {
      "inputs": [],
      "name": "pause",
      "outputs": [],
      "stateMutability": "nonpayable",
      "type": "function"
    },
    {
      "inputs": [],
      "name": "paused",
      "outputs": [
        {
          "internalType": "bool",
          "name": "",
          "type": "bool"
        }
      ],
      "stateMutability": "view",
      "type": "function"
    },
    {
      "inputs": [
        {
          "internalType": "address[]",
          "name": "accounts",
          "type": "address[]"
        },
        {
          "internalType": "address[]",
          "name": "tokens",
          "type": "address[]"
        },
        {
          "internalType": "uint256[]",
          "name": "amounts",
          "type": "uint256[]"
        }
      ],
      "name": "recoverERC20s",
      "outputs": [],
      "stateMutability": "nonpayable",
      "type": "function"
    },
    {
      "inputs": [
        {
          "internalType": "address[]",
          "name": "accounts",
          "type": "address[]"
        },
        {
          "internalType": "address[]",
          "name": "contracts",
          "type": "address[]"
        },
        {
          "internalType": "uint256[]",
          "name": "tokenIds",
          "type": "uint256[]"
        }
      ],
      "name": "recoverERC721s",
      "outputs": [],
      "stateMutability": "nonpayable",
      "type": "function"
    },
    {
      "inputs": [],
      "name": "renounceMinter",
      "outputs": [],
      "stateMutability": "nonpayable",
      "type": "function"
    },
    {
      "inputs": [
        {
          "internalType": "address",
          "name": "to",
          "type": "address"
        },
        {
          "internalType": "uint256[]",
          "name": "ids",
          "type": "uint256[]"
        },
        {
          "internalType": "uint256[]",
          "name": "values",
          "type": "uint256[]"
        },
        {
          "internalType": "bytes",
          "name": "data",
          "type": "bytes"
        }
      ],
      "name": "safeBatchMint",
      "outputs": [],
      "stateMutability": "nonpayable",
      "type": "function"
    },
    {
      "inputs": [
        {
          "internalType": "address",
          "name": "from",
          "type": "address"
        },
        {
          "internalType": "address",
          "name": "to",
          "type": "address"
        },
        {
          "internalType": "uint256[]",
          "name": "ids",
          "type": "uint256[]"
        },
        {
          "internalType": "uint256[]",
          "name": "values",
          "type": "uint256[]"
        },
        {
          "internalType": "bytes",
          "name": "data",
          "type": "bytes"
        }
      ],
      "name": "safeBatchTransferFrom",
      "outputs": [],
      "stateMutability": "nonpayable",
      "type": "function"
    },
    {
      "inputs": [
        {
          "internalType": "address",
          "name": "to",
          "type": "address"
        },
        {
          "internalType": "uint256",
          "name": "id",
          "type": "uint256"
        },
        {
          "internalType": "uint256",
          "name": "value",
          "type": "uint256"
        },
        {
          "internalType": "bytes",
          "name": "data",
          "type": "bytes"
        }
      ],
      "name": "safeMint",
      "outputs": [],
      "stateMutability": "nonpayable",
      "type": "function"
    },
    {
      "inputs": [
        {
          "internalType": "address",
          "name": "from",
          "type": "address"
        },
        {
          "internalType": "address",
          "name": "to",
          "type": "address"
        },
        {
          "internalType": "uint256",
          "name": "id",
          "type": "uint256"
        },
        {
          "internalType": "uint256",
          "name": "value",
          "type": "uint256"
        },
        {
          "internalType": "bytes",
          "name": "data",
          "type": "bytes"
        }
      ],
      "name": "safeTransferFrom",
      "outputs": [],
      "stateMutability": "nonpayable",
      "type": "function"
    },
    {
      "inputs": [
        {
          "internalType": "address",
          "name": "operator",
          "type": "address"
        },
        {
          "internalType": "bool",
          "name": "approved",
          "type": "bool"
        }
      ],
      "name": "setApprovalForAll",
      "outputs": [],
      "stateMutability": "nonpayable",
      "type": "function"
    },
    {
      "inputs": [
        {
          "internalType": "string",
          "name": "baseMetadataURI_",
          "type": "string"
        }
      ],
      "name": "setBaseMetadataURI",
      "outputs": [],
      "stateMutability": "nonpayable",
      "type": "function"
    },
    {
      "inputs": [
        {
          "internalType": "bytes4",
          "name": "interfaceId",
          "type": "bytes4"
        }
      ],
      "name": "supportsInterface",
      "outputs": [
        {
          "internalType": "bool",
          "name": "",
          "type": "bool"
        }
      ],
      "stateMutability": "view",
      "type": "function"
    },
    {
      "inputs": [
        {
          "internalType": "uint256",
          "name": "id",
          "type": "uint256"
        }
      ],
      "name": "totalSupply",
      "outputs": [
        {
          "internalType": "uint256",
          "name": "",
          "type": "uint256"
        }
      ],
      "stateMutability": "view",
      "type": "function"
    },
    {
      "inputs": [
        {
          "internalType": "address",
          "name": "newOwner",
          "type": "address"
        }
      ],
      "name": "transferOwnership",
      "outputs": [],
      "stateMutability": "nonpayable",
      "type": "function"
    },
    {
      "inputs": [],
      "name": "unpause",
      "outputs": [],
      "stateMutability": "nonpayable",
      "type": "function"
    },
    {
      "inputs": [
        {
          "internalType": "uint256",
          "name": "id",
          "type": "uint256"
        }
      ],
      "name": "uri",
      "outputs": [
        {
          "internalType": "string",
          "name": "",
          "type": "string"
        }
      ],
      "stateMutability": "view",
      "type": "function"
    }
  ],
  "bytecode": "0x60c06040523480156200001157600080fd5b5060405162003f0f38038062003f0f833981810160405260408110156200003757600080fd5b508051602090910151600580546001600160a01b0319163390811790915560405183918391600091908190819084907f8be0079c531659141344cd1fd0a4f28419497f9722a3daafe3b4186f6b6457e0908290a3506200009781620000cd565b506008805460ff1916911515919091179055606090811b6001600160601b031990811660a05291901b1660805250620001199050565b6001600160a01b038116600081815260076020526040808220805460ff19166001179055517f6ae172837ea30b801fbfcdd4108aa1d5bf8ff775444fd70256b44e6bf3dfc3f69190a250565b60805160601c60a05160601c613dbd62000152600039806111de5280612b005250806112195280612ac55280612b585250613dbd6000f3fe608060405234801561001057600080fd5b50600436106101e45760003560e01c80637e518ec81161010f578063adebf6f2116100a2578063d0011d9d11610071578063d0011d9d14610dcd578063e985e9c514610dea578063f242432a14610e18578063f2fde38b14610ee3576101e4565b8063adebf6f214610c62578063bd85b03914610c7f578063c3666c3614610c9c578063c7778baa14610db0576101e4565b8063983b2d56116100de578063983b2d5614610be05780639865027514610c06578063a22cb46514610c0e578063aa271e1a14610c3c576101e4565b80637e518ec814610a295780638053493414610a995780638456cb5914610bd05780638da5cb5b14610bd8576101e4565b80634e1273f4116101875780635c975abb116101565780635c975abb1461082e5780635cfa9297146108365780636352211e146108f857806373c8a95814610915576101e4565b80634e1273f4146106b5578063510b5158146107c7578063572b6c05146108005780635b2bd79e14610826576101e4565b80630e89341c116101c35780630e89341c14610422578063124d91e5146104b45780632eb2c2d6146104e65780633f4ba83a146106ad576101e4565b8062fdd58e146101e957806301ffc9a7146102275780630d6a5bbb14610262575b600080fd5b610215600480360360408110156101ff57600080fd5b506001600160a01b038135169060200135610f09565b60408051918252519081900360200190f35b61024e6004803603602081101561023d57600080fd5b50356001600160e01b031916610fd4565b604080519115158252519081900360200190f35b6104206004803603608081101561027857600080fd5b6001600160a01b0382351691908101906040810160208201356401000000008111156102a357600080fd5b8201836020820111156102b557600080fd5b803590602001918460208302840111640100000000831117156102d757600080fd5b919080806020026020016040519081016040528093929190818152602001838360200280828437600092019190915250929594936020810193503591505064010000000081111561032757600080fd5b82018360208201111561033957600080fd5b8035906020019184602083028401116401000000008311171561035b57600080fd5b91908080602002602001604051908101604052809392919081815260200183836020028082843760009201919091525092959493602081019350359150506401000000008111156103ab57600080fd5b8201836020820111156103bd57600080fd5b803590602001918460018302840111640100000000831117156103df57600080fd5b91908080601f01602080910402602001604051908101604052809392919081815260200183838082843760009201919091525092955061104e945050505050565b005b61043f6004803603602081101561043857600080fd5b5035611070565b6040805160208082528351818301528351919283929083019185019080838360005b83811015610479578181015183820152602001610461565b50505050905090810190601f1680156104a65780820380516001836020036101000a031916815260200191505b509250505060405180910390f35b610420600480360360608110156104ca57600080fd5b506001600160a01b03813516906020810135906040013561107b565b610420600480360360a08110156104fc57600080fd5b6001600160a01b03823581169260208101359091169181019060608101604082013564010000000081111561053057600080fd5b82018360208201111561054257600080fd5b8035906020019184602083028401116401000000008311171561056457600080fd5b91908080602002602001604051908101604052809392919081815260200183836020028082843760009201919091525092959493602081019350359150506401000000008111156105b457600080fd5b8201836020820111156105c657600080fd5b803590602001918460208302840111640100000000831117156105e857600080fd5b919080806020026020016040519081016040528093929190818152602001838360200280828437600092019190915250929594936020810193503591505064010000000081111561063857600080fd5b82018360208201111561064a57600080fd5b8035906020019184600183028401116401000000008311171561066c57600080fd5b91908080601f016020809104026020016040519081016040528093929190818152602001838380828437600092019190915250929550611093945050505050565b6104206110af565b610777600480360360408110156106cb57600080fd5b8101906020810181356401000000008111156106e657600080fd5b8201836020820111156106f857600080fd5b8035906020019184602083028401116401000000008311171561071a57600080fd5b91939092909160208101903564010000000081111561073857600080fd5b82018360208201111561074a57600080fd5b8035906020019184602083028401116401000000008311171561076c57600080fd5b5090925090506110c9565b60408051602080825283518183015283519192839290830191858101910280838360005b838110156107b357818101518382015260200161079b565b505050509050019250505060405180910390f35b6107e4600480360360208110156107dd57600080fd5b50356111cf565b604080516001600160a01b039092168252519081900360200190f35b61024e6004803603602081101561081657600080fd5b50356001600160a01b03166111da565b61043f611253565b61024e6112e1565b6104206004803603608081101561084c57600080fd5b6001600160a01b03823516916020810135916040820135919081019060808101606082013564010000000081111561088357600080fd5b82018360208201111561089557600080fd5b803590602001918460018302840111640100000000831117156108b757600080fd5b91908080601f0160208091040260200160405190810160405280939291908181526020018383808284376000920191909152509295506112ea945050505050565b6107e46004803603602081101561090e57600080fd5b5035611301565b6104206004803603606081101561092b57600080fd5b81019060208101813564010000000081111561094657600080fd5b82018360208201111561095857600080fd5b8035906020019184602083028401116401000000008311171561097a57600080fd5b91939092909160208101903564010000000081111561099857600080fd5b8201836020820111156109aa57600080fd5b803590602001918460208302840111640100000000831117156109cc57600080fd5b9193909290916020810190356401000000008111156109ea57600080fd5b8201836020820111156109fc57600080fd5b80359060200191846020830284011164010000000083111715610a1e57600080fd5b50909250905061136b565b61042060048036036020811015610a3f57600080fd5b810190602081018135640100000000811115610a5a57600080fd5b820183602082011115610a6c57600080fd5b80359060200191846001830284011164010000000083111715610a8e57600080fd5b509092509050611458565b61042060048036036060811015610aaf57600080fd5b6001600160a01b038235169190810190604081016020820135640100000000811115610ada57600080fd5b820183602082011115610aec57600080fd5b80359060200191846020830284011164010000000083111715610b0e57600080fd5b9190808060200260200160405190810160405280939291908181526020018383602002808284376000920191909152509295949360208101935035915050640100000000811115610b5e57600080fd5b820183602082011115610b7057600080fd5b80359060200191846020830284011164010000000083111715610b9257600080fd5b9190808060200260200160405190810160405280939291908181526020018383602002808284376000920191909152509295506114d4945050505050565b6104206114e7565b6107e46114fa565b61042060048036036020811015610bf657600080fd5b50356001600160a01b031661150a565b610420611521565b61042060048036036040811015610c2457600080fd5b506001600160a01b038135169060200135151561157f565b61024e60048036036020811015610c5257600080fd5b50356001600160a01b031661165e565b61024e60048036036020811015610c7857600080fd5b5035611673565b61021560048036036020811015610c9557600080fd5b503561167e565b61042060048036036060811015610cb257600080fd5b810190602081018135640100000000811115610ccd57600080fd5b820183602082011115610cdf57600080fd5b80359060200191846020830284011164010000000083111715610d0157600080fd5b919390929091602081019035640100000000811115610d1f57600080fd5b820183602082011115610d3157600080fd5b80359060200191846020830284011164010000000083111715610d5357600080fd5b919390929091602081019035640100000000811115610d7157600080fd5b820183602082011115610d8357600080fd5b80359060200191846020830284011164010000000083111715610da557600080fd5b5090925090506116d4565b61021560048036036020811015610dc657600080fd5b503561181c565b61042060048036036020811015610de357600080fd5b5035611881565b61024e60048036036040811015610e0057600080fd5b506001600160a01b0381358116916020013516611895565b610420600480360360a0811015610e2e57600080fd5b6001600160a01b03823581169260208101359091169160408201359160608101359181019060a081016080820135640100000000811115610e6e57600080fd5b820183602082011115610e8057600080fd5b80359060200191846001830284011164010000000083111715610ea257600080fd5b91908080601f0160208091040260200160405190810160405280939291908181526020018383808284376000920191909152509295506118c1945050505050565b61042060048036036020811015610ef957600080fd5b50356001600160a01b03166118d6565b60006001600160a01b038316610f66576040805162461bcd60e51b815260206004820152601760248201527f496e76656e746f72793a207a65726f2061646472657373000000000000000000604482015290519081900360640190fd5b610f6f82611949565b15610fa9576000828152600360205260409020546001600160a01b03848116911614610f9c576000610f9f565b60015b60ff169050610fce565b5060008181526001602090815260408083206001600160a01b03861684529091529020545b92915050565b60006001600160e01b031982167f5190c92c00000000000000000000000000000000000000000000000000000000148061103757506001600160e01b031982167f510b515800000000000000000000000000000000000000000000000000000000145b8061104657506110468261199b565b90505b919050565b61105e6110596119d9565b6119e8565b61106a84848484611a55565b50505050565b606061104682611dbd565b611083611e90565b61108e838383611ee8565b505050565b61109b611e90565b6110a88585858585611fec565b5050505050565b6110bf6110ba6119d9565b611ff9565b6110c76120bd565b565b606083821461111f576040805162461bcd60e51b815260206004820152601e60248201527f496e76656e746f72793a20696e636f6e73697374656e74206172726179730000604482015290519081900360640190fd5b60008467ffffffffffffffff8111801561113857600080fd5b50604051908082528060200260200182016040528015611162578160200160208202803683370190505b50905060005b8086146111c5576111a687878381811061117e57fe5b905060200201356001600160a01b031686868481811061119a57fe5b90506020020135610f09565b8282815181106111b257fe5b6020908102919091010152600101611168565b5095945050505050565b600061104682612115565b60007f00000000000000000000000000000000000000000000000000000000000000006001600160a01b0316826001600160a01b0316148061104657507f00000000000000000000000000000000000000000000000000000000000000006001600160a01b0316826001600160a01b0316149050919050565b6006805460408051602060026001851615610100026000190190941693909304601f810184900484028201840190925281815292918301828280156112d95780601f106112ae576101008083540402835291602001916112d9565b820191906000526020600020905b8154815290600101906020018083116112bc57829003601f168201915b505050505081565b60085460ff1681565b6112f56110596119d9565b61106a8484848461218e565b6000818152600360205260408120546001600160a01b038116611046576040805162461bcd60e51b815260206004820152601b60248201527f496e76656e746f72793a206e6f6e2d6578697374696e67204e46540000000000604482015290519081900360640190fd5b6113766110ba6119d9565b84838114801561138557508082145b6113d6576040805162461bcd60e51b815260206004820152601a60248201527f5265636f763a20696e636f6e73697374656e7420617272617973000000000000604482015290519081900360640190fd5b60005b81811461144e576114468888838181106113ef57fe5b905060200201356001600160a01b031685858481811061140b57fe5b9050602002013588888581811061141e57fe5b905060200201356001600160a01b03166001600160a01b03166122a39092919063ffffffff16565b6001016113d9565b5050505050505050565b6114636110ba6119d9565b61146f60068383613ce6565b507f04b1dc5c136a3ce9fded8db0ce3d3366c58764ec3a8e4c2b9e52e4ddfe5ebbf7828260405180806020018281038252848482818152602001925080828437600083820152604051601f909101601f19169092018290039550909350505050a15050565b6114dc611e90565b61108e838383612323565b6114f26110ba6119d9565b6110c7612625565b6005546001600160a01b03165b90565b6115156110ba6119d9565b61151e81612663565b50565b600061152b6119d9565b9050611536816119e8565b6001600160a01b038116600081815260076020526040808220805460ff19169055517fe94479a9f7e1952cc78f2d6baab678adc1b772d936c6583def489e524cb666929190a250565b60006115896119d9565b9050806001600160a01b0316836001600160a01b031614156115f2576040805162461bcd60e51b815260206004820152601860248201527f496e76656e746f72793a2073656c662d617070726f76616c0000000000000000604482015290519081900360640190fd5b6001600160a01b0381811660008181526020818152604080832094881680845294825291829020805460ff1916871515908117909155825190815291517f17307eab39ab6107e8899845ad3d59bd9653f200f220920489ca2b5937696c319281900390910190a3505050565b60076020526000908152604090205460ff1681565b6000611046826126af565b600061168982611949565b156116bf576000828152600360205260409020546001600160a01b0316156116b25760016116b5565b60005b60ff169050611049565b50600081815260026020526040902054611049565b6116df6110ba6119d9565b8483811480156116ee57508082145b61173f576040805162461bcd60e51b815260206004820152601a60248201527f5265636f763a20696e636f6e73697374656e7420617272617973000000000000604482015290519081900360640190fd5b60005b81811461144e5785858281811061175557fe5b905060200201356001600160a01b03166001600160a01b03166323b872dd308a8a8581811061178057fe5b905060200201356001600160a01b031687878681811061179c57fe5b905060200201356040518463ffffffff1660e01b815260040180846001600160a01b03168152602001836001600160a01b031681526020018281526020019350505050600060405180830381600087803b1580156117f957600080fd5b505af115801561180d573d6000803e3d6000fd5b50505050806001019050611742565b600061182782611949565b611878576040805162461bcd60e51b815260206004820152601560248201527f496e76656e746f72793a206e6f7420616e204e46540000000000000000000000604482015290519081900360640190fd5b611046826126d5565b61188c6110ba6119d9565b61151e816126e2565b6001600160a01b0391821660009081526020818152604080832093909416825291909152205460ff1690565b6118c9611e90565b6110a8858585858561282e565b6118e16110ba6119d9565b600580547fffffffffffffffffffffffff0000000000000000000000000000000000000000166001600160a01b0383811691821792839055604051919216907f8be0079c531659141344cd1fd0a4f28419497f9722a3daafe3b4186f6b6457e090600090a350565b60007f80000000000000000000000000000000000000000000000000000000000000008216158015906110465750507bffffffffffffffffffffffffffffffffffffffffffffffffffffffff16151590565b60006001600160e01b031982167f921ed8d10000000000000000000000000000000000000000000000000000000014806110465750611046826129b4565b60006119e3612ab5565b905090565b6001600160a01b03811660009081526007602052604090205460ff1661151e576040805162461bcd60e51b815260206004820152601860248201527f4d696e746572526f6c653a206e6f742061204d696e7465720000000000000000604482015290519081900360640190fd5b6001600160a01b038416611ab0576040805162461bcd60e51b815260206004820152601760248201527f496e76656e746f72793a206d696e7420746f207a65726f000000000000000000604482015290519081900360640190fd5b825182518114611b07576040805162461bcd60e51b815260206004820152601e60248201527f496e76656e746f72793a20696e636f6e73697374656e74206172726179730000604482015290519081900360640190fd5b60008060005b838114611c77576000878281518110611b2257fe5b602002602001015190506000878381518110611b3a57fe5b60200260200101519050611b4d826126af565b15611b6257611b5d8a8383612c15565b611c6d565b611b6b82611949565b15611c2057611b7d8a83836001612d07565b6000611b88836126d5565b905085611b9b5780955060019450611c1a565b858114611c1357846001600088815260200190815260200160002060008d6001600160a01b03166001600160a01b031681526020019081526020016000206000828254019250508190555084600260008881526020019081526020016000206000828254019250508190555080955060019450611c1a565b8460010194505b50611c6d565b6040805162461bcd60e51b815260206004820152601960248201527f496e76656e746f72793a206e6f74206120746f6b656e20696400000000000000604482015290519081900360640190fd5b5050600101611b0d565b508115611cb75760008281526001602090815260408083206001600160a01b038b1684528252808320805485019055848352600290915290208054820190555b6001600160a01b0387166000611ccb6119d9565b6001600160a01b03167f4a39dc06d4c0dbc64b70af90fd698a233a518aa5d07e595d983b8c0526c8f7fb8989604051808060200180602001838103835285818151815260200191508051906020019060200280838360005b83811015611d3b578181015183820152602001611d23565b50505050905001838103825284818151815260200191508051906020019060200280838360005b83811015611d7a578181015183820152602001611d62565b5050505090500194505050505060405180910390a4611da1876001600160a01b0316612e28565b15611db457611db4600088888888612e2e565b50505050505050565b60606006611dca83613034565b6040516020018083805460018160011615610100020316600290048015611e285780601f10611e06576101008083540402835291820191611e28565b820191906000526020600020905b815481529060010190602001808311611e14575b5050825160208401908083835b60208310611e545780518252601f199092019160209182019101611e35565b6001836020036101000a038019825116818451168082178552505050505050905001925050506040516020818303038152906040529050919050565b60085460ff16156110c7576040805162461bcd60e51b815260206004820152601060248201527f5061757361626c653a2070617573656400000000000000000000000000000000604482015290519081900360640190fd5b6000611ef26119d9565b9050611efe8482613143565b611f4f576040805162461bcd60e51b815260206004820152601e60248201527f496e76656e746f72793a206e6f6e2d617070726f7665642073656e6465720000604482015290519081900360640190fd5b611f58836126af565b15611f6d57611f6884848461318f565b611f88565b611f7683611949565b15611c2057611f688484846000613298565b60006001600160a01b0316846001600160a01b0316826001600160a01b03167fc3d58168c5ae7397731d063d5bbf3d657854427343f4c083240f7aacaa2d0f628686604051808381526020018281526020019250505060405180910390a450505050565b6110a885858585856133e1565b306001600160a01b0316638da5cb5b6040518163ffffffff1660e01b815260040160206040518083038186803b15801561203257600080fd5b505afa158015612046573d6000803e3d6000fd5b505050506040513d602081101561205c57600080fd5b50516001600160a01b0382811691161461151e576040805162461bcd60e51b815260206004820152601660248201527f4f776e61626c653a206e6f7420746865206f776e657200000000000000000000604482015290519081900360640190fd5b6120c56136dd565b6008805460ff191690557f5db9ee0a495bf2e6ff9c91a7834c1ba4fdd244a5e8aa4e537bd38aeae4b073aa6120f86119d9565b604080516001600160a01b039092168252519081900360200190a1565b600061212082611949565b15612172576040805162461bcd60e51b815260206004820152601b60248201527f496e76656e746f72793a206e6f74206120636f6c6c656374696f6e0000000000604482015290519081900360640190fd5b506000908152600460205260409020546001600160a01b031690565b6001600160a01b0384166121e9576040805162461bcd60e51b815260206004820152601760248201527f496e76656e746f72793a206d696e7420746f207a65726f000000000000000000604482015290519081900360640190fd5b6121f2836126af565b1561220757612202848484612c15565b612222565b61221083611949565b15611c20576122028484846000612d07565b6001600160a01b03841660006122366119d9565b6001600160a01b03167fc3d58168c5ae7397731d063d5bbf3d657854427343f4c083240f7aacaa2d0f628686604051808381526020018281526020019250505060405180910390a4612290846001600160a01b0316612e28565b1561106a5761106a600085858585613734565b604080516001600160a01b038416602482015260448082018490528251808303909101815260649091019091526020810180517bffffffffffffffffffffffffffffffffffffffffffffffffffffffff167fa9059cbb0000000000000000000000000000000000000000000000000000000017905261108e908490613836565b81518151811461237a576040805162461bcd60e51b815260206004820152601e60248201527f496e76656e746f72793a20696e636f6e73697374656e74206172726179730000604482015290519081900360640190fd5b60006123846119d9565b90506123908582613143565b6123e1576040805162461bcd60e51b815260206004820152601e60248201527f496e76656e746f72793a206e6f6e2d617070726f7665642073656e6465720000604482015290519081900360640190fd5b60008060005b8481146125005760008782815181106123fc57fe5b60200260200101519050600087838151811061241457fe5b60200260200101519050612427826126af565b1561243c576124378a838361318f565b6124f6565b61244582611949565b15611c20576124578a83836001613298565b6000612462836126d5565b90508561247557809550600194506124f4565b8581146124ed57846001600088815260200190815260200160002060008d6001600160a01b03166001600160a01b0316815260200190815260200160002060008282540392505081905550846002600088815260200190815260200160002060008282540392505081905550809550600194506124f4565b8460010194505b505b50506001016123e7565b5081156125425760008281526001602090815260408083206001600160a01b038b16845282528083208054859003905584835260029091529020805482900390555b60006001600160a01b0316876001600160a01b0316846001600160a01b03167f4a39dc06d4c0dbc64b70af90fd698a233a518aa5d07e595d983b8c0526c8f7fb8989604051808060200180602001838103835285818151815260200191508051906020019060200280838360005b838110156125c85781810151838201526020016125b0565b50505050905001838103825284818151815260200191508051906020019060200280838360005b838110156126075781810151838201526020016125ef565b5050505090500194505050505060405180910390a450505050505050565b61262d611e90565b6008805460ff191660011790557f62e78cea01bee320cd4e420270b5ea74000d11b0c9f74754ebdbfc544b05a2586120f86119d9565b6001600160a01b038116600081815260076020526040808220805460ff19166001179055517f6ae172837ea30b801fbfcdd4108aa1d5bf8ff775444fd70256b44e6bf3dfc3f69190a250565b7f8000000000000000000000000000000000000000000000000000000000000000161590565b6001600160e01b03191690565b6126eb81611949565b1561273d576040805162461bcd60e51b815260206004820152601b60248201527f496e76656e746f72793a206e6f74206120636f6c6c656374696f6e0000000000604482015290519081900360640190fd5b6000818152600460205260409020546001600160a01b0316156127a7576040805162461bcd60e51b815260206004820152601e60248201527f496e76656e746f72793a206578697374696e6720636f6c6c656374696f6e0000604482015290519081900360640190fd5b6127af6119d9565b600082815260046020526040902080547fffffffffffffffffffffffff0000000000000000000000000000000000000000166001600160a01b03929092169190911790556127fc816126af565b1515817f4ebf8ad0df535ba5e487bc9cb27fe44120ca81c3a95d3eba79c0bd1df2ab2d5d60405160405180910390a350565b60006128386119d9565b90506001600160a01b038516612895576040805162461bcd60e51b815260206004820152601b60248201527f496e76656e746f72793a207472616e7366657220746f207a65726f0000000000604482015290519081900360640190fd5b61289f8682613143565b6128f0576040805162461bcd60e51b815260206004820152601e60248201527f496e76656e746f72793a206e6f6e2d617070726f7665642073656e6465720000604482015290519081900360640190fd5b6128f9846126af565b1561290f5761290a86868686613a19565b61292b565b61291884611949565b15611c205761290a868686866000613b37565b846001600160a01b0316866001600160a01b0316826001600160a01b03167fc3d58168c5ae7397731d063d5bbf3d657854427343f4c083240f7aacaa2d0f628787604051808381526020018281526020019250505060405180910390a461299a856001600160a01b0316612e28565b156129ac576129ac8686868686613734565b505050505050565b60006001600160e01b031982167f01ffc9a7000000000000000000000000000000000000000000000000000000001480612a1757506001600160e01b031982167fd9b67a2600000000000000000000000000000000000000000000000000000000145b80612a4b57506001600160e01b031982167f0e89341c00000000000000000000000000000000000000000000000000000000145b80612a7f57506001600160e01b031982167f09ce5c4600000000000000000000000000000000000000000000000000000000145b806110465750506001600160e01b0319167fbd85b039000000000000000000000000000000000000000000000000000000001490565b60003381612ac1613c68565b90507f00000000000000000000000000000000000000000000000000000000000000006001600160a01b0316826001600160a01b03161480612b3457507f00000000000000000000000000000000000000000000000000000000000000006001600160a01b0316826001600160a01b0316145b15612b425791506115079050565b6001600160a01b0382163214801590612c0157507f00000000000000000000000000000000000000000000000000000000000000006001600160a01b031663e60125d682846040518363ffffffff1660e01b815260040180836001600160a01b03168152602001826001600160a01b031681526020019250505060206040518083038186803b158015612bd457600080fd5b505afa158015612be8573d6000803e3d6000fd5b505050506040513d6020811015612bfe57600080fd5b50515b15612c0f5791506115079050565b50905090565b80612c67576040805162461bcd60e51b815260206004820152601560248201527f496e76656e746f72793a207a65726f2076616c75650000000000000000000000604482015290519081900360640190fd5b600082815260026020526040902054818101818111612ccd576040805162461bcd60e51b815260206004820152601a60248201527f496e76656e746f72793a20737570706c79206f766572666c6f77000000000000604482015290519081900360640190fd5b600093845260026020908152604080862092909255600181528185206001600160a01b039096168552949094525091902080549091019055565b81600114612d5c576040805162461bcd60e51b815260206004820152601a60248201527f496e76656e746f72793a2077726f6e67204e46542076616c7565000000000000604482015290519081900360640190fd5b60008381526003602052604090205415612dbd576040805162461bcd60e51b815260206004820152601d60248201527f496e76656e746f72793a206578697374696e672f6275726e74204e4654000000604482015290519081900360640190fd5b60008381526003602052604090206001600160a01b03851690558061106a576000612de7846126d5565b6000908152600260209081526040808320805460019081019091558083528184206001600160a01b038a168552909252909120805490910190555050505050565b3b151590565b7fbc197c81000000000000000000000000000000000000000000000000000000006001600160a01b03851663bc197c81612e666119d9565b888787876040518663ffffffff1660e01b815260040180866001600160a01b03168152602001856001600160a01b03168152602001806020018060200180602001848103845287818151815260200191508051906020019060200280838360005b83811015612edf578181015183820152602001612ec7565b50505050905001848103835286818151815260200191508051906020019060200280838360005b83811015612f1e578181015183820152602001612f06565b50505050905001848103825285818151815260200191508051906020019080838360005b83811015612f5a578181015183820152602001612f42565b50505050905090810190601f168015612f875780820380516001836020036101000a031916815260200191505b5098505050505050505050602060405180830381600087803b158015612fac57600080fd5b505af1158015612fc0573d6000803e3d6000fd5b505050506040513d6020811015612fd657600080fd5b50516001600160e01b031916146110a8576040805162461bcd60e51b815260206004820152601b60248201527f496e76656e746f72793a207472616e7366657220726566757365640000000000604482015290519081900360640190fd5b606081613075575060408051808201909152600181527f30000000000000000000000000000000000000000000000000000000000000006020820152611049565b8160005b811561308d57600101600a82049150613079565b60008167ffffffffffffffff811180156130a657600080fd5b506040519080825280601f01601f1916602001820160405280156130d1576020820181803683370190505b50859350905060001982015b831561313a57600a840660300160f81b8282806001900393508151811061310057fe5b60200101907effffffffffffffffffffffffffffffffffffffffffffffffffffffffffffff1916908160001a905350600a840493506130dd565b50949350505050565b6000816001600160a01b0316836001600160a01b0316148061318857506001600160a01b038084166000908152602081815260408083209386168352929052205460ff165b9392505050565b806131e1576040805162461bcd60e51b815260206004820152601560248201527f496e76656e746f72793a207a65726f2076616c75650000000000000000000000604482015290519081900360640190fd5b60008281526001602090815260408083206001600160a01b038716845290915290205481811015613259576040805162461bcd60e51b815260206004820152601d60248201527f496e76656e746f72793a206e6f7420656e6f7567682062616c616e6365000000604482015290519081900360640190fd5b60008381526001602090815260408083206001600160a01b03909716835295815285822092849003909255928352600290529190208054919091039055565b816001146132ed576040805162461bcd60e51b815260206004820152601a60248201527f496e76656e746f72793a2077726f6e67204e46542076616c7565000000000000604482015290519081900360640190fd5b6000838152600360205260409020546001600160a01b0385811691161461335b576040805162461bcd60e51b815260206004820152601860248201527f496e76656e746f72793a206e6f6e2d6f776e6564204e46540000000000000000604482015290519081900360640190fd5b60008381526003602052604090207fdead00000000000000000000000000000000000000000000000000000000000090558061106a57600061339c846126d5565b60008181526001602090815260408083206001600160a01b038a1684528252808320805460001990810190915593835260029091529020805490910190555050505050565b6001600160a01b03841661343c576040805162461bcd60e51b815260206004820152601b60248201527f496e76656e746f72793a207472616e7366657220746f207a65726f0000000000604482015290519081900360640190fd5b825182518114613493576040805162461bcd60e51b815260206004820152601e60248201527f496e76656e746f72793a20696e636f6e73697374656e74206172726179730000604482015290519081900360640190fd5b600061349d6119d9565b90506134a98782613143565b6134fa576040805162461bcd60e51b815260206004820152601e60248201527f496e76656e746f72793a206e6f6e2d617070726f7665642073656e6465720000604482015290519081900360640190fd5b60008060005b8481146135c257600088828151811061351557fe5b60200260200101519050600088838151811061352d57fe5b60200260200101519050613540826126af565b15613556576135518c8c8484613a19565b6135b8565b61355f82611949565b15611c20576135728c8c84846001613b37565b600061357d836126d5565b90508561359057809550600194506135b6565b8581146135af576135a38d8d8888613c92565b809550600194506135b6565b8460010194505b505b5050600101613500565b5081156135d5576135d589898484613c92565b876001600160a01b0316896001600160a01b0316846001600160a01b03167f4a39dc06d4c0dbc64b70af90fd698a233a518aa5d07e595d983b8c0526c8f7fb8a8a604051808060200180602001838103835285818151815260200191508051906020019060200280838360005b8381101561365a578181015183820152602001613642565b50505050905001838103825284818151815260200191508051906020019060200280838360005b83811015613699578181015183820152602001613681565b5050505090500194505050505060405180910390a46136c0886001600160a01b0316612e28565b156136d2576136d28989898989612e2e565b505050505050505050565b60085460ff166110c7576040805162461bcd60e51b815260206004820152601460248201527f5061757361626c653a206e6f7420706175736564000000000000000000000000604482015290519081900360640190fd5b7ff23a6e61000000000000000000000000000000000000000000000000000000006001600160a01b03851663f23a6e6161376c6119d9565b888787876040518663ffffffff1660e01b815260040180866001600160a01b03168152602001856001600160a01b0316815260200184815260200183815260200180602001828103825283818151815260200191508051906020019080838360005b838110156137e65781810151838201526020016137ce565b50505050905090810190601f1680156138135780820380516001836020036101000a031916815260200191505b509650505050505050602060405180830381600087803b158015612fac57600080fd5b816138496001600160a01b038216612e28565b61389a576040805162461bcd60e51b815260206004820152601a60248201527f4552433230577261707065723a206e6f6e2d636f6e7472616374000000000000604482015290519081900360640190fd5b600080826001600160a01b0316846040518082805190602001908083835b602083106138d75780518252601f1990920191602091820191016138b8565b6001836020036101000a0380198251168184511680821785525050505050509050019150506000604051808303816000865af19150503d8060008114613939576040519150601f19603f3d011682016040523d82523d6000602084013e61393e565b606091505b509150915081156139bd578051156139b85780806020019051602081101561396557600080fd5b50516139b8576040805162461bcd60e51b815260206004820152601e60248201527f4552433230577261707065723a206f7065726174696f6e206661696c65640000604482015290519081900360640190fd5b6110a8565b8051613a10576040805162461bcd60e51b815260206004820152601e60248201527f4552433230577261707065723a206f7065726174696f6e206661696c65640000604482015290519081900360640190fd5b80518082602001fd5b80613a6b576040805162461bcd60e51b815260206004820152601560248201527f496e76656e746f72793a207a65726f2076616c75650000000000000000000000604482015290519081900360640190fd5b60008281526001602090815260408083206001600160a01b038816845290915290205481811015613ae3576040805162461bcd60e51b815260206004820152601d60248201527f496e76656e746f72793a206e6f7420656e6f7567682062616c616e6365000000604482015290519081900360640190fd5b836001600160a01b0316856001600160a01b0316146110a85760009283526001602090815260408085206001600160a01b039788168652909152808420918390039091559290931681522080549091019055565b81600114613b8c576040805162461bcd60e51b815260206004820152601a60248201527f496e76656e746f72793a2077726f6e67204e46542076616c7565000000000000604482015290519081900360640190fd5b6000838152600360205260409020546001600160a01b03868116911614613bfa576040805162461bcd60e51b815260206004820152601860248201527f496e76656e746f72793a206e6f6e2d6f776e6564204e46540000000000000000604482015290519081900360640190fd5b60008381526003602052604090206001600160a01b0385169055806110a8576000613c24846126d5565b60009081526001602081815260408084206001600160a01b039a8b168552909152808320805460001901905596909716815294909420805490950190945550505050565b7fffffffffffffffffffffffffffffffffffffffffffffffffffffffffffffffec36013560601c90565b826001600160a01b0316846001600160a01b03161461106a5760009182526001602090815260408084206001600160a01b039687168552909152808320805483900390559290931681522080549091019055565b828054600181600116156101000203166002900490600052602060002090601f016020900481019282613d1c5760008555613d62565b82601f10613d355782800160ff19823516178555613d62565b82800160010185558215613d62579182015b82811115613d62578235825591602001919060010190613d47565b50613d6e929150613d72565b5090565b5b80821115613d6e5760008155600101613d7356fea26469706673582212208f520928a9e0d07580d3442444539e221002bd30fd315499dd4df8e5af3f00c864736f6c63430007060033",
  "linkReferences": {},
  "deployedLinkReferences": {}
}