{
  "_format": "hh-sol-artifact-1",
  "contractName": "TokenLaunchpadVouchersMock",
  "sourceName": "contracts/mock/token/ERC1155/TokenLaunchpadVouchersMock.sol",
  "abi": [
    {
      "inputs": [
        {
          "internalType": "contract IForwarderRegistry",
          "name": "forwarderRegistry",
          "type": "address"
        },
        {
          "internalType": "address",
          "name": "universalForwarder",
          "type": "address"
        }
      ],
      "stateMutability": "nonpayable",
      "type": "constructor"
    },
    {
      "anonymous": false,
      "inputs": [
        {
          "indexed": true,
          "internalType": "address",
          "name": "_owner",
          "type": "address"
        },
        {
          "indexed": true,
          "internalType": "address",
          "name": "_operator",
          "type": "address"
        },
        {
          "indexed": false,
          "internalType": "bool",
          "name": "_approved",
          "type": "bool"
        }
      ],
      "name": "ApprovalForAll",
      "type": "event"
    },
    {
      "anonymous": false,
      "inputs": [
        {
          "indexed": false,
          "internalType": "string",
          "name": "baseMetadataURI",
          "type": "string"
        }
      ],
      "name": "BaseMetadataURISet",
      "type": "event"
    },
    {
      "anonymous": false,
      "inputs": [
        {
          "indexed": true,
          "internalType": "uint256",
          "name": "collectionId",
          "type": "uint256"
        },
        {
          "indexed": true,
          "internalType": "bool",
          "name": "fungible",
          "type": "bool"
        }
      ],
      "name": "CollectionCreated",
      "type": "event"
    },
    {
      "anonymous": false,
      "inputs": [
        {
          "indexed": true,
          "internalType": "address",
          "name": "account",
          "type": "address"
        }
      ],
      "name": "MinterAdded",
      "type": "event"
    },
    {
      "anonymous": false,
      "inputs": [
        {
          "indexed": true,
          "internalType": "address",
          "name": "account",
          "type": "address"
        }
      ],
      "name": "MinterRemoved",
      "type": "event"
    },
    {
      "anonymous": false,
      "inputs": [
        {
          "indexed": true,
          "internalType": "address",
          "name": "previousOwner",
          "type": "address"
        },
        {
          "indexed": true,
          "internalType": "address",
          "name": "newOwner",
          "type": "address"
        }
      ],
      "name": "OwnershipTransferred",
      "type": "event"
    },
    {
      "anonymous": false,
      "inputs": [
        {
          "indexed": false,
          "internalType": "address",
          "name": "account",
          "type": "address"
        }
      ],
      "name": "Paused",
      "type": "event"
    },
    {
      "anonymous": false,
      "inputs": [
        {
          "indexed": true,
          "internalType": "address",
          "name": "_operator",
          "type": "address"
        },
        {
          "indexed": true,
          "internalType": "address",
          "name": "_from",
          "type": "address"
        },
        {
          "indexed": true,
          "internalType": "address",
          "name": "_to",
          "type": "address"
        },
        {
          "indexed": false,
          "internalType": "uint256[]",
          "name": "_ids",
          "type": "uint256[]"
        },
        {
          "indexed": false,
          "internalType": "uint256[]",
          "name": "_values",
          "type": "uint256[]"
        }
      ],
      "name": "TransferBatch",
      "type": "event"
    },
    {
      "anonymous": false,
      "inputs": [
        {
          "indexed": true,
          "internalType": "address",
          "name": "_operator",
          "type": "address"
        },
        {
          "indexed": true,
          "internalType": "address",
          "name": "_from",
          "type": "address"
        },
        {
          "indexed": true,
          "internalType": "address",
          "name": "_to",
          "type": "address"
        },
        {
          "indexed": false,
          "internalType": "uint256",
          "name": "_id",
          "type": "uint256"
        },
        {
          "indexed": false,
          "internalType": "uint256",
          "name": "_value",
          "type": "uint256"
        }
      ],
      "name": "TransferSingle",
      "type": "event"
    },
    {
      "anonymous": false,
      "inputs": [
        {
          "indexed": false,
          "internalType": "string",
          "name": "_value",
          "type": "string"
        },
        {
          "indexed": true,
          "internalType": "uint256",
          "name": "_id",
          "type": "uint256"
        }
      ],
      "name": "URI",
      "type": "event"
    },
    {
      "anonymous": false,
      "inputs": [
        {
          "indexed": false,
          "internalType": "address",
          "name": "account",
          "type": "address"
        }
      ],
      "name": "Unpaused",
      "type": "event"
    },
    {
      "inputs": [
        {
          "internalType": "address",
          "name": "account",
          "type": "address"
        }
      ],
      "name": "addMinter",
      "outputs": [],
      "stateMutability": "nonpayable",
      "type": "function"
    },
    {
      "inputs": [
        {
          "internalType": "address",
          "name": "owner",
          "type": "address"
        },
        {
          "internalType": "uint256",
          "name": "id",
          "type": "uint256"
        }
      ],
      "name": "balanceOf",
      "outputs": [
        {
          "internalType": "uint256",
          "name": "",
          "type": "uint256"
        }
      ],
      "stateMutability": "view",
      "type": "function"
    },
    {
      "inputs": [
        {
          "internalType": "address[]",
          "name": "owners",
          "type": "address[]"
        },
        {
          "internalType": "uint256[]",
          "name": "ids",
          "type": "uint256[]"
        }
      ],
      "name": "balanceOfBatch",
      "outputs": [
        {
          "internalType": "uint256[]",
          "name": "",
          "type": "uint256[]"
        }
      ],
      "stateMutability": "view",
      "type": "function"
    },
    {
      "inputs": [],
      "name": "baseMetadataURI",
      "outputs": [
        {
          "internalType": "string",
          "name": "",
          "type": "string"
        }
      ],
      "stateMutability": "view",
      "type": "function"
    },
    {
      "inputs": [
        {
          "internalType": "address",
          "name": "from",
          "type": "address"
        },
        {
          "internalType": "uint256[]",
          "name": "ids",
          "type": "uint256[]"
        },
        {
          "internalType": "uint256[]",
          "name": "values",
          "type": "uint256[]"
        }
      ],
      "name": "batchBurnFrom",
      "outputs": [],
      "stateMutability": "nonpayable",
      "type": "function"
    },
    {
      "inputs": [
        {
          "internalType": "address",
          "name": "from",
          "type": "address"
        },
        {
          "internalType": "uint256",
          "name": "id",
          "type": "uint256"
        },
        {
          "internalType": "uint256",
          "name": "value",
          "type": "uint256"
        }
      ],
      "name": "burnFrom",
      "outputs": [],
      "stateMutability": "nonpayable",
      "type": "function"
    },
    {
      "inputs": [
        {
          "internalType": "uint256",
          "name": "nftId",
          "type": "uint256"
        }
      ],
      "name": "collectionOf",
      "outputs": [
        {
          "internalType": "uint256",
          "name": "",
          "type": "uint256"
        }
      ],
      "stateMutability": "pure",
      "type": "function"
    },
    {
      "inputs": [
        {
          "internalType": "uint256",
          "name": "collectionId",
          "type": "uint256"
        }
      ],
      "name": "createCollection",
      "outputs": [],
      "stateMutability": "nonpayable",
      "type": "function"
    },
    {
      "inputs": [
        {
          "internalType": "uint256",
          "name": "collectionId",
          "type": "uint256"
        }
      ],
      "name": "creator",
      "outputs": [
        {
          "internalType": "address",
          "name": "",
          "type": "address"
        }
      ],
      "stateMutability": "view",
      "type": "function"
    },
    {
      "inputs": [
        {
          "internalType": "address",
          "name": "tokenOwner",
          "type": "address"
        },
        {
          "internalType": "address",
          "name": "operator",
          "type": "address"
        }
      ],
      "name": "isApprovedForAll",
      "outputs": [
        {
          "internalType": "bool",
          "name": "",
          "type": "bool"
        }
      ],
      "stateMutability": "view",
      "type": "function"
    },
    {
      "inputs": [
        {
          "internalType": "uint256",
          "name": "id",
          "type": "uint256"
        }
      ],
      "name": "isFungible",
      "outputs": [
        {
          "internalType": "bool",
          "name": "",
          "type": "bool"
        }
      ],
      "stateMutability": "pure",
      "type": "function"
    },
    {
      "inputs": [
        {
          "internalType": "address",
          "name": "",
          "type": "address"
        }
      ],
      "name": "isMinter",
      "outputs": [
        {
          "internalType": "bool",
          "name": "",
          "type": "bool"
        }
      ],
      "stateMutability": "view",
      "type": "function"
    },
    {
      "inputs": [
        {
          "internalType": "address",
          "name": "forwarder",
          "type": "address"
        }
      ],
      "name": "isTrustedForwarder",
      "outputs": [
        {
          "internalType": "bool",
          "name": "",
          "type": "bool"
        }
      ],
      "stateMutability": "view",
      "type": "function"
    },
    {
      "inputs": [],
      "name": "msgData",
      "outputs": [
        {
          "internalType": "bytes",
          "name": "ret",
          "type": "bytes"
        }
      ],
      "stateMutability": "view",
      "type": "function"
    },
    {
      "inputs": [],
      "name": "owner",
      "outputs": [
        {
          "internalType": "address",
          "name": "",
          "type": "address"
        }
      ],
      "stateMutability": "view",
      "type": "function"
    },
    {
      "inputs": [
        {
          "internalType": "uint256",
          "name": "nftId",
          "type": "uint256"
        }
      ],
      "name": "ownerOf",
      "outputs": [
        {
          "internalType": "address",
          "name": "",
          "type": "address"
        }
      ],
      "stateMutability": "view",
      "type": "function"
    },
    {
      "inputs": [],
      "name": "pause",
      "outputs": [],
      "stateMutability": "nonpayable",
      "type": "function"
    },
    {
      "inputs": [],
      "name": "paused",
      "outputs": [
        {
          "internalType": "bool",
          "name": "",
          "type": "bool"
        }
      ],
      "stateMutability": "view",
      "type": "function"
    },
    {
      "inputs": [
        {
          "internalType": "address[]",
          "name": "accounts",
          "type": "address[]"
        },
        {
          "internalType": "address[]",
          "name": "tokens",
          "type": "address[]"
        },
        {
          "internalType": "uint256[]",
          "name": "amounts",
          "type": "uint256[]"
        }
      ],
      "name": "recoverERC20s",
      "outputs": [],
      "stateMutability": "nonpayable",
      "type": "function"
    },
    {
      "inputs": [
        {
          "internalType": "address[]",
          "name": "accounts",
          "type": "address[]"
        },
        {
          "internalType": "address[]",
          "name": "contracts",
          "type": "address[]"
        },
        {
          "internalType": "uint256[]",
          "name": "tokenIds",
          "type": "uint256[]"
        }
      ],
      "name": "recoverERC721s",
      "outputs": [],
      "stateMutability": "nonpayable",
      "type": "function"
    },
    {
      "inputs": [],
      "name": "renounceMinter",
      "outputs": [],
      "stateMutability": "nonpayable",
      "type": "function"
    },
    {
      "inputs": [
        {
          "internalType": "address",
          "name": "to",
          "type": "address"
        },
        {
          "internalType": "uint256[]",
          "name": "ids",
          "type": "uint256[]"
        },
        {
          "internalType": "uint256[]",
          "name": "values",
          "type": "uint256[]"
        },
        {
          "internalType": "bytes",
          "name": "data",
          "type": "bytes"
        }
      ],
      "name": "safeBatchMint",
      "outputs": [],
      "stateMutability": "nonpayable",
      "type": "function"
    },
    {
      "inputs": [
        {
          "internalType": "address",
          "name": "from",
          "type": "address"
        },
        {
          "internalType": "address",
          "name": "to",
          "type": "address"
        },
        {
          "internalType": "uint256[]",
          "name": "ids",
          "type": "uint256[]"
        },
        {
          "internalType": "uint256[]",
          "name": "values",
          "type": "uint256[]"
        },
        {
          "internalType": "bytes",
          "name": "data",
          "type": "bytes"
        }
      ],
      "name": "safeBatchTransferFrom",
      "outputs": [],
      "stateMutability": "nonpayable",
      "type": "function"
    },
    {
      "inputs": [
        {
          "internalType": "address",
          "name": "to",
          "type": "address"
        },
        {
          "internalType": "uint256",
          "name": "id",
          "type": "uint256"
        },
        {
          "internalType": "uint256",
          "name": "value",
          "type": "uint256"
        },
        {
          "internalType": "bytes",
          "name": "data",
          "type": "bytes"
        }
      ],
      "name": "safeMint",
      "outputs": [],
      "stateMutability": "nonpayable",
      "type": "function"
    },
    {
      "inputs": [
        {
          "internalType": "address",
          "name": "from",
          "type": "address"
        },
        {
          "internalType": "address",
          "name": "to",
          "type": "address"
        },
        {
          "internalType": "uint256",
          "name": "id",
          "type": "uint256"
        },
        {
          "internalType": "uint256",
          "name": "value",
          "type": "uint256"
        },
        {
          "internalType": "bytes",
          "name": "data",
          "type": "bytes"
        }
      ],
      "name": "safeTransferFrom",
      "outputs": [],
      "stateMutability": "nonpayable",
      "type": "function"
    },
    {
      "inputs": [
        {
          "internalType": "address",
          "name": "operator",
          "type": "address"
        },
        {
          "internalType": "bool",
          "name": "approved",
          "type": "bool"
        }
      ],
      "name": "setApprovalForAll",
      "outputs": [],
      "stateMutability": "nonpayable",
      "type": "function"
    },
    {
      "inputs": [
        {
          "internalType": "string",
          "name": "baseMetadataURI_",
          "type": "string"
        }
      ],
      "name": "setBaseMetadataURI",
      "outputs": [],
      "stateMutability": "nonpayable",
      "type": "function"
    },
    {
      "inputs": [
        {
          "internalType": "bytes4",
          "name": "interfaceId",
          "type": "bytes4"
        }
      ],
      "name": "supportsInterface",
      "outputs": [
        {
          "internalType": "bool",
          "name": "",
          "type": "bool"
        }
      ],
      "stateMutability": "view",
      "type": "function"
    },
    {
      "inputs": [
        {
          "internalType": "uint256",
          "name": "id",
          "type": "uint256"
        }
      ],
      "name": "totalSupply",
      "outputs": [
        {
          "internalType": "uint256",
          "name": "",
          "type": "uint256"
        }
      ],
      "stateMutability": "view",
      "type": "function"
    },
    {
      "inputs": [
        {
          "internalType": "address",
          "name": "newOwner",
          "type": "address"
        }
      ],
      "name": "transferOwnership",
      "outputs": [],
      "stateMutability": "nonpayable",
      "type": "function"
    },
    {
      "inputs": [],
      "name": "unpause",
      "outputs": [],
      "stateMutability": "nonpayable",
      "type": "function"
    },
    {
      "inputs": [
        {
          "internalType": "uint256",
          "name": "id",
          "type": "uint256"
        }
      ],
      "name": "uri",
      "outputs": [
        {
          "internalType": "string",
          "name": "",
          "type": "string"
        }
      ],
      "stateMutability": "view",
      "type": "function"
    }
  ],
  "bytecode": "0x60c06040523480156200001157600080fd5b50604051620040d9380380620040d9833981810160405260408110156200003757600080fd5b508051602090910151600580546001600160a01b031916339081179091556040518391839183918391600091908190819084907f8be0079c531659141344cd1fd0a4f28419497f9722a3daafe3b4186f6b6457e0908290a3506200009b81620000d3565b506008805460ff1916911515919091179055606090811b6001600160601b031990811660a05291901b16608052506200011f92505050565b6001600160a01b038116600081815260076020526040808220805460ff19166001179055517f6ae172837ea30b801fbfcdd4108aa1d5bf8ff775444fd70256b44e6bf3dfc3f69190a250565b60805160601c60a05160601c613f7262000167600039806111bd5280612b2d5280613a7e5250806111f85280612af25280612b855280613a545280613adf5250613f726000f3fe608060405234801561001057600080fd5b50600436106101ef5760003560e01c8063805349341161010f578063bd85b039116100a2578063d0011d9d11610071578063d0011d9d14610de0578063e985e9c514610dfd578063f242432a14610e2b578063f2fde38b14610ef6576101ef565b8063bd85b03914610c8a578063c3666c3614610ca7578063c4c2bfdc14610dbb578063c7778baa14610dc3576101ef565b806398650275116100de5780639865027514610c11578063a22cb46514610c19578063aa271e1a14610c47578063adebf6f214610c6d576101ef565b80638053493414610aa45780638456cb5914610bdb5780638da5cb5b14610be3578063983b2d5614610beb576101ef565b8063510b5158116101875780635cfa9297116101565780635cfa9297146108415780636352211e1461090357806373c8a958146109205780637e518ec814610a34576101ef565b8063510b5158146107d2578063572b6c051461080b5780635b2bd79e146108315780635c975abb14610839576101ef565b8063124d91e5116101c3578063124d91e5146104bf5780632eb2c2d6146104f15780633f4ba83a146106b85780634e1273f4146106c0576101ef565b8062fdd58e146101f457806301ffc9a7146102325780630d6a5bbb1461026d5780630e89341c1461042d575b600080fd5b6102206004803603604081101561020a57600080fd5b506001600160a01b038135169060200135610f1c565b60408051918252519081900360200190f35b6102596004803603602081101561024857600080fd5b50356001600160e01b031916610fe7565b604080519115158252519081900360200190f35b61042b6004803603608081101561028357600080fd5b6001600160a01b0382351691908101906040810160208201356401000000008111156102ae57600080fd5b8201836020820111156102c057600080fd5b803590602001918460208302840111640100000000831117156102e257600080fd5b919080806020026020016040519081016040528093929190818152602001838360200280828437600092019190915250929594936020810193503591505064010000000081111561033257600080fd5b82018360208201111561034457600080fd5b8035906020019184602083028401116401000000008311171561036657600080fd5b91908080602002602001604051908101604052809392919081815260200183836020028082843760009201919091525092959493602081019350359150506401000000008111156103b657600080fd5b8201836020820111156103c857600080fd5b803590602001918460018302840111640100000000831117156103ea57600080fd5b91908080601f01602080910402602001604051908101604052809392919081815260200183838082843760009201919091525092955061102d945050505050565b005b61044a6004803603602081101561044357600080fd5b503561104f565b6040805160208082528351818301528351919283929083019185019080838360005b8381101561048457818101518382015260200161046c565b50505050905090810190601f1680156104b15780820380516001836020036101000a031916815260200191505b509250505060405180910390f35b61042b600480360360608110156104d557600080fd5b506001600160a01b03813516906020810135906040013561105a565b61042b600480360360a081101561050757600080fd5b6001600160a01b03823581169260208101359091169181019060608101604082013564010000000081111561053b57600080fd5b82018360208201111561054d57600080fd5b8035906020019184602083028401116401000000008311171561056f57600080fd5b91908080602002602001604051908101604052809392919081815260200183836020028082843760009201919091525092959493602081019350359150506401000000008111156105bf57600080fd5b8201836020820111156105d157600080fd5b803590602001918460208302840111640100000000831117156105f357600080fd5b919080806020026020016040519081016040528093929190818152602001838360200280828437600092019190915250929594936020810193503591505064010000000081111561064357600080fd5b82018360208201111561065557600080fd5b8035906020019184600183028401116401000000008311171561067757600080fd5b91908080601f016020809104026020016040519081016040528093929190818152602001838380828437600092019190915250929550611072945050505050565b61042b61108e565b610782600480360360408110156106d657600080fd5b8101906020810181356401000000008111156106f157600080fd5b82018360208201111561070357600080fd5b8035906020019184602083028401116401000000008311171561072557600080fd5b91939092909160208101903564010000000081111561074357600080fd5b82018360208201111561075557600080fd5b8035906020019184602083028401116401000000008311171561077757600080fd5b5090925090506110a8565b60408051602080825283518183015283519192839290830191858101910280838360005b838110156107be5781810151838201526020016107a6565b505050509050019250505060405180910390f35b6107ef600480360360208110156107e857600080fd5b50356111ae565b604080516001600160a01b039092168252519081900360200190f35b6102596004803603602081101561082157600080fd5b50356001600160a01b03166111b9565b61044a611232565b6102596112c0565b61042b6004803603608081101561085757600080fd5b6001600160a01b03823516916020810135916040820135919081019060808101606082013564010000000081111561088e57600080fd5b8201836020820111156108a057600080fd5b803590602001918460018302840111640100000000831117156108c257600080fd5b91908080601f0160208091040260200160405190810160405280939291908181526020018383808284376000920191909152509295506112c9945050505050565b6107ef6004803603602081101561091957600080fd5b50356112e0565b61042b6004803603606081101561093657600080fd5b81019060208101813564010000000081111561095157600080fd5b82018360208201111561096357600080fd5b8035906020019184602083028401116401000000008311171561098557600080fd5b9193909290916020810190356401000000008111156109a357600080fd5b8201836020820111156109b557600080fd5b803590602001918460208302840111640100000000831117156109d757600080fd5b9193909290916020810190356401000000008111156109f557600080fd5b820183602082011115610a0757600080fd5b80359060200191846020830284011164010000000083111715610a2957600080fd5b50909250905061134a565b61042b60048036036020811015610a4a57600080fd5b810190602081018135640100000000811115610a6557600080fd5b820183602082011115610a7757600080fd5b80359060200191846001830284011164010000000083111715610a9957600080fd5b509092509050611437565b61042b60048036036060811015610aba57600080fd5b6001600160a01b038235169190810190604081016020820135640100000000811115610ae557600080fd5b820183602082011115610af757600080fd5b80359060200191846020830284011164010000000083111715610b1957600080fd5b9190808060200260200160405190810160405280939291908181526020018383602002808284376000920191909152509295949360208101935035915050640100000000811115610b6957600080fd5b820183602082011115610b7b57600080fd5b80359060200191846020830284011164010000000083111715610b9d57600080fd5b9190808060200260200160405190810160405280939291908181526020018383602002808284376000920191909152509295506114b3945050505050565b61042b6114c6565b6107ef6114d9565b61042b60048036036020811015610c0157600080fd5b50356001600160a01b03166114e9565b61042b611500565b61042b60048036036040811015610c2f57600080fd5b506001600160a01b038135169060200135151561155e565b61025960048036036020811015610c5d57600080fd5b50356001600160a01b031661163d565b61025960048036036020811015610c8357600080fd5b5035611652565b61022060048036036020811015610ca057600080fd5b503561165d565b61042b60048036036060811015610cbd57600080fd5b810190602081018135640100000000811115610cd857600080fd5b820183602082011115610cea57600080fd5b80359060200191846020830284011164010000000083111715610d0c57600080fd5b919390929091602081019035640100000000811115610d2a57600080fd5b820183602082011115610d3c57600080fd5b80359060200191846020830284011164010000000083111715610d5e57600080fd5b919390929091602081019035640100000000811115610d7c57600080fd5b820183602082011115610d8e57600080fd5b80359060200191846020830284011164010000000083111715610db057600080fd5b5090925090506116b3565b61044a6117fb565b61022060048036036020811015610dd957600080fd5b503561180a565b61042b60048036036020811015610df657600080fd5b503561186f565b61025960048036036040811015610e1357600080fd5b506001600160a01b0381358116916020013516611883565b61042b600480360360a0811015610e4157600080fd5b6001600160a01b03823581169260208101359091169160408201359160608101359181019060a081016080820135640100000000811115610e8157600080fd5b820183602082011115610e9357600080fd5b80359060200191846001830284011164010000000083111715610eb557600080fd5b91908080601f0160208091040260200160405190810160405280939291908181526020018383808284376000920191909152509295506118af945050505050565b61042b60048036036020811015610f0c57600080fd5b50356001600160a01b03166118c4565b60006001600160a01b038316610f79576040805162461bcd60e51b815260206004820152601760248201527f496e76656e746f72793a207a65726f2061646472657373000000000000000000604482015290519081900360640190fd5b610f8282611937565b15610fbc576000828152600360205260409020546001600160a01b03848116911614610faf576000610fb2565b60015b60ff169050610fe1565b5060008181526001602090815260408083206001600160a01b03861684529091529020545b92915050565b60006001600160e01b031982167f510b5158000000000000000000000000000000000000000000000000000000001480611025575061102582611989565b90505b919050565b61103d6110386119c7565b6119d1565b61104984848484611a3e565b50505050565b606061102582611da6565b611062611e79565b61106d838383611ed1565b505050565b61107a611e79565b6110878585858585611fd5565b5050505050565b61109e6110996119c7565b611fe2565b6110a66120a6565b565b60608382146110fe576040805162461bcd60e51b815260206004820152601e60248201527f496e76656e746f72793a20696e636f6e73697374656e74206172726179730000604482015290519081900360640190fd5b60008467ffffffffffffffff8111801561111757600080fd5b50604051908082528060200260200182016040528015611141578160200160208202803683370190505b50905060005b8086146111a45761118587878381811061115d57fe5b905060200201356001600160a01b031686868481811061117957fe5b90506020020135610f1c565b82828151811061119157fe5b6020908102919091010152600101611147565b5095945050505050565b6000611025826120fe565b60007f00000000000000000000000000000000000000000000000000000000000000006001600160a01b0316826001600160a01b0316148061102557507f00000000000000000000000000000000000000000000000000000000000000006001600160a01b0316826001600160a01b0316149050919050565b6006805460408051602060026001851615610100026000190190941693909304601f810184900484028201840190925281815292918301828280156112b85780601f1061128d576101008083540402835291602001916112b8565b820191906000526020600020905b81548152906001019060200180831161129b57829003601f168201915b505050505081565b60085460ff1681565b6112d46110386119c7565b61104984848484612177565b6000818152600360205260408120546001600160a01b038116611025576040805162461bcd60e51b815260206004820152601b60248201527f496e76656e746f72793a206e6f6e2d6578697374696e67204e46540000000000604482015290519081900360640190fd5b6113556110996119c7565b84838114801561136457508082145b6113b5576040805162461bcd60e51b815260206004820152601a60248201527f5265636f763a20696e636f6e73697374656e7420617272617973000000000000604482015290519081900360640190fd5b60005b81811461142d576114258888838181106113ce57fe5b905060200201356001600160a01b03168585848181106113ea57fe5b905060200201358888858181106113fd57fe5b905060200201356001600160a01b03166001600160a01b031661228c9092919063ffffffff16565b6001016113b8565b5050505050505050565b6114426110996119c7565b61144e60068383613e73565b507f04b1dc5c136a3ce9fded8db0ce3d3366c58764ec3a8e4c2b9e52e4ddfe5ebbf7828260405180806020018281038252848482818152602001925080828437600083820152604051601f909101601f19169092018290039550909350505050a15050565b6114bb611e79565b61106d83838361230c565b6114d16110996119c7565b6110a661260e565b6005546001600160a01b03165b90565b6114f46110996119c7565b6114fd8161264c565b50565b600061150a6119c7565b9050611515816119d1565b6001600160a01b038116600081815260076020526040808220805460ff19169055517fe94479a9f7e1952cc78f2d6baab678adc1b772d936c6583def489e524cb666929190a250565b60006115686119c7565b9050806001600160a01b0316836001600160a01b031614156115d1576040805162461bcd60e51b815260206004820152601860248201527f496e76656e746f72793a2073656c662d617070726f76616c0000000000000000604482015290519081900360640190fd5b6001600160a01b0381811660008181526020818152604080832094881680845294825291829020805460ff1916871515908117909155825190815291517f17307eab39ab6107e8899845ad3d59bd9653f200f220920489ca2b5937696c319281900390910190a3505050565b60076020526000908152604090205460ff1681565b600061102582612698565b600061166882611937565b1561169e576000828152600360205260409020546001600160a01b031615611691576001611694565b60005b60ff169050611028565b50600081815260026020526040902054611028565b6116be6110996119c7565b8483811480156116cd57508082145b61171e576040805162461bcd60e51b815260206004820152601a60248201527f5265636f763a20696e636f6e73697374656e7420617272617973000000000000604482015290519081900360640190fd5b60005b81811461142d5785858281811061173457fe5b905060200201356001600160a01b03166001600160a01b03166323b872dd308a8a8581811061175f57fe5b905060200201356001600160a01b031687878681811061177b57fe5b905060200201356040518463ffffffff1660e01b815260040180846001600160a01b03168152602001836001600160a01b031681526020018281526020019350505050600060405180830381600087803b1580156117d857600080fd5b505af11580156117ec573d6000803e3d6000fd5b50505050806001019050611721565b60606118056126be565b905090565b600061181582611937565b611866576040805162461bcd60e51b815260206004820152601560248201527f496e76656e746f72793a206e6f7420616e204e46540000000000000000000000604482015290519081900360640190fd5b61102582612702565b61187a6110996119c7565b6114fd8161270f565b6001600160a01b0391821660009081526020818152604080832093909416825291909152205460ff1690565b6118b7611e79565b611087858585858561285b565b6118cf6110996119c7565b600580547fffffffffffffffffffffffff0000000000000000000000000000000000000000166001600160a01b0383811691821792839055604051919216907f8be0079c531659141344cd1fd0a4f28419497f9722a3daafe3b4186f6b6457e090600090a350565b60007f80000000000000000000000000000000000000000000000000000000000000008216158015906110255750507bffffffffffffffffffffffffffffffffffffffffffffffffffffffff16151590565b60006001600160e01b031982167f921ed8d10000000000000000000000000000000000000000000000000000000014806110255750611025826129e1565b6000611805612ae2565b6001600160a01b03811660009081526007602052604090205460ff166114fd576040805162461bcd60e51b815260206004820152601860248201527f4d696e746572526f6c653a206e6f742061204d696e7465720000000000000000604482015290519081900360640190fd5b6001600160a01b038416611a99576040805162461bcd60e51b815260206004820152601760248201527f496e76656e746f72793a206d696e7420746f207a65726f000000000000000000604482015290519081900360640190fd5b825182518114611af0576040805162461bcd60e51b815260206004820152601e60248201527f496e76656e746f72793a20696e636f6e73697374656e74206172726179730000604482015290519081900360640190fd5b60008060005b838114611c60576000878281518110611b0b57fe5b602002602001015190506000878381518110611b2357fe5b60200260200101519050611b3682612698565b15611b4b57611b468a8383612c42565b611c56565b611b5482611937565b15611c0957611b668a83836001612d34565b6000611b7183612702565b905085611b845780955060019450611c03565b858114611bfc57846001600088815260200190815260200160002060008d6001600160a01b03166001600160a01b031681526020019081526020016000206000828254019250508190555084600260008881526020019081526020016000206000828254019250508190555080955060019450611c03565b8460010194505b50611c56565b6040805162461bcd60e51b815260206004820152601960248201527f496e76656e746f72793a206e6f74206120746f6b656e20696400000000000000604482015290519081900360640190fd5b5050600101611af6565b508115611ca05760008281526001602090815260408083206001600160a01b038b1684528252808320805485019055848352600290915290208054820190555b6001600160a01b0387166000611cb46119c7565b6001600160a01b03167f4a39dc06d4c0dbc64b70af90fd698a233a518aa5d07e595d983b8c0526c8f7fb8989604051808060200180602001838103835285818151815260200191508051906020019060200280838360005b83811015611d24578181015183820152602001611d0c565b50505050905001838103825284818151815260200191508051906020019060200280838360005b83811015611d63578181015183820152602001611d4b565b5050505090500194505050505060405180910390a4611d8a876001600160a01b0316612e55565b15611d9d57611d9d600088888888612e5b565b50505050505050565b60606006611db383613061565b6040516020018083805460018160011615610100020316600290048015611e115780601f10611def576101008083540402835291820191611e11565b820191906000526020600020905b815481529060010190602001808311611dfd575b5050825160208401908083835b60208310611e3d5780518252601f199092019160209182019101611e1e565b6001836020036101000a038019825116818451168082178552505050505050905001925050506040516020818303038152906040529050919050565b60085460ff16156110a6576040805162461bcd60e51b815260206004820152601060248201527f5061757361626c653a2070617573656400000000000000000000000000000000604482015290519081900360640190fd5b6000611edb6119c7565b9050611ee78482613170565b611f38576040805162461bcd60e51b815260206004820152601e60248201527f496e76656e746f72793a206e6f6e2d617070726f7665642073656e6465720000604482015290519081900360640190fd5b611f4183612698565b15611f5657611f518484846131bc565b611f71565b611f5f83611937565b15611c0957611f5184848460006132c5565b60006001600160a01b0316846001600160a01b0316826001600160a01b03167fc3d58168c5ae7397731d063d5bbf3d657854427343f4c083240f7aacaa2d0f628686604051808381526020018281526020019250505060405180910390a450505050565b611087858585858561340e565b306001600160a01b0316638da5cb5b6040518163ffffffff1660e01b815260040160206040518083038186803b15801561201b57600080fd5b505afa15801561202f573d6000803e3d6000fd5b505050506040513d602081101561204557600080fd5b50516001600160a01b038281169116146114fd576040805162461bcd60e51b815260206004820152601660248201527f4f776e61626c653a206e6f7420746865206f776e657200000000000000000000604482015290519081900360640190fd5b6120ae61370a565b6008805460ff191690557f5db9ee0a495bf2e6ff9c91a7834c1ba4fdd244a5e8aa4e537bd38aeae4b073aa6120e16119c7565b604080516001600160a01b039092168252519081900360200190a1565b600061210982611937565b1561215b576040805162461bcd60e51b815260206004820152601b60248201527f496e76656e746f72793a206e6f74206120636f6c6c656374696f6e0000000000604482015290519081900360640190fd5b506000908152600460205260409020546001600160a01b031690565b6001600160a01b0384166121d2576040805162461bcd60e51b815260206004820152601760248201527f496e76656e746f72793a206d696e7420746f207a65726f000000000000000000604482015290519081900360640190fd5b6121db83612698565b156121f0576121eb848484612c42565b61220b565b6121f983611937565b15611c09576121eb8484846000612d34565b6001600160a01b038416600061221f6119c7565b6001600160a01b03167fc3d58168c5ae7397731d063d5bbf3d657854427343f4c083240f7aacaa2d0f628686604051808381526020018281526020019250505060405180910390a4612279846001600160a01b0316612e55565b1561104957611049600085858585613761565b604080516001600160a01b038416602482015260448082018490528251808303909101815260649091019091526020810180517bffffffffffffffffffffffffffffffffffffffffffffffffffffffff167fa9059cbb0000000000000000000000000000000000000000000000000000000017905261106d908490613863565b815181518114612363576040805162461bcd60e51b815260206004820152601e60248201527f496e76656e746f72793a20696e636f6e73697374656e74206172726179730000604482015290519081900360640190fd5b600061236d6119c7565b90506123798582613170565b6123ca576040805162461bcd60e51b815260206004820152601e60248201527f496e76656e746f72793a206e6f6e2d617070726f7665642073656e6465720000604482015290519081900360640190fd5b60008060005b8481146124e95760008782815181106123e557fe5b6020026020010151905060008783815181106123fd57fe5b6020026020010151905061241082612698565b15612425576124208a83836131bc565b6124df565b61242e82611937565b15611c09576124408a838360016132c5565b600061244b83612702565b90508561245e57809550600194506124dd565b8581146124d657846001600088815260200190815260200160002060008d6001600160a01b03166001600160a01b0316815260200190815260200160002060008282540392505081905550846002600088815260200190815260200160002060008282540392505081905550809550600194506124dd565b8460010194505b505b50506001016123d0565b50811561252b5760008281526001602090815260408083206001600160a01b038b16845282528083208054859003905584835260029091529020805482900390555b60006001600160a01b0316876001600160a01b0316846001600160a01b03167f4a39dc06d4c0dbc64b70af90fd698a233a518aa5d07e595d983b8c0526c8f7fb8989604051808060200180602001838103835285818151815260200191508051906020019060200280838360005b838110156125b1578181015183820152602001612599565b50505050905001838103825284818151815260200191508051906020019060200280838360005b838110156125f05781810151838201526020016125d8565b5050505090500194505050505060405180910390a450505050505050565b612616611e79565b6008805460ff191660011790557f62e78cea01bee320cd4e420270b5ea74000d11b0c9f74754ebdbfc544b05a2586120e16119c7565b6001600160a01b038116600081815260076020526040808220805460ff19166001179055517f6ae172837ea30b801fbfcdd4108aa1d5bf8ff775444fd70256b44e6bf3dfc3f69190a250565b7f8000000000000000000000000000000000000000000000000000000000000000161590565b60606126c8613a46565b8080601f01602080910402602001604051908101604052809392919081815260200183838082843760009201919091525092935050505090565b6001600160e01b03191690565b61271881611937565b1561276a576040805162461bcd60e51b815260206004820152601b60248201527f496e76656e746f72793a206e6f74206120636f6c6c656374696f6e0000000000604482015290519081900360640190fd5b6000818152600460205260409020546001600160a01b0316156127d4576040805162461bcd60e51b815260206004820152601e60248201527f496e76656e746f72793a206578697374696e6720636f6c6c656374696f6e0000604482015290519081900360640190fd5b6127dc6119c7565b600082815260046020526040902080547fffffffffffffffffffffffff0000000000000000000000000000000000000000166001600160a01b039290921691909117905561282981612698565b1515817f4ebf8ad0df535ba5e487bc9cb27fe44120ca81c3a95d3eba79c0bd1df2ab2d5d60405160405180910390a350565b60006128656119c7565b90506001600160a01b0385166128c2576040805162461bcd60e51b815260206004820152601b60248201527f496e76656e746f72793a207472616e7366657220746f207a65726f0000000000604482015290519081900360640190fd5b6128cc8682613170565b61291d576040805162461bcd60e51b815260206004820152601e60248201527f496e76656e746f72793a206e6f6e2d617070726f7665642073656e6465720000604482015290519081900360640190fd5b61292684612698565b1561293c5761293786868686613ba9565b612958565b61294584611937565b15611c0957612937868686866000613cc7565b846001600160a01b0316866001600160a01b0316826001600160a01b03167fc3d58168c5ae7397731d063d5bbf3d657854427343f4c083240f7aacaa2d0f628787604051808381526020018281526020019250505060405180910390a46129c7856001600160a01b0316612e55565b156129d9576129d98686868686613761565b505050505050565b60006001600160e01b031982167f01ffc9a7000000000000000000000000000000000000000000000000000000001480612a4457506001600160e01b031982167fd9b67a2600000000000000000000000000000000000000000000000000000000145b80612a7857506001600160e01b031982167f0e89341c00000000000000000000000000000000000000000000000000000000145b80612aac57506001600160e01b031982167f09ce5c4600000000000000000000000000000000000000000000000000000000145b806110255750506001600160e01b0319167fbd85b039000000000000000000000000000000000000000000000000000000001490565b60003381612aee613df8565b90507f00000000000000000000000000000000000000000000000000000000000000006001600160a01b0316826001600160a01b03161480612b6157507f00000000000000000000000000000000000000000000000000000000000000006001600160a01b0316826001600160a01b0316145b15612b6f5791506114e69050565b6001600160a01b0382163214801590612c2e57507f00000000000000000000000000000000000000000000000000000000000000006001600160a01b031663e60125d682846040518363ffffffff1660e01b815260040180836001600160a01b03168152602001826001600160a01b031681526020019250505060206040518083038186803b158015612c0157600080fd5b505afa158015612c15573d6000803e3d6000fd5b505050506040513d6020811015612c2b57600080fd5b50515b15612c3c5791506114e69050565b50905090565b80612c94576040805162461bcd60e51b815260206004820152601560248201527f496e76656e746f72793a207a65726f2076616c75650000000000000000000000604482015290519081900360640190fd5b600082815260026020526040902054818101818111612cfa576040805162461bcd60e51b815260206004820152601a60248201527f496e76656e746f72793a20737570706c79206f766572666c6f77000000000000604482015290519081900360640190fd5b600093845260026020908152604080862092909255600181528185206001600160a01b039096168552949094525091902080549091019055565b81600114612d89576040805162461bcd60e51b815260206004820152601a60248201527f496e76656e746f72793a2077726f6e67204e46542076616c7565000000000000604482015290519081900360640190fd5b60008381526003602052604090205415612dea576040805162461bcd60e51b815260206004820152601d60248201527f496e76656e746f72793a206578697374696e672f6275726e74204e4654000000604482015290519081900360640190fd5b60008381526003602052604090206001600160a01b038516905580611049576000612e1484612702565b6000908152600260209081526040808320805460019081019091558083528184206001600160a01b038a168552909252909120805490910190555050505050565b3b151590565b7fbc197c81000000000000000000000000000000000000000000000000000000006001600160a01b03851663bc197c81612e936119c7565b888787876040518663ffffffff1660e01b815260040180866001600160a01b03168152602001856001600160a01b03168152602001806020018060200180602001848103845287818151815260200191508051906020019060200280838360005b83811015612f0c578181015183820152602001612ef4565b50505050905001848103835286818151815260200191508051906020019060200280838360005b83811015612f4b578181015183820152602001612f33565b50505050905001848103825285818151815260200191508051906020019080838360005b83811015612f87578181015183820152602001612f6f565b50505050905090810190601f168015612fb45780820380516001836020036101000a031916815260200191505b5098505050505050505050602060405180830381600087803b158015612fd957600080fd5b505af1158015612fed573d6000803e3d6000fd5b505050506040513d602081101561300357600080fd5b50516001600160e01b03191614611087576040805162461bcd60e51b815260206004820152601b60248201527f496e76656e746f72793a207472616e7366657220726566757365640000000000604482015290519081900360640190fd5b6060816130a2575060408051808201909152600181527f30000000000000000000000000000000000000000000000000000000000000006020820152611028565b8160005b81156130ba57600101600a820491506130a6565b60008167ffffffffffffffff811180156130d357600080fd5b506040519080825280601f01601f1916602001820160405280156130fe576020820181803683370190505b50859350905060001982015b831561316757600a840660300160f81b8282806001900393508151811061312d57fe5b60200101907effffffffffffffffffffffffffffffffffffffffffffffffffffffffffffff1916908160001a905350600a8404935061310a565b50949350505050565b6000816001600160a01b0316836001600160a01b031614806131b557506001600160a01b038084166000908152602081815260408083209386168352929052205460ff165b9392505050565b8061320e576040805162461bcd60e51b815260206004820152601560248201527f496e76656e746f72793a207a65726f2076616c75650000000000000000000000604482015290519081900360640190fd5b60008281526001602090815260408083206001600160a01b038716845290915290205481811015613286576040805162461bcd60e51b815260206004820152601d60248201527f496e76656e746f72793a206e6f7420656e6f7567682062616c616e6365000000604482015290519081900360640190fd5b60008381526001602090815260408083206001600160a01b03909716835295815285822092849003909255928352600290529190208054919091039055565b8160011461331a576040805162461bcd60e51b815260206004820152601a60248201527f496e76656e746f72793a2077726f6e67204e46542076616c7565000000000000604482015290519081900360640190fd5b6000838152600360205260409020546001600160a01b03858116911614613388576040805162461bcd60e51b815260206004820152601860248201527f496e76656e746f72793a206e6f6e2d6f776e6564204e46540000000000000000604482015290519081900360640190fd5b60008381526003602052604090207fdead0000000000000000000000000000000000000000000000000000000000009055806110495760006133c984612702565b60008181526001602090815260408083206001600160a01b038a1684528252808320805460001990810190915593835260029091529020805490910190555050505050565b6001600160a01b038416613469576040805162461bcd60e51b815260206004820152601b60248201527f496e76656e746f72793a207472616e7366657220746f207a65726f0000000000604482015290519081900360640190fd5b8251825181146134c0576040805162461bcd60e51b815260206004820152601e60248201527f496e76656e746f72793a20696e636f6e73697374656e74206172726179730000604482015290519081900360640190fd5b60006134ca6119c7565b90506134d68782613170565b613527576040805162461bcd60e51b815260206004820152601e60248201527f496e76656e746f72793a206e6f6e2d617070726f7665642073656e6465720000604482015290519081900360640190fd5b60008060005b8481146135ef57600088828151811061354257fe5b60200260200101519050600088838151811061355a57fe5b6020026020010151905061356d82612698565b156135835761357e8c8c8484613ba9565b6135e5565b61358c82611937565b15611c095761359f8c8c84846001613cc7565b60006135aa83612702565b9050856135bd57809550600194506135e3565b8581146135dc576135d08d8d8888613e04565b809550600194506135e3565b8460010194505b505b505060010161352d565b5081156136025761360289898484613e04565b876001600160a01b0316896001600160a01b0316846001600160a01b03167f4a39dc06d4c0dbc64b70af90fd698a233a518aa5d07e595d983b8c0526c8f7fb8a8a604051808060200180602001838103835285818151815260200191508051906020019060200280838360005b8381101561368757818101518382015260200161366f565b50505050905001838103825284818151815260200191508051906020019060200280838360005b838110156136c65781810151838201526020016136ae565b5050505090500194505050505060405180910390a46136ed886001600160a01b0316612e55565b156136ff576136ff8989898989612e5b565b505050505050505050565b60085460ff166110a6576040805162461bcd60e51b815260206004820152601460248201527f5061757361626c653a206e6f7420706175736564000000000000000000000000604482015290519081900360640190fd5b7ff23a6e61000000000000000000000000000000000000000000000000000000006001600160a01b03851663f23a6e616137996119c7565b888787876040518663ffffffff1660e01b815260040180866001600160a01b03168152602001856001600160a01b0316815260200184815260200183815260200180602001828103825283818151815260200191508051906020019080838360005b838110156138135781810151838201526020016137fb565b50505050905090810190601f1680156138405780820380516001836020036101000a031916815260200191505b509650505050505050602060405180830381600087803b158015612fd957600080fd5b816138766001600160a01b038216612e55565b6138c7576040805162461bcd60e51b815260206004820152601a60248201527f4552433230577261707065723a206e6f6e2d636f6e7472616374000000000000604482015290519081900360640190fd5b600080826001600160a01b0316846040518082805190602001908083835b602083106139045780518252601f1990920191602091820191016138e5565b6001836020036101000a0380198251168184511680821785525050505050509050019150506000604051808303816000865af19150503d8060008114613966576040519150601f19603f3d011682016040523d82523d6000602084013e61396b565b606091505b509150915081156139ea578051156139e55780806020019051602081101561399257600080fd5b50516139e5576040805162461bcd60e51b815260206004820152601e60248201527f4552433230577261707065723a206f7065726174696f6e206661696c65640000604482015290519081900360640190fd5b611087565b8051613a3d576040805162461bcd60e51b815260206004820152601e60248201527f4552433230577261707065723a206f7065726174696f6e206661696c65640000604482015290519081900360640190fd5b80518082602001fd5b366000336001600160a01b037f000000000000000000000000000000000000000000000000000000000000000016811480613ab257507f00000000000000000000000000000000000000000000000000000000000000006001600160a01b0316816001600160a01b0316145b15613ac957613abf613e58565b9250925050613ba5565b6001600160a01b0381163214801590613b8f57507f00000000000000000000000000000000000000000000000000000000000000006001600160a01b031663e60125d6613b14613df8565b836040518363ffffffff1660e01b815260040180836001600160a01b03168152602001826001600160a01b031681526020019250505060206040518083038186803b158015613b6257600080fd5b505afa158015613b76573d6000803e3d6000fd5b505050506040513d6020811015613b8c57600080fd5b50515b15613b9c57613abf613e58565b60003692509250505b9091565b80613bfb576040805162461bcd60e51b815260206004820152601560248201527f496e76656e746f72793a207a65726f2076616c75650000000000000000000000604482015290519081900360640190fd5b60008281526001602090815260408083206001600160a01b038816845290915290205481811015613c73576040805162461bcd60e51b815260206004820152601d60248201527f496e76656e746f72793a206e6f7420656e6f7567682062616c616e6365000000604482015290519081900360640190fd5b836001600160a01b0316856001600160a01b0316146110875760009283526001602090815260408085206001600160a01b039788168652909152808420918390039091559290931681522080549091019055565b81600114613d1c576040805162461bcd60e51b815260206004820152601a60248201527f496e76656e746f72793a2077726f6e67204e46542076616c7565000000000000604482015290519081900360640190fd5b6000838152600360205260409020546001600160a01b03868116911614613d8a576040805162461bcd60e51b815260206004820152601860248201527f496e76656e746f72793a206e6f6e2d6f776e6564204e46540000000000000000604482015290519081900360640190fd5b60008381526003602052604090206001600160a01b038516905580611087576000613db484612702565b60009081526001602081815260408084206001600160a01b039a8b168552909152808320805460001901905596909716815294909420805490950190945550505050565b60131936013560601c90565b826001600160a01b0316846001600160a01b0316146110495760009182526001602090815260408084206001600160a01b039687168552909152808320805483900390559290931681522080549091019055565b366000613e6b6013198301828481613f14565b915091509091565b828054600181600116156101000203166002900490600052602060002090601f016020900481019282613ea95760008555613eef565b82601f10613ec25782800160ff19823516178555613eef565b82800160010185558215613eef579182015b82811115613eef578235825591602001919060010190613ed4565b50613efb929150613eff565b5090565b5b80821115613efb5760008155600101613f00565b60008085851115613f23578182fd5b83861115613f2f578182fd5b505082019391909203915056fea2646970667358221220387f0d9f76e2d1e96c2260bd3928f6e90a0e8e186a5f62c963043658ec3ab03f64736f6c63430007060033",
  "linkReferences": {},
  "deployedLinkReferences": {}
}